{
  "_format": "hh-sol-artifact-1",
  "contractName": "DealChainSoul",
  "sourceName": "contracts/DealChainSoul.sol",
  "abi": [
    {
      "inputs": [],
      "stateMutability": "nonpayable",
      "type": "constructor"
    },
    {
      "inputs": [],
      "name": "YouAlreadyMintedYourSoulBound",
      "type": "error"
    },
    {
      "inputs": [],
      "name": "YouCannotChangeOtherUserInfo",
      "type": "error"
    },
    {
      "inputs": [],
      "name": "YourSoulboundIsNotTransferable",
      "type": "error"
    },
    {
      "anonymous": false,
      "inputs": [
        {
          "indexed": true,
          "internalType": "address",
          "name": "owner",
          "type": "address"
        },
        {
          "indexed": true,
          "internalType": "address",
          "name": "approved",
          "type": "address"
        },
        {
          "indexed": true,
          "internalType": "uint256",
          "name": "tokenId",
          "type": "uint256"
        }
      ],
      "name": "Approval",
      "type": "event"
    },
    {
      "anonymous": false,
      "inputs": [
        {
          "indexed": true,
          "internalType": "address",
          "name": "owner",
          "type": "address"
        },
        {
          "indexed": true,
          "internalType": "address",
          "name": "operator",
          "type": "address"
        },
        {
          "indexed": false,
          "internalType": "bool",
          "name": "approved",
          "type": "bool"
        }
      ],
      "name": "ApprovalForAll",
      "type": "event"
    },
    {
      "anonymous": false,
      "inputs": [
        {
          "indexed": true,
          "internalType": "address",
          "name": "from",
          "type": "address"
        },
        {
          "indexed": true,
          "internalType": "address",
          "name": "to",
          "type": "address"
        },
        {
          "indexed": true,
          "internalType": "uint256",
          "name": "tokenId",
          "type": "uint256"
        }
      ],
      "name": "Transfer",
      "type": "event"
    },
    {
      "inputs": [
        {
          "internalType": "uint256",
          "name": "tokenId",
          "type": "uint256"
        }
      ],
      "name": "addReputationPoint",
      "outputs": [
        {
          "internalType": "bool",
          "name": "",
          "type": "bool"
        }
      ],
      "stateMutability": "nonpayable",
      "type": "function"
    },
    {
      "inputs": [
        {
          "internalType": "address",
          "name": "to",
          "type": "address"
        },
        {
          "internalType": "uint256",
          "name": "tokenId",
          "type": "uint256"
        }
      ],
      "name": "approve",
      "outputs": [],
      "stateMutability": "nonpayable",
      "type": "function"
    },
    {
      "inputs": [
        {
          "internalType": "address",
          "name": "owner",
          "type": "address"
        }
      ],
      "name": "balanceOf",
      "outputs": [
        {
          "internalType": "uint256",
          "name": "",
          "type": "uint256"
        }
      ],
      "stateMutability": "view",
      "type": "function"
    },
    {
      "inputs": [
        {
          "internalType": "uint256",
          "name": "tokenId",
          "type": "uint256"
        },
        {
          "internalType": "string",
          "name": "_deliveryAddress",
          "type": "string"
        }
      ],
      "name": "changeDeliveryAddress",
      "outputs": [
        {
          "internalType": "bool",
          "name": "",
          "type": "bool"
        }
      ],
      "stateMutability": "nonpayable",
      "type": "function"
    },
    {
      "inputs": [
        {
          "internalType": "uint256",
          "name": "tokenId",
          "type": "uint256"
        }
      ],
      "name": "getApproved",
      "outputs": [
        {
          "internalType": "address",
          "name": "",
          "type": "address"
        }
      ],
      "stateMutability": "view",
      "type": "function"
    },
    {
      "inputs": [
        {
          "internalType": "uint256",
          "name": "tokenId",
          "type": "uint256"
        }
      ],
      "name": "getUserInfo",
      "outputs": [
        {
          "components": [
            {
              "internalType": "string",
              "name": "name",
              "type": "string"
            },
            {
              "internalType": "string",
              "name": "deliveryAddress",
              "type": "string"
            },
            {
              "internalType": "uint256",
              "name": "reputation",
              "type": "uint256"
            }
          ],
          "internalType": "struct DealChainSoul.UserInfo",
          "name": "",
          "type": "tuple"
        }
      ],
      "stateMutability": "view",
      "type": "function"
    },
    {
      "inputs": [
        {
          "internalType": "address",
          "name": "owner",
          "type": "address"
        },
        {
          "internalType": "address",
          "name": "operator",
          "type": "address"
        }
      ],
      "name": "isApprovedForAll",
      "outputs": [
        {
          "internalType": "bool",
          "name": "",
          "type": "bool"
        }
      ],
      "stateMutability": "view",
      "type": "function"
    },
    {
      "inputs": [
        {
          "internalType": "string",
          "name": "_name",
          "type": "string"
        },
        {
          "internalType": "string",
          "name": "_deliveryAddress",
          "type": "string"
        }
      ],
      "name": "mint",
      "outputs": [],
      "stateMutability": "nonpayable",
      "type": "function"
    },
    {
      "inputs": [],
      "name": "name",
      "outputs": [
        {
          "internalType": "string",
          "name": "",
          "type": "string"
        }
      ],
      "stateMutability": "view",
      "type": "function"
    },
    {
      "inputs": [
        {
          "internalType": "uint256",
          "name": "tokenId",
          "type": "uint256"
        }
      ],
      "name": "ownerOf",
      "outputs": [
        {
          "internalType": "address",
          "name": "",
          "type": "address"
        }
      ],
      "stateMutability": "view",
      "type": "function"
    },
    {
      "inputs": [
        {
          "internalType": "address",
          "name": "from",
          "type": "address"
        },
        {
          "internalType": "address",
          "name": "to",
          "type": "address"
        },
        {
          "internalType": "uint256",
          "name": "tokenId",
          "type": "uint256"
        }
      ],
      "name": "safeTransferFrom",
      "outputs": [],
      "stateMutability": "nonpayable",
      "type": "function"
    },
    {
      "inputs": [
        {
          "internalType": "address",
          "name": "from",
          "type": "address"
        },
        {
          "internalType": "address",
          "name": "to",
          "type": "address"
        },
        {
          "internalType": "uint256",
          "name": "tokenId",
          "type": "uint256"
        },
        {
          "internalType": "bytes",
          "name": "data",
          "type": "bytes"
        }
      ],
      "name": "safeTransferFrom",
      "outputs": [],
      "stateMutability": "nonpayable",
      "type": "function"
    },
    {
      "inputs": [
        {
          "internalType": "address",
          "name": "operator",
          "type": "address"
        },
        {
          "internalType": "bool",
          "name": "approved",
          "type": "bool"
        }
      ],
      "name": "setApprovalForAll",
      "outputs": [],
      "stateMutability": "nonpayable",
      "type": "function"
    },
    {
      "inputs": [
        {
          "internalType": "bytes4",
          "name": "interfaceId",
          "type": "bytes4"
        }
      ],
      "name": "supportsInterface",
      "outputs": [
        {
          "internalType": "bool",
          "name": "",
          "type": "bool"
        }
      ],
      "stateMutability": "view",
      "type": "function"
    },
    {
      "inputs": [],
      "name": "symbol",
      "outputs": [
        {
          "internalType": "string",
          "name": "",
          "type": "string"
        }
      ],
      "stateMutability": "view",
      "type": "function"
    },
    {
      "inputs": [
        {
          "internalType": "uint256",
          "name": "tokenId",
          "type": "uint256"
        }
      ],
      "name": "tokenURI",
      "outputs": [
        {
          "internalType": "string",
          "name": "",
          "type": "string"
        }
      ],
      "stateMutability": "view",
      "type": "function"
    },
    {
      "inputs": [
        {
          "internalType": "address",
          "name": "from",
          "type": "address"
        },
        {
          "internalType": "address",
          "name": "to",
          "type": "address"
        },
        {
          "internalType": "uint256",
          "name": "tokenId",
          "type": "uint256"
        }
      ],
      "name": "transferFrom",
      "outputs": [],
      "stateMutability": "nonpayable",
      "type": "function"
    },
    {
      "inputs": [
        {
          "internalType": "address",
          "name": "",
          "type": "address"
        }
      ],
      "name": "userSoulId",
      "outputs": [
        {
          "internalType": "uint256",
          "name": "",
          "type": "uint256"
        }
      ],
      "stateMutability": "view",
      "type": "function"
    }
  ],
  "bytecode": "0x60806040523480156200001157600080fd5b506040518060400160405280600d81526020017f4465616c436861696e536f756c000000000000000000000000000000000000008152506040518060400160405280600381526020017f444353000000000000000000000000000000000000000000000000000000000081525081600090816200008f919062000324565b508060019081620000a1919062000324565b5050506200040b565b600081519050919050565b7f4e487b7100000000000000000000000000000000000000000000000000000000600052604160045260246000fd5b7f4e487b7100000000000000000000000000000000000000000000000000000000600052602260045260246000fd5b600060028204905060018216806200012c57607f821691505b602082108103620001425762000141620000e4565b5b50919050565b60008190508160005260206000209050919050565b60006020601f8301049050919050565b600082821b905092915050565b600060088302620001ac7fffffffffffffffffffffffffffffffffffffffffffffffffffffffffffffffff826200016d565b620001b886836200016d565b95508019841693508086168417925050509392505050565b6000819050919050565b6000819050919050565b600062000205620001ff620001f984620001d0565b620001da565b620001d0565b9050919050565b6000819050919050565b6200022183620001e4565b6200023962000230826200020c565b8484546200017a565b825550505050565b600090565b6200025062000241565b6200025d81848462000216565b505050565b5b8181101562000285576200027960008262000246565b60018101905062000263565b5050565b601f821115620002d4576200029e8162000148565b620002a9846200015d565b81016020851015620002b9578190505b620002d1620002c8856200015d565b83018262000262565b50505b505050565b600082821c905092915050565b6000620002f960001984600802620002d9565b1980831691505092915050565b6000620003148383620002e6565b9150826002028217905092915050565b6200032f82620000aa565b67ffffffffffffffff8111156200034b576200034a620000b5565b5b62000357825462000113565b6200036482828562000289565b600060209050601f8311600181146200039c576000841562000387578287015190505b62000393858262000306565b86555062000403565b601f198416620003ac8662000148565b60005b82811015620003d657848901518255600182019150602085019450602081019050620003af565b86831015620003f65784890151620003f2601f891682620002e6565b8355505b6001600288020188555050505b505050505050565b61304e806200041b6000396000f3fe608060405234801561001057600080fd5b50600436106101165760003560e01c80638c633afe116100a2578063b92d039911610071578063b92d0399146102ef578063bef87e081461031f578063c87b56dd1461034f578063d379dadf1461037f578063e985e9c5146103af57610116565b80638c633afe1461026957806395d89b4114610299578063a22cb465146102b7578063b88d4fde146102d357610116565b806323b872dd116100e957806323b872dd146101b557806342842e0e146101d15780636352211e146101ed57806370a082311461021d5780638aa0fdad1461024d57610116565b806301ffc9a71461011b57806306fdde031461014b578063081812fc14610169578063095ea7b314610199575b600080fd5b61013560048036038101906101309190611d8a565b6103df565b6040516101429190611dd2565b60405180910390f35b6101536104c1565b6040516101609190611e7d565b60405180910390f35b610183600480360381019061017e9190611ed5565b610553565b6040516101909190611f43565b60405180910390f35b6101b360048036038101906101ae9190611f8a565b610599565b005b6101cf60048036038101906101ca9190611fca565b6106b0565b005b6101eb60048036038101906101e69190611fca565b610710565b005b61020760048036038101906102029190611ed5565b610730565b6040516102149190611f43565b60405180910390f35b6102376004803603810190610232919061201d565b6107b6565b6040516102449190612059565b60405180910390f35b610267600480360381019061026291906120d9565b61086d565b005b610283600480360381019061027e919061201d565b6109e7565b6040516102909190612059565b60405180910390f35b6102a16109ff565b6040516102ae9190611e7d565b60405180910390f35b6102d160048036038101906102cc9190612186565b610a91565b005b6102ed60048036038101906102e891906122f6565b610aa7565b005b61030960048036038101906103049190611ed5565b610b09565b6040516103169190611dd2565b60405180910390f35b6103396004803603810190610334919061241a565b610b51565b6040516103469190611dd2565b60405180910390f35b61036960048036038101906103649190611ed5565b610bfd565b6040516103769190611e7d565b60405180910390f35b61039960048036038101906103949190611ed5565b610c65565b6040516103a69190612526565b60405180910390f35b6103c960048036038101906103c49190612548565b610dcf565b6040516103d69190611dd2565b60405180910390f35b60007f80ac58cd000000000000000000000000000000000000000000000000000000007bffffffffffffffffffffffffffffffffffffffffffffffffffffffff1916827bffffffffffffffffffffffffffffffffffffffffffffffffffffffff191614806104aa57507f5b5e139f000000000000000000000000000000000000000000000000000000007bffffffffffffffffffffffffffffffffffffffffffffffffffffffff1916827bffffffffffffffffffffffffffffffffffffffffffffffffffffffff1916145b806104ba57506104b982610e63565b5b9050919050565b6060600080546104d0906125b7565b80601f01602080910402602001604051908101604052809291908181526020018280546104fc906125b7565b80156105495780601f1061051e57610100808354040283529160200191610549565b820191906000526020600020905b81548152906001019060200180831161052c57829003601f168201915b5050505050905090565b600061055e82610ecd565b6004600083815260200190815260200160002060009054906101000a900473ffffffffffffffffffffffffffffffffffffffff169050919050565b60006105a482610730565b90508073ffffffffffffffffffffffffffffffffffffffff168373ffffffffffffffffffffffffffffffffffffffff1603610614576040517f08c379a000000000000000000000000000000000000000000000000000000000815260040161060b9061265a565b60405180910390fd5b8073ffffffffffffffffffffffffffffffffffffffff16610633610f18565b73ffffffffffffffffffffffffffffffffffffffff16148061066257506106618161065c610f18565b610dcf565b5b6106a1576040517f08c379a0000000000000000000000000000000000000000000000000000000008152600401610698906126ec565b60405180910390fd5b6106ab8383610f20565b505050565b6106c16106bb610f18565b82610fd9565b610700576040517f08c379a00000000000000000000000000000000000000000000000000000000081526004016106f79061277e565b60405180910390fd5b61070b83838361106e565b505050565b61072b83838360405180602001604052806000815250610aa7565b505050565b60008061073c83611367565b9050600073ffffffffffffffffffffffffffffffffffffffff168173ffffffffffffffffffffffffffffffffffffffff16036107ad576040517f08c379a00000000000000000000000000000000000000000000000000000000081526004016107a4906127ea565b60405180910390fd5b80915050919050565b60008073ffffffffffffffffffffffffffffffffffffffff168273ffffffffffffffffffffffffffffffffffffffff1603610826576040517f08c379a000000000000000000000000000000000000000000000000000000000815260040161081d9061287c565b60405180910390fd5b600360008373ffffffffffffffffffffffffffffffffffffffff1673ffffffffffffffffffffffffffffffffffffffff168152602001908152602001600020549050919050565b600061087960066113a4565b90506000604051806060016040528087878080601f016020809104026020016040519081016040528093929190818152602001838380828437600081840152601f19601f82011690508083019250505050505050815260200185858080601f016020809104026020016040519081016040528093929190818152602001838380828437600081840152601f19601f82011690508083019250505050505050815260200160008152509050600881908060018154018082558091505060019003906000526020600020906003020160009091909190915060008201518160000190816109649190612a48565b50602082015181600101908161097a9190612a48565b5060408201518160020155505081600960003373ffffffffffffffffffffffffffffffffffffffff1673ffffffffffffffffffffffffffffffffffffffff168152602001908152602001600020819055506109d533836113b2565b6109df60066113d0565b505050505050565b60096020528060005260406000206000915090505481565b606060018054610a0e906125b7565b80601f0160208091040260200160405190810160405280929190818152602001828054610a3a906125b7565b8015610a875780601f10610a5c57610100808354040283529160200191610a87565b820191906000526020600020905b815481529060010190602001808311610a6a57829003601f168201915b5050505050905090565b610aa3610a9c610f18565b83836113e6565b5050565b610ab8610ab2610f18565b83610fd9565b610af7576040517f08c379a0000000000000000000000000000000000000000000000000000000008152600401610aee9061277e565b60405180910390fd5b610b0384848484611552565b50505050565b6000600160088381548110610b2157610b20612b1a565b5b90600052602060002090600302016002016000828254610b419190612b78565b9250508190555060019050919050565b6000610b5c83610730565b73ffffffffffffffffffffffffffffffffffffffff163373ffffffffffffffffffffffffffffffffffffffff1614610bc0576040517f21ef4c2d00000000000000000000000000000000000000000000000000000000815260040160405180910390fd5b8160088481548110610bd557610bd4612b1a565b5b90600052602060002090600302016001019081610bf29190612a48565b506001905092915050565b6060610c0882610ecd565b6000610c126115ae565b90506000815111610c325760405180602001604052806000815250610c5d565b80610c3c846115c5565b604051602001610c4d929190612be8565b6040516020818303038152906040525b915050919050565b610c6d611cfd565b60088281548110610c8157610c80612b1a565b5b9060005260206000209060030201604051806060016040529081600082018054610caa906125b7565b80601f0160208091040260200160405190810160405280929190818152602001828054610cd6906125b7565b8015610d235780601f10610cf857610100808354040283529160200191610d23565b820191906000526020600020905b815481529060010190602001808311610d0657829003601f168201915b50505050508152602001600182018054610d3c906125b7565b80601f0160208091040260200160405190810160405280929190818152602001828054610d68906125b7565b8015610db55780601f10610d8a57610100808354040283529160200191610db5565b820191906000526020600020905b815481529060010190602001808311610d9857829003601f168201915b505050505081526020016002820154815250509050919050565b6000600560008473ffffffffffffffffffffffffffffffffffffffff1673ffffffffffffffffffffffffffffffffffffffff16815260200190815260200160002060008373ffffffffffffffffffffffffffffffffffffffff1673ffffffffffffffffffffffffffffffffffffffff16815260200190815260200160002060009054906101000a900460ff16905092915050565b60007f01ffc9a7000000000000000000000000000000000000000000000000000000007bffffffffffffffffffffffffffffffffffffffffffffffffffffffff1916827bffffffffffffffffffffffffffffffffffffffffffffffffffffffff1916149050919050565b610ed681611693565b610f15576040517f08c379a0000000000000000000000000000000000000000000000000000000008152600401610f0c906127ea565b60405180910390fd5b50565b600033905090565b816004600083815260200190815260200160002060006101000a81548173ffffffffffffffffffffffffffffffffffffffff021916908373ffffffffffffffffffffffffffffffffffffffff160217905550808273ffffffffffffffffffffffffffffffffffffffff16610f9383610730565b73ffffffffffffffffffffffffffffffffffffffff167f8c5be1e5ebec7d5bd14f71427d1e84f3dd0314c0f7b2291e5b200ac8c7c3b92560405160405180910390a45050565b600080610fe583610730565b90508073ffffffffffffffffffffffffffffffffffffffff168473ffffffffffffffffffffffffffffffffffffffff16148061102757506110268185610dcf565b5b8061106557508373ffffffffffffffffffffffffffffffffffffffff1661104d84610553565b73ffffffffffffffffffffffffffffffffffffffff16145b91505092915050565b8273ffffffffffffffffffffffffffffffffffffffff1661108e82610730565b73ffffffffffffffffffffffffffffffffffffffff16146110e4576040517f08c379a00000000000000000000000000000000000000000000000000000000081526004016110db90612c7e565b60405180910390fd5b600073ffffffffffffffffffffffffffffffffffffffff168273ffffffffffffffffffffffffffffffffffffffff1603611153576040517f08c379a000000000000000000000000000000000000000000000000000000000815260040161114a90612d10565b60405180910390fd5b61116083838360016116d4565b8273ffffffffffffffffffffffffffffffffffffffff1661118082610730565b73ffffffffffffffffffffffffffffffffffffffff16146111d6576040517f08c379a00000000000000000000000000000000000000000000000000000000081526004016111cd90612c7e565b60405180910390fd5b6004600082815260200190815260200160002060006101000a81549073ffffffffffffffffffffffffffffffffffffffff02191690556001600360008573ffffffffffffffffffffffffffffffffffffffff1673ffffffffffffffffffffffffffffffffffffffff168152602001908152602001600020600082825403925050819055506001600360008473ffffffffffffffffffffffffffffffffffffffff1673ffffffffffffffffffffffffffffffffffffffff16815260200190815260200160002060008282540192505081905550816002600083815260200190815260200160002060006101000a81548173ffffffffffffffffffffffffffffffffffffffff021916908373ffffffffffffffffffffffffffffffffffffffff160217905550808273ffffffffffffffffffffffffffffffffffffffff168473ffffffffffffffffffffffffffffffffffffffff167fddf252ad1be2c89b69c2b068fc378daa952ba7f163c4a11628f55a4df523b3ef60405160405180910390a46113628383836001611782565b505050565b60006002600083815260200190815260200160002060009054906101000a900473ffffffffffffffffffffffffffffffffffffffff169050919050565b600081600001549050919050565b6113cc828260405180602001604052806000815250611788565b5050565b6001816000016000828254019250508190555050565b8173ffffffffffffffffffffffffffffffffffffffff168373ffffffffffffffffffffffffffffffffffffffff1603611454576040517f08c379a000000000000000000000000000000000000000000000000000000000815260040161144b90612d7c565b60405180910390fd5b80600560008573ffffffffffffffffffffffffffffffffffffffff1673ffffffffffffffffffffffffffffffffffffffff16815260200190815260200160002060008473ffffffffffffffffffffffffffffffffffffffff1673ffffffffffffffffffffffffffffffffffffffff16815260200190815260200160002060006101000a81548160ff0219169083151502179055508173ffffffffffffffffffffffffffffffffffffffff168373ffffffffffffffffffffffffffffffffffffffff167f17307eab39ab6107e8899845ad3d59bd9653f200f220920489ca2b5937696c31836040516115459190611dd2565b60405180910390a3505050565b61155d84848461106e565b611569848484846117e3565b6115a8576040517f08c379a000000000000000000000000000000000000000000000000000000000815260040161159f90612e0e565b60405180910390fd5b50505050565b606060405180602001604052806000815250905090565b6060600060016115d48461196a565b01905060008167ffffffffffffffff8111156115f3576115f26121cb565b5b6040519080825280601f01601f1916602001820160405280156116255781602001600182028036833780820191505090505b509050600082602001820190505b600115611688578080600190039150507f3031323334353637383961626364656600000000000000000000000000000000600a86061a8153600a858161167c5761167b612e2e565b5b04945060008503611633575b819350505050919050565b60008073ffffffffffffffffffffffffffffffffffffffff166116b583611367565b73ffffffffffffffffffffffffffffffffffffffff1614159050919050565b60006116df336107b6565b14611716576040517fccc9bb1100000000000000000000000000000000000000000000000000000000815260040160405180910390fd5b600073ffffffffffffffffffffffffffffffffffffffff168473ffffffffffffffffffffffffffffffffffffffff161461177c576040517f0ee4274f00000000000000000000000000000000000000000000000000000000815260040160405180910390fd5b50505050565b50505050565b6117928383611abd565b61179f60008484846117e3565b6117de576040517f08c379a00000000000000000000000000000000000000000000000000000000081526004016117d590612e0e565b60405180910390fd5b505050565b60006118048473ffffffffffffffffffffffffffffffffffffffff16611cda565b1561195d578373ffffffffffffffffffffffffffffffffffffffff1663150b7a0261182d610f18565b8786866040518563ffffffff1660e01b815260040161184f9493929190612eb2565b6020604051808303816000875af192505050801561188b57506040513d601f19601f820116820180604052508101906118889190612f13565b60015b61190d573d80600081146118bb576040519150601f19603f3d011682016040523d82523d6000602084013e6118c0565b606091505b506000815103611905576040517f08c379a00000000000000000000000000000000000000000000000000000000081526004016118fc90612e0e565b60405180910390fd5b805181602001fd5b63150b7a0260e01b7bffffffffffffffffffffffffffffffffffffffffffffffffffffffff1916817bffffffffffffffffffffffffffffffffffffffffffffffffffffffff191614915050611962565b600190505b949350505050565b600080600090507a184f03e93ff9f4daa797ed6e38ed64bf6a1f01000000000000000083106119c8577a184f03e93ff9f4daa797ed6e38ed64bf6a1f01000000000000000083816119be576119bd612e2e565b5b0492506040810190505b6d04ee2d6d415b85acef81000000008310611a05576d04ee2d6d415b85acef810000000083816119fb576119fa612e2e565b5b0492506020810190505b662386f26fc100008310611a3457662386f26fc100008381611a2a57611a29612e2e565b5b0492506010810190505b6305f5e1008310611a5d576305f5e1008381611a5357611a52612e2e565b5b0492506008810190505b6127108310611a82576127108381611a7857611a77612e2e565b5b0492506004810190505b60648310611aa55760648381611a9b57611a9a612e2e565b5b0492506002810190505b600a8310611ab4576001810190505b80915050919050565b600073ffffffffffffffffffffffffffffffffffffffff168273ffffffffffffffffffffffffffffffffffffffff1603611b2c576040517f08c379a0000000000000000000000000000000000000000000000000000000008152600401611b2390612f8c565b60405180910390fd5b611b3581611693565b15611b75576040517f08c379a0000000000000000000000000000000000000000000000000000000008152600401611b6c90612ff8565b60405180910390fd5b611b836000838360016116d4565b611b8c81611693565b15611bcc576040517f08c379a0000000000000000000000000000000000000000000000000000000008152600401611bc390612ff8565b60405180910390fd5b6001600360008473ffffffffffffffffffffffffffffffffffffffff1673ffffffffffffffffffffffffffffffffffffffff16815260200190815260200160002060008282540192505081905550816002600083815260200190815260200160002060006101000a81548173ffffffffffffffffffffffffffffffffffffffff021916908373ffffffffffffffffffffffffffffffffffffffff160217905550808273ffffffffffffffffffffffffffffffffffffffff16600073ffffffffffffffffffffffffffffffffffffffff167fddf252ad1be2c89b69c2b068fc378daa952ba7f163c4a11628f55a4df523b3ef60405160405180910390a4611cd6600083836001611782565b5050565b6000808273ffffffffffffffffffffffffffffffffffffffff163b119050919050565b60405180606001604052806060815260200160608152602001600081525090565b6000604051905090565b600080fd5b600080fd5b60007fffffffff0000000000000000000000000000000000000000000000000000000082169050919050565b611d6781611d32565b8114611d7257600080fd5b50565b600081359050611d8481611d5e565b92915050565b600060208284031215611da057611d9f611d28565b5b6000611dae84828501611d75565b91505092915050565b60008115159050919050565b611dcc81611db7565b82525050565b6000602082019050611de76000830184611dc3565b92915050565b600081519050919050565b600082825260208201905092915050565b60005b83811015611e27578082015181840152602081019050611e0c565b60008484015250505050565b6000601f19601f8301169050919050565b6000611e4f82611ded565b611e598185611df8565b9350611e69818560208601611e09565b611e7281611e33565b840191505092915050565b60006020820190508181036000830152611e978184611e44565b905092915050565b6000819050919050565b611eb281611e9f565b8114611ebd57600080fd5b50565b600081359050611ecf81611ea9565b92915050565b600060208284031215611eeb57611eea611d28565b5b6000611ef984828501611ec0565b91505092915050565b600073ffffffffffffffffffffffffffffffffffffffff82169050919050565b6000611f2d82611f02565b9050919050565b611f3d81611f22565b82525050565b6000602082019050611f586000830184611f34565b92915050565b611f6781611f22565b8114611f7257600080fd5b50565b600081359050611f8481611f5e565b92915050565b60008060408385031215611fa157611fa0611d28565b5b6000611faf85828601611f75565b9250506020611fc085828601611ec0565b9150509250929050565b600080600060608486031215611fe357611fe2611d28565b5b6000611ff186828701611f75565b935050602061200286828701611f75565b925050604061201386828701611ec0565b9150509250925092565b60006020828403121561203357612032611d28565b5b600061204184828501611f75565b91505092915050565b61205381611e9f565b82525050565b600060208201905061206e600083018461204a565b92915050565b600080fd5b600080fd5b600080fd5b60008083601f84011261209957612098612074565b5b8235905067ffffffffffffffff8111156120b6576120b5612079565b5b6020830191508360018202830111156120d2576120d161207e565b5b9250929050565b600080600080604085870312156120f3576120f2611d28565b5b600085013567ffffffffffffffff81111561211157612110611d2d565b5b61211d87828801612083565b9450945050602085013567ffffffffffffffff8111156121405761213f611d2d565b5b61214c87828801612083565b925092505092959194509250565b61216381611db7565b811461216e57600080fd5b50565b6000813590506121808161215a565b92915050565b6000806040838503121561219d5761219c611d28565b5b60006121ab85828601611f75565b92505060206121bc85828601612171565b9150509250929050565b600080fd5b7f4e487b7100000000000000000000000000000000000000000000000000000000600052604160045260246000fd5b61220382611e33565b810181811067ffffffffffffffff82111715612222576122216121cb565b5b80604052505050565b6000612235611d1e565b905061224182826121fa565b919050565b600067ffffffffffffffff821115612261576122606121cb565b5b61226a82611e33565b9050602081019050919050565b82818337600083830152505050565b600061229961229484612246565b61222b565b9050828152602081018484840111156122b5576122b46121c6565b5b6122c0848285612277565b509392505050565b600082601f8301126122dd576122dc612074565b5b81356122ed848260208601612286565b91505092915050565b600080600080608085870312156123105761230f611d28565b5b600061231e87828801611f75565b945050602061232f87828801611f75565b935050604061234087828801611ec0565b925050606085013567ffffffffffffffff81111561236157612360611d2d565b5b61236d878288016122c8565b91505092959194509250565b600067ffffffffffffffff821115612394576123936121cb565b5b61239d82611e33565b9050602081019050919050565b60006123bd6123b884612379565b61222b565b9050828152602081018484840111156123d9576123d86121c6565b5b6123e4848285612277565b509392505050565b600082601f83011261240157612400612074565b5b81356124118482602086016123aa565b91505092915050565b6000806040838503121561243157612430611d28565b5b600061243f85828601611ec0565b925050602083013567ffffffffffffffff8111156124605761245f611d2d565b5b61246c858286016123ec565b9150509250929050565b600082825260208201905092915050565b600061249282611ded565b61249c8185612476565b93506124ac818560208601611e09565b6124b581611e33565b840191505092915050565b6124c981611e9f565b82525050565b600060608301600083015184820360008601526124ec8282612487565b915050602083015184820360208601526125068282612487565b915050604083015161251b60408601826124c0565b508091505092915050565b6000602082019050818103600083015261254081846124cf565b905092915050565b6000806040838503121561255f5761255e611d28565b5b600061256d85828601611f75565b925050602061257e85828601611f75565b9150509250929050565b7f4e487b7100000000000000000000000000000000000000000000000000000000600052602260045260246000fd5b600060028204905060018216806125cf57607f821691505b6020821081036125e2576125e1612588565b5b50919050565b7f4552433732313a20617070726f76616c20746f2063757272656e74206f776e6560008201527f7200000000000000000000000000000000000000000000000000000000000000602082015250565b6000612644602183611df8565b915061264f826125e8565b604082019050919050565b6000602082019050818103600083015261267381612637565b9050919050565b7f4552433732313a20617070726f76652063616c6c6572206973206e6f7420746f60008201527f6b656e206f776e6572206f7220617070726f76656420666f7220616c6c000000602082015250565b60006126d6603d83611df8565b91506126e18261267a565b604082019050919050565b60006020820190508181036000830152612705816126c9565b9050919050565b7f4552433732313a2063616c6c6572206973206e6f7420746f6b656e206f776e6560008201527f72206f7220617070726f76656400000000000000000000000000000000000000602082015250565b6000612768602d83611df8565b91506127738261270c565b604082019050919050565b600060208201905081810360008301526127978161275b565b9050919050565b7f4552433732313a20696e76616c696420746f6b656e2049440000000000000000600082015250565b60006127d4601883611df8565b91506127df8261279e565b602082019050919050565b60006020820190508181036000830152612803816127c7565b9050919050565b7f4552433732313a2061646472657373207a65726f206973206e6f74206120766160008201527f6c6964206f776e65720000000000000000000000000000000000000000000000602082015250565b6000612866602983611df8565b91506128718261280a565b604082019050919050565b6000602082019050818103600083015261289581612859565b9050919050565b60008190508160005260206000209050919050565b60006020601f8301049050919050565b600082821b905092915050565b6000600883026128fe7fffffffffffffffffffffffffffffffffffffffffffffffffffffffffffffffff826128c1565b61290886836128c1565b95508019841693508086168417925050509392505050565b6000819050919050565b600061294561294061293b84611e9f565b612920565b611e9f565b9050919050565b6000819050919050565b61295f8361292a565b61297361296b8261294c565b8484546128ce565b825550505050565b600090565b61298861297b565b612993818484612956565b505050565b5b818110156129b7576129ac600082612980565b600181019050612999565b5050565b601f8211156129fc576129cd8161289c565b6129d6846128b1565b810160208510156129e5578190505b6129f96129f1856128b1565b830182612998565b50505b505050565b600082821c905092915050565b6000612a1f60001984600802612a01565b1980831691505092915050565b6000612a388383612a0e565b9150826002028217905092915050565b612a5182611ded565b67ffffffffffffffff811115612a6a57612a696121cb565b5b612a7482546125b7565b612a7f8282856129bb565b600060209050601f831160018114612ab25760008415612aa0578287015190505b612aaa8582612a2c565b865550612b12565b601f198416612ac08661289c565b60005b82811015612ae857848901518255600182019150602085019450602081019050612ac3565b86831015612b055784890151612b01601f891682612a0e565b8355505b6001600288020188555050505b505050505050565b7f4e487b7100000000000000000000000000000000000000000000000000000000600052603260045260246000fd5b7f4e487b7100000000000000000000000000000000000000000000000000000000600052601160045260246000fd5b6000612b8382611e9f565b9150612b8e83611e9f565b9250828201905080821115612ba657612ba5612b49565b5b92915050565b600081905092915050565b6000612bc282611ded565b612bcc8185612bac565b9350612bdc818560208601611e09565b80840191505092915050565b6000612bf48285612bb7565b9150612c008284612bb7565b91508190509392505050565b7f4552433732313a207472616e736665722066726f6d20696e636f72726563742060008201527f6f776e6572000000000000000000000000000000000000000000000000000000602082015250565b6000612c68602583611df8565b9150612c7382612c0c565b604082019050919050565b60006020820190508181036000830152612c9781612c5b565b9050919050565b7f4552433732313a207472616e7366657220746f20746865207a65726f2061646460008201527f7265737300000000000000000000000000000000000000000000000000000000602082015250565b6000612cfa602483611df8565b9150612d0582612c9e565b604082019050919050565b60006020820190508181036000830152612d2981612ced565b9050919050565b7f4552433732313a20617070726f766520746f2063616c6c657200000000000000600082015250565b6000612d66601983611df8565b9150612d7182612d30565b602082019050919050565b60006020820190508181036000830152612d9581612d59565b9050919050565b7f4552433732313a207472616e7366657220746f206e6f6e20455243373231526560008201527f63656976657220696d706c656d656e7465720000000000000000000000000000602082015250565b6000612df8603283611df8565b9150612e0382612d9c565b604082019050919050565b60006020820190508181036000830152612e2781612deb565b9050919050565b7f4e487b7100000000000000000000000000000000000000000000000000000000600052601260045260246000fd5b600081519050919050565b600082825260208201905092915050565b6000612e8482612e5d565b612e8e8185612e68565b9350612e9e818560208601611e09565b612ea781611e33565b840191505092915050565b6000608082019050612ec76000830187611f34565b612ed46020830186611f34565b612ee1604083018561204a565b8181036060830152612ef38184612e79565b905095945050505050565b600081519050612f0d81611d5e565b92915050565b600060208284031215612f2957612f28611d28565b5b6000612f3784828501612efe565b91505092915050565b7f4552433732313a206d696e7420746f20746865207a65726f2061646472657373600082015250565b6000612f76602083611df8565b9150612f8182612f40565b602082019050919050565b60006020820190508181036000830152612fa581612f69565b9050919050565b7f4552433732313a20746f6b656e20616c7265616479206d696e74656400000000600082015250565b6000612fe2601c83611df8565b9150612fed82612fac565b602082019050919050565b6000602082019050818103600083015261301181612fd5565b905091905056fea2646970667358221220a375ed4e9cfe0752130694245ece171f6f317abd93da65a78e314ab95ed34d4d64736f6c63430008110033",
  "linkReferences": {},
  "deployedLinkReferences": {}
}