{
  "_format": "hh-sol-artifact-1",
  "contractName": "PreProduct",
  "sourceName": "contracts/PreProduct.sol",
  "abi": [
    {
      "inputs": [],
      "name": "OnlyTheConcernedCompanyCanAccept",
      "type": "error"
    },
    {
      "inputs": [],
      "name": "YouAlreadySentYourInterest",
      "type": "error"
    },
    {
      "anonymous": false,
      "inputs": [
        {
          "indexed": true,
          "internalType": "address",
          "name": "company",
          "type": "address"
        },
        {
          "indexed": false,
          "internalType": "bytes32",
          "name": "productName",
          "type": "bytes32"
        },
        {
          "indexed": true,
          "internalType": "uint128",
          "name": "quantityTreshold",
          "type": "uint128"
        }
      ],
      "name": "ProductOfferCreationAccepted",
      "type": "event"
    },
    {
      "inputs": [
        {
          "internalType": "uint256",
          "name": "marketPrice",
          "type": "uint256"
        },
        {
          "internalType": "uint128",
          "name": "quantityTreshold",
          "type": "uint128"
        },
        {
          "internalType": "uint128",
          "name": "endDate",
          "type": "uint128"
        }
      ],
      "name": "acceptCreateProductOffer",
      "outputs": [],
      "stateMutability": "nonpayable",
      "type": "function"
    },
    {
      "inputs": [],
      "name": "expressInterest",
      "outputs": [],
      "stateMutability": "nonpayable",
      "type": "function"
    },
    {
      "inputs": [],
      "name": "getNumberOfPotentialBuyer",
      "outputs": [
        {
          "internalType": "uint256",
          "name": "",
          "type": "uint256"
        }
      ],
      "stateMutability": "view",
      "type": "function"
    },
    {
      "inputs": [
        {
          "internalType": "address",
          "name": "company",
          "type": "address"
        },
        {
          "internalType": "bytes32",
          "name": "name",
          "type": "bytes32"
        },
        {
          "internalType": "uint256",
          "name": "queryPrice",
          "type": "uint256"
        },
        {
          "internalType": "function (address,bytes32,uint256,uint256,uint128,uint128) external returns (bool)",
          "name": "createProduct",
          "type": "function"
        }
      ],
      "name": "query",
      "outputs": [],
      "stateMutability": "nonpayable",
      "type": "function"
    },
    {
      "inputs": [],
      "name": "request",
      "outputs": [
        {
          "internalType": "address",
          "name": "company",
          "type": "address"
        },
        {
          "internalType": "bytes32",
          "name": "name",
          "type": "bytes32"
        },
        {
          "internalType": "uint256",
          "name": "queryPrice",
          "type": "uint256"
        },
        {
          "internalType": "function (address,bytes32,uint256,uint256,uint128,uint128) external returns (bool)",
          "name": "createProduct",
          "type": "function"
        },
        {
          "internalType": "uint256",
          "name": "numberOfPotentialBuyer",
          "type": "uint256"
        }
      ],
      "stateMutability": "view",
      "type": "function"
    }
  ],
  "bytecode": "0x608060405234801561001057600080fd5b50610a93806100206000396000f3fe608060405234801561001057600080fd5b50600436106100575760003560e01c806314ae2ed71461005c578063338cdca114610078578063524b87bd1461009b578063adbaa798146100b9578063c3a4343c146100d5575b600080fd5b610076600480360381019061007191906105e3565b6100df565b005b6100806102c0565b6040516100929695949392919061070b565b60405180910390f35b6100a3610330565b6040516100b09190610760565b60405180910390f35b6100d360048036038101906100ce919061089e565b61033c565b005b6100dd61045f565b005b6000800160009054906101000a900473ffffffffffffffffffffffffffffffffffffffff1673ffffffffffffffffffffffffffffffffffffffff163373ffffffffffffffffffffffffffffffffffffffff1614610168576040517f407b35b300000000000000000000000000000000000000000000000000000000815260040160405180910390fd5b600060030160009054906101000a90048060201c73ffffffffffffffffffffffffffffffffffffffff169063ffffffff166000800160009054906101000a900473ffffffffffffffffffffffffffffffffffffffff166000600101548660006002015487876040518763ffffffff1660e01b81526004016101ee96959493929190610919565b6020604051808303816000875af115801561020d573d6000803e3d6000fd5b505050506040513d601f19601f8201168201806040525081019061023191906109b2565b50816fffffffffffffffffffffffffffffffff166000800160009054906101000a900473ffffffffffffffffffffffffffffffffffffffff1673ffffffffffffffffffffffffffffffffffffffff167eeb006ed328f171664ee7f0750c590b90a6f873f69a754078b7324c9fa9cc646000600101546040516102b391906109df565b60405180910390a3505050565b60008060000160009054906101000a900473ffffffffffffffffffffffffffffffffffffffff16908060010154908060020154908060030160009054906101000a90048060201c73ffffffffffffffffffffffffffffffffffffffff169063ffffffff1690918060040154905086565b60008060040154905090565b6040518060a001604052808673ffffffffffffffffffffffffffffffffffffffff168152602001858152602001848152602001838363ffffffff169060201b1760401b815260200160008152506000808201518160000160006101000a81548173ffffffffffffffffffffffffffffffffffffffff021916908373ffffffffffffffffffffffffffffffffffffffff160217905550602082015181600101556040820151816002015560608201518060601c9060401c63ffffffff168260030160006101000a81548177ffffffffffffffffffffffffffffffffffffffffffffffff02191690848463ffffffff169073ffffffffffffffffffffffffffffffffffffffff1660201b17021790555050608082015181600401559050505050505050565b60011515600560003373ffffffffffffffffffffffffffffffffffffffff1673ffffffffffffffffffffffffffffffffffffffff16815260200190815260200160002060009054906101000a900460ff161515036104e9576040517f3a7dab6500000000000000000000000000000000000000000000000000000000815260040160405180910390fd5b6001600560003373ffffffffffffffffffffffffffffffffffffffff1673ffffffffffffffffffffffffffffffffffffffff16815260200190815260200160002060006101000a81548160ff0219169083151502179055506001600060040160008282546105579190610a29565b92505081905550565b600080fd5b6000819050919050565b61057881610565565b811461058357600080fd5b50565b6000813590506105958161056f565b92915050565b60006fffffffffffffffffffffffffffffffff82169050919050565b6105c08161059b565b81146105cb57600080fd5b50565b6000813590506105dd816105b7565b92915050565b6000806000606084860312156105fc576105fb610560565b5b600061060a86828701610586565b935050602061061b868287016105ce565b925050604061062c868287016105ce565b9150509250925092565b600073ffffffffffffffffffffffffffffffffffffffff82169050919050565b600061066182610636565b9050919050565b61067181610656565b82525050565b6000819050919050565b61068a81610677565b82525050565b61069981610565565b82525050565b60008160201b9050919050565b60008160401b9050919050565b60006106d463ffffffff84166106ce8461069f565b176106ac565b905092915050565b6000808291508390509250929050565b6106f682826106dc565b9250905061070482826106b9565b8352505050565b600060a0820190506107206000830189610668565b61072d6020830188610681565b61073a6040830187610690565b6107486060830185876106ec565b6107556080830184610690565b979650505050505050565b60006020820190506107756000830184610690565b92915050565b61078481610656565b811461078f57600080fd5b50565b6000813590506107a18161077b565b92915050565b6107b081610677565b81146107bb57600080fd5b50565b6000813590506107cd816107a7565b92915050565b60007fffffffffffffffffffffffffffffffffffffffffffffffff000000000000000082169050919050565b600061080a826107d3565b9050919050565b61081a816107ff565b811461082557600080fd5b50565b60008135905061083781610811565b92915050565b60008160201c9050919050565b60008160401c9050919050565b6000806108638361084a565b925063ffffffff831690506108778361083d565b9150915091565b60008061089361088e8585610828565b610857565b915091509250929050565b6000806000806000608086880312156108ba576108b9610560565b5b60006108c888828901610792565b95505060206108d9888289016107be565b94505060406108ea88828901610586565b93505060606108fb8882890161087e565b92509250509295509295909350565b6109138161059b565b82525050565b600060c08201905061092e6000830189610668565b61093b6020830188610681565b6109486040830187610690565b6109556060830186610690565b610962608083018561090a565b61096f60a083018461090a565b979650505050505050565b60008115159050919050565b61098f8161097a565b811461099a57600080fd5b50565b6000815190506109ac81610986565b92915050565b6000602082840312156109c8576109c7610560565b5b60006109d68482850161099d565b91505092915050565b60006020820190506109f46000830184610681565b92915050565b7f4e487b7100000000000000000000000000000000000000000000000000000000600052601160045260246000fd5b6000610a3482610565565b9150610a3f83610565565b9250828201905080821115610a5757610a566109fa565b5b9291505056fea264697066735822122062e473d1488f15d113de5418291d43775ae1cda829cd4a57e236c043ddd0f6a464736f6c63430008110033",
  "linkReferences": {},
  "deployedLinkReferences": {}
}