{
  "_format": "hh-sol-artifact-1",
  "contractName": "PreProduct",
  "sourceName": "contracts/PreProduct.sol",
  "abi": [
    {
      "inputs": [],
      "name": "OnlyTheConcernedCompanyCanAccept",
      "type": "error"
    },
    {
      "inputs": [],
      "name": "YouAlreadySentYourInterest",
      "type": "error"
    },
    {
      "anonymous": false,
      "inputs": [
        {
          "indexed": true,
          "internalType": "address",
          "name": "company",
          "type": "address"
        },
        {
          "indexed": false,
          "internalType": "bytes32",
          "name": "productName",
          "type": "bytes32"
        },
        {
          "indexed": true,
          "internalType": "uint128",
          "name": "quantityTreshold",
          "type": "uint128"
        }
      ],
      "name": "ProductOfferCreationAccepted",
      "type": "event"
    },
    {
      "inputs": [
        {
          "internalType": "uint256",
          "name": "marketPrice",
          "type": "uint256"
        },
        {
          "internalType": "uint128",
          "name": "quantityTreshold",
          "type": "uint128"
        },
        {
          "internalType": "uint128",
          "name": "endDate",
          "type": "uint128"
        }
      ],
      "name": "acceptCreateProductOffer",
      "outputs": [],
      "stateMutability": "nonpayable",
      "type": "function"
    },
    {
      "inputs": [],
      "name": "expressInterest",
      "outputs": [],
      "stateMutability": "nonpayable",
      "type": "function"
    },
    {
      "inputs": [],
      "name": "getNumberOfPotentialBuyer",
      "outputs": [
        {
          "internalType": "uint256",
          "name": "",
          "type": "uint256"
        }
      ],
      "stateMutability": "view",
      "type": "function"
    },
    {
      "inputs": [
        {
          "internalType": "address",
          "name": "company",
          "type": "address"
        },
        {
          "internalType": "bytes32",
          "name": "name",
          "type": "bytes32"
        },
        {
          "internalType": "uint256",
          "name": "queryPrice",
          "type": "uint256"
        },
        {
          "internalType": "function (address,bytes32,uint256,uint256,uint128,uint128) external returns (bool)",
          "name": "createProduct",
          "type": "function"
        }
      ],
      "name": "query",
      "outputs": [],
      "stateMutability": "nonpayable",
      "type": "function"
    },
    {
      "inputs": [],
      "name": "request",
      "outputs": [
        {
          "internalType": "address",
          "name": "company",
          "type": "address"
        },
        {
          "internalType": "bytes32",
          "name": "name",
          "type": "bytes32"
        },
        {
          "internalType": "uint256",
          "name": "queryPrice",
          "type": "uint256"
        },
        {
          "internalType": "function (address,bytes32,uint256,uint256,uint128,uint128) external returns (bool)",
          "name": "createProduct",
          "type": "function"
        },
        {
          "internalType": "uint256",
          "name": "numberOfPotentialBuyer",
          "type": "uint256"
        }
      ],
      "stateMutability": "view",
      "type": "function"
    }
  ],
  "bytecode": "0x608060405234801561001057600080fd5b50610a35806100206000396000f3fe608060405234801561001057600080fd5b50600436106100575760003560e01c806314ae2ed71461005c578063338cdca114610078578063524b87bd1461009b578063adbaa798146100b9578063c3a4343c146100d5575b600080fd5b61007660048036038101906100719190610585565b6100df565b005b6100806102c0565b604051610092969594939291906106ad565b60405180910390f35b6100a3610330565b6040516100b09190610702565b60405180910390f35b6100d360048036038101906100ce9190610840565b61033c565b005b6100dd61045f565b005b6000800160009054906101000a900473ffffffffffffffffffffffffffffffffffffffff1673ffffffffffffffffffffffffffffffffffffffff163373ffffffffffffffffffffffffffffffffffffffff1614610168576040517f407b35b300000000000000000000000000000000000000000000000000000000815260040160405180910390fd5b600060030160009054906101000a90048060201c73ffffffffffffffffffffffffffffffffffffffff169063ffffffff166000800160009054906101000a900473ffffffffffffffffffffffffffffffffffffffff166000600101548660006002015487876040518763ffffffff1660e01b81526004016101ee969594939291906108bb565b6020604051808303816000875af115801561020d573d6000803e3d6000fd5b505050506040513d601f19601f820116820180604052508101906102319190610954565b50816fffffffffffffffffffffffffffffffff166000800160009054906101000a900473ffffffffffffffffffffffffffffffffffffffff1673ffffffffffffffffffffffffffffffffffffffff167eeb006ed328f171664ee7f0750c590b90a6f873f69a754078b7324c9fa9cc646000600101546040516102b39190610981565b60405180910390a3505050565b60008060000160009054906101000a900473ffffffffffffffffffffffffffffffffffffffff16908060010154908060020154908060030160009054906101000a90048060201c73ffffffffffffffffffffffffffffffffffffffff169063ffffffff1690918060040154905086565b60008060040154905090565b6040518060a001604052808673ffffffffffffffffffffffffffffffffffffffff168152602001858152602001848152602001838363ffffffff169060201b1760401b815260200160008152506000808201518160000160006101000a81548173ffffffffffffffffffffffffffffffffffffffff021916908373ffffffffffffffffffffffffffffffffffffffff160217905550602082015181600101556040820151816002015560608201518060601c9060401c63ffffffff168260030160006101000a81548177ffffffffffffffffffffffffffffffffffffffffffffffff02191690848463ffffffff169073ffffffffffffffffffffffffffffffffffffffff1660201b17021790555050608082015181600401559050505050505050565b600560003373ffffffffffffffffffffffffffffffffffffffff1673ffffffffffffffffffffffffffffffffffffffff16815260200190815260200160002060009054906101000a900460ff16156104e3576040517f3a7dab6500000000000000000000000000000000000000000000000000000000815260040160405180910390fd5b6001600060040160008282546104f991906109cb565b92505081905550565b600080fd5b6000819050919050565b61051a81610507565b811461052557600080fd5b50565b60008135905061053781610511565b92915050565b60006fffffffffffffffffffffffffffffffff82169050919050565b6105628161053d565b811461056d57600080fd5b50565b60008135905061057f81610559565b92915050565b60008060006060848603121561059e5761059d610502565b5b60006105ac86828701610528565b93505060206105bd86828701610570565b92505060406105ce86828701610570565b9150509250925092565b600073ffffffffffffffffffffffffffffffffffffffff82169050919050565b6000610603826105d8565b9050919050565b610613816105f8565b82525050565b6000819050919050565b61062c81610619565b82525050565b61063b81610507565b82525050565b60008160201b9050919050565b60008160401b9050919050565b600061067663ffffffff841661067084610641565b1761064e565b905092915050565b6000808291508390509250929050565b610698828261067e565b925090506106a6828261065b565b8352505050565b600060a0820190506106c2600083018961060a565b6106cf6020830188610623565b6106dc6040830187610632565b6106ea60608301858761068e565b6106f76080830184610632565b979650505050505050565b60006020820190506107176000830184610632565b92915050565b610726816105f8565b811461073157600080fd5b50565b6000813590506107438161071d565b92915050565b61075281610619565b811461075d57600080fd5b50565b60008135905061076f81610749565b92915050565b60007fffffffffffffffffffffffffffffffffffffffffffffffff000000000000000082169050919050565b60006107ac82610775565b9050919050565b6107bc816107a1565b81146107c757600080fd5b50565b6000813590506107d9816107b3565b92915050565b60008160201c9050919050565b60008160401c9050919050565b600080610805836107ec565b925063ffffffff83169050610819836107df565b9150915091565b60008061083561083085856107ca565b6107f9565b915091509250929050565b60008060008060006080868803121561085c5761085b610502565b5b600061086a88828901610734565b955050602061087b88828901610760565b945050604061088c88828901610528565b935050606061089d88828901610820565b92509250509295509295909350565b6108b58161053d565b82525050565b600060c0820190506108d0600083018961060a565b6108dd6020830188610623565b6108ea6040830187610632565b6108f76060830186610632565b61090460808301856108ac565b61091160a08301846108ac565b979650505050505050565b60008115159050919050565b6109318161091c565b811461093c57600080fd5b50565b60008151905061094e81610928565b92915050565b60006020828403121561096a57610969610502565b5b60006109788482850161093f565b91505092915050565b60006020820190506109966000830184610623565b92915050565b7f4e487b7100000000000000000000000000000000000000000000000000000000600052601160045260246000fd5b60006109d682610507565b91506109e183610507565b92508282019050808211156109f9576109f861099c565b5b9291505056fea2646970667358221220e71318eb328931bbbe727082c7f887616e73fefc63527d37de147bc545b38ee464736f6c63430008110033",
  "linkReferences": {},
  "deployedLinkReferences": {}
}