{
  "_format": "hh-sol-artifact-1",
  "contractName": "PreProduct",
  "sourceName": "contracts/PreProduct.sol",
  "abi": [
    {
      "inputs": [],
      "name": "OnlyTheConcernedCompanyCanAccept",
      "type": "error"
    },
    {
      "inputs": [],
      "name": "YouAlreadySentYourInterest",
      "type": "error"
    },
    {
      "anonymous": false,
      "inputs": [
        {
          "indexed": true,
          "internalType": "address",
          "name": "company",
          "type": "address"
        },
        {
          "indexed": true,
          "internalType": "string",
          "name": "productName",
          "type": "string"
        },
        {
          "indexed": true,
          "internalType": "uint128",
          "name": "quantityTreshold",
          "type": "uint128"
        }
      ],
      "name": "ProductOfferCreationAccepted",
      "type": "event"
    },
    {
      "inputs": [
        {
          "internalType": "uint256",
          "name": "marketPrice",
          "type": "uint256"
        },
        {
          "internalType": "uint128",
          "name": "quantityTreshold",
          "type": "uint128"
        },
        {
          "internalType": "uint128",
          "name": "endDate",
          "type": "uint128"
        }
      ],
      "name": "acceptCreateProductOffer",
      "outputs": [],
      "stateMutability": "nonpayable",
      "type": "function"
    },
    {
      "inputs": [],
      "name": "expressInterest",
      "outputs": [],
      "stateMutability": "nonpayable",
      "type": "function"
    },
    {
      "inputs": [],
      "name": "getNumberOfPotentialBuyer",
      "outputs": [
        {
          "internalType": "uint256",
          "name": "",
          "type": "uint256"
        }
      ],
      "stateMutability": "view",
      "type": "function"
    },
    {
      "inputs": [
        {
          "internalType": "address",
          "name": "company",
          "type": "address"
        },
        {
          "internalType": "string",
          "name": "name",
          "type": "string"
        },
        {
          "internalType": "uint256",
          "name": "queryPrice",
          "type": "uint256"
        },
        {
          "internalType": "function (address,string,uint256,uint256,uint128,uint128) external returns (bool)",
          "name": "createProduct",
          "type": "function"
        }
      ],
      "name": "query",
      "outputs": [],
      "stateMutability": "nonpayable",
      "type": "function"
    },
    {
      "inputs": [],
      "name": "request",
      "outputs": [
        {
          "internalType": "address",
          "name": "company",
          "type": "address"
        },
        {
          "internalType": "string",
          "name": "name",
          "type": "string"
        },
        {
          "internalType": "uint256",
          "name": "queryPrice",
          "type": "uint256"
        },
        {
          "internalType": "function (address,string,uint256,uint256,uint128,uint128) external returns (bool)",
          "name": "createProduct",
          "type": "function"
        },
        {
          "internalType": "uint256",
          "name": "numberOfPotentialBuyer",
          "type": "uint256"
        }
      ],
      "stateMutability": "view",
      "type": "function"
    }
  ],
  "bytecode": "0x608060405234801561001057600080fd5b50611078806100206000396000f3fe608060405234801561001057600080fd5b50600436106100575760003560e01c806314ae2ed71461005c578063338cdca11461007857806337ac22e91461009b578063524b87bd146100b7578063c3a4343c146100d5575b600080fd5b61007660048036038101906100719190610632565b6100df565b005b6100806102ca565b604051610092969594939291906107d1565b60405180910390f35b6100b560048036038101906100b09190610a59565b6103c2565b005b6100bf6104f1565b6040516100cc9190610ae1565b60405180910390f35b6100dd6104fd565b005b6000800160009054906101000a900473ffffffffffffffffffffffffffffffffffffffff1673ffffffffffffffffffffffffffffffffffffffff163373ffffffffffffffffffffffffffffffffffffffff1614610168576040517f407b35b300000000000000000000000000000000000000000000000000000000815260040160405180910390fd5b600060030160009054906101000a90048060201c73ffffffffffffffffffffffffffffffffffffffff169063ffffffff166000800160009054906101000a900473ffffffffffffffffffffffffffffffffffffffff1660006001018660006002015487876040518763ffffffff1660e01b81526004016101ed96959493929190610c04565b6020604051808303816000875af115801561020c573d6000803e3d6000fd5b505050506040513d601f19601f820116820180604052508101906102309190610ca4565b50816fffffffffffffffffffffffffffffffff1660006001016040516102569190610d5f565b60405180910390206000800160009054906101000a900473ffffffffffffffffffffffffffffffffffffffff1673ffffffffffffffffffffffffffffffffffffffff167f6e805b7cb9a787d6277c61ffd68f1de514347ef311f98f9b4bc3113a3af905f160405160405180910390a4505050565b60008060000160009054906101000a900473ffffffffffffffffffffffffffffffffffffffff169080600101805461030190610b2b565b80601f016020809104026020016040519081016040528092919081815260200182805461032d90610b2b565b801561037a5780601f1061034f5761010080835404028352916020019161037a565b820191906000526020600020905b81548152906001019060200180831161035d57829003601f168201915b5050505050908060020154908060030160009054906101000a90048060201c73ffffffffffffffffffffffffffffffffffffffff169063ffffffff1690918060040154905086565b6040518060a001604052808673ffffffffffffffffffffffffffffffffffffffff168152602001858152602001848152602001838363ffffffff169060201b1760401b815260200160008152506000808201518160000160006101000a81548173ffffffffffffffffffffffffffffffffffffffff021916908373ffffffffffffffffffffffffffffffffffffffff160217905550602082015181600101908161046c9190610f0d565b506040820151816002015560608201518060601c9060401c63ffffffff168260030160006101000a81548177ffffffffffffffffffffffffffffffffffffffffffffffff02191690848463ffffffff169073ffffffffffffffffffffffffffffffffffffffff1660201b17021790555050608082015181600401559050505050505050565b60008060040154905090565b600560003373ffffffffffffffffffffffffffffffffffffffff1673ffffffffffffffffffffffffffffffffffffffff16815260200190815260200160002060009054906101000a900460ff1615610581576040517f3a7dab6500000000000000000000000000000000000000000000000000000000815260040160405180910390fd5b600160006004016000828254610597919061100e565b92505081905550565b6000604051905090565b600080fd5b600080fd5b6000819050919050565b6105c7816105b4565b81146105d257600080fd5b50565b6000813590506105e4816105be565b92915050565b60006fffffffffffffffffffffffffffffffff82169050919050565b61060f816105ea565b811461061a57600080fd5b50565b60008135905061062c81610606565b92915050565b60008060006060848603121561064b5761064a6105aa565b5b6000610659868287016105d5565b935050602061066a8682870161061d565b925050604061067b8682870161061d565b9150509250925092565b600073ffffffffffffffffffffffffffffffffffffffff82169050919050565b60006106b082610685565b9050919050565b6106c0816106a5565b82525050565b600081519050919050565b600082825260208201905092915050565b60005b838110156107005780820151818401526020810190506106e5565b60008484015250505050565b6000601f19601f8301169050919050565b6000610728826106c6565b61073281856106d1565b93506107428185602086016106e2565b61074b8161070c565b840191505092915050565b61075f816105b4565b82525050565b60008160201b9050919050565b60008160401b9050919050565b600061079a63ffffffff841661079484610765565b17610772565b905092915050565b6000808291508390509250929050565b6107bc82826107a2565b925090506107ca828261077f565b8352505050565b600060a0820190506107e660008301896106b7565b81810360208301526107f8818861071d565b90506108076040830187610756565b6108156060830185876107b2565b6108226080830184610756565b979650505050505050565b610836816106a5565b811461084157600080fd5b50565b6000813590506108538161082d565b92915050565b600080fd5b600080fd5b7f4e487b7100000000000000000000000000000000000000000000000000000000600052604160045260246000fd5b61089b8261070c565b810181811067ffffffffffffffff821117156108ba576108b9610863565b5b80604052505050565b60006108cd6105a0565b90506108d98282610892565b919050565b600067ffffffffffffffff8211156108f9576108f8610863565b5b6109028261070c565b9050602081019050919050565b82818337600083830152505050565b600061093161092c846108de565b6108c3565b90508281526020810184848401111561094d5761094c61085e565b5b61095884828561090f565b509392505050565b600082601f83011261097557610974610859565b5b813561098584826020860161091e565b91505092915050565b60007fffffffffffffffffffffffffffffffffffffffffffffffff000000000000000082169050919050565b60006109c58261098e565b9050919050565b6109d5816109ba565b81146109e057600080fd5b50565b6000813590506109f2816109cc565b92915050565b60008160201c9050919050565b60008160401c9050919050565b600080610a1e83610a05565b925063ffffffff83169050610a32836109f8565b9150915091565b600080610a4e610a4985856109e3565b610a12565b915091509250929050565b600080600080600060808688031215610a7557610a746105aa565b5b6000610a8388828901610844565b955050602086013567ffffffffffffffff811115610aa457610aa36105af565b5b610ab088828901610960565b9450506040610ac1888289016105d5565b9350506060610ad288828901610a39565b92509250509295509295909350565b6000602082019050610af66000830184610756565b92915050565b7f4e487b7100000000000000000000000000000000000000000000000000000000600052602260045260246000fd5b60006002820490506001821680610b4357607f821691505b602082108103610b5657610b55610afc565b5b50919050565b60008190508160005260206000209050919050565b60008154610b7e81610b2b565b610b8881866106d1565b94506001821660008114610ba35760018114610bb957610bec565b60ff198316865281151560200286019350610bec565b610bc285610b5c565b60005b83811015610be457815481890152600182019150602081019050610bc5565b808801955050505b50505092915050565b610bfe816105ea565b82525050565b600060c082019050610c1960008301896106b7565b8181036020830152610c2b8188610b71565b9050610c3a6040830187610756565b610c476060830186610756565b610c546080830185610bf5565b610c6160a0830184610bf5565b979650505050505050565b60008115159050919050565b610c8181610c6c565b8114610c8c57600080fd5b50565b600081519050610c9e81610c78565b92915050565b600060208284031215610cba57610cb96105aa565b5b6000610cc884828501610c8f565b91505092915050565b600081905092915050565b60008154610ce981610b2b565b610cf38186610cd1565b94506001821660008114610d0e5760018114610d2357610d56565b60ff1983168652811515820286019350610d56565b610d2c85610b5c565b60005b83811015610d4e57815481890152600182019150602081019050610d2f565b838801955050505b50505092915050565b6000610d6b8284610cdc565b915081905092915050565b60006020601f8301049050919050565b600082821b905092915050565b600060088302610dc37fffffffffffffffffffffffffffffffffffffffffffffffffffffffffffffffff82610d86565b610dcd8683610d86565b95508019841693508086168417925050509392505050565b6000819050919050565b6000610e0a610e05610e00846105b4565b610de5565b6105b4565b9050919050565b6000819050919050565b610e2483610def565b610e38610e3082610e11565b848454610d93565b825550505050565b600090565b610e4d610e40565b610e58818484610e1b565b505050565b5b81811015610e7c57610e71600082610e45565b600181019050610e5e565b5050565b601f821115610ec157610e9281610b5c565b610e9b84610d76565b81016020851015610eaa578190505b610ebe610eb685610d76565b830182610e5d565b50505b505050565b600082821c905092915050565b6000610ee460001984600802610ec6565b1980831691505092915050565b6000610efd8383610ed3565b9150826002028217905092915050565b610f16826106c6565b67ffffffffffffffff811115610f2f57610f2e610863565b5b610f398254610b2b565b610f44828285610e80565b600060209050601f831160018114610f775760008415610f65578287015190505b610f6f8582610ef1565b865550610fd7565b601f198416610f8586610b5c565b60005b82811015610fad57848901518255600182019150602085019450602081019050610f88565b86831015610fca5784890151610fc6601f891682610ed3565b8355505b6001600288020188555050505b505050505050565b7f4e487b7100000000000000000000000000000000000000000000000000000000600052601160045260246000fd5b6000611019826105b4565b9150611024836105b4565b925082820190508082111561103c5761103b610fdf565b5b9291505056fea264697066735822122001eb6522eed1d7a9352c67249d0a8a58cec7717f65047e3b8db82a35d3ad356e64736f6c63430008110033",
  "linkReferences": {},
  "deployedLinkReferences": {}
}