{
  "_format": "hh-sol-artifact-1",
  "contractName": "ProductFactory",
  "sourceName": "contracts/ProductFactory.sol",
  "abi": [
    {
      "inputs": [],
      "stateMutability": "nonpayable",
      "type": "constructor"
    },
    {
      "anonymous": false,
      "inputs": [
        {
          "indexed": true,
          "internalType": "address",
          "name": "company",
          "type": "address"
        },
        {
          "indexed": true,
          "internalType": "bytes32",
          "name": "productName",
          "type": "bytes32"
        },
        {
          "indexed": false,
          "internalType": "uint256",
          "name": "queryPrice",
          "type": "uint256"
        }
      ],
      "name": "NewPreProductRequested",
      "type": "event"
    },
    {
      "anonymous": false,
      "inputs": [
        {
          "indexed": true,
          "internalType": "address",
          "name": "company",
          "type": "address"
        },
        {
          "indexed": false,
          "internalType": "uint256",
          "name": "price",
          "type": "uint256"
        },
        {
          "indexed": true,
          "internalType": "bytes32",
          "name": "name",
          "type": "bytes32"
        }
      ],
      "name": "NewProductCreated",
      "type": "event"
    },
    {
      "inputs": [
        {
          "internalType": "address",
          "name": "company",
          "type": "address"
        },
        {
          "internalType": "bytes32",
          "name": "_name",
          "type": "bytes32"
        },
        {
          "internalType": "uint256",
          "name": "_marketPrice",
          "type": "uint256"
        },
        {
          "internalType": "uint256",
          "name": "_discountedPrice",
          "type": "uint256"
        },
        {
          "internalType": "uint128",
          "name": "_quantityTreshold",
          "type": "uint128"
        },
        {
          "internalType": "uint128",
          "name": "_endDate",
          "type": "uint128"
        }
      ],
      "name": "createProduct",
      "outputs": [
        {
          "internalType": "bool",
          "name": "productCreated",
          "type": "bool"
        }
      ],
      "stateMutability": "nonpayable",
      "type": "function"
    },
    {
      "inputs": [
        {
          "internalType": "uint256",
          "name": "",
          "type": "uint256"
        }
      ],
      "name": "preProducts",
      "outputs": [
        {
          "internalType": "contract PreProduct",
          "name": "",
          "type": "address"
        }
      ],
      "stateMutability": "view",
      "type": "function"
    },
    {
      "inputs": [
        {
          "internalType": "uint256",
          "name": "",
          "type": "uint256"
        }
      ],
      "name": "products",
      "outputs": [
        {
          "internalType": "contract Product",
          "name": "",
          "type": "address"
        }
      ],
      "stateMutability": "view",
      "type": "function"
    },
    {
      "inputs": [
        {
          "internalType": "address",
          "name": "_company",
          "type": "address"
        },
        {
          "internalType": "bytes32",
          "name": "_name",
          "type": "bytes32"
        },
        {
          "internalType": "uint256",
          "name": "_queryPrice",
          "type": "uint256"
        }
      ],
      "name": "requestCreateProduct",
      "outputs": [],
      "stateMutability": "nonpayable",
      "type": "function"
    },
    {
      "inputs": [],
      "name": "treasury",
      "outputs": [
        {
          "internalType": "contract Treasury",
          "name": "",
          "type": "address"
        }
      ],
      "stateMutability": "view",
      "type": "function"
    }
  ],
  "bytecode": "0x608060405234801561001057600080fd5b5060405161001d9061007e565b604051809103906000f080158015610039573d6000803e3d6000fd5b506000806101000a81548173ffffffffffffffffffffffffffffffffffffffff021916908373ffffffffffffffffffffffffffffffffffffffff16021790555061008b565b6102c280612a9783390190565b6129fd8061009a6000396000f3fe60806040523480156200001157600080fd5b50600436106200005e5760003560e01c80630c857046146200006357806341c76781146200009957806361d027b314620000b95780637acc0b2014620000db578063a8b00fd41462000111575b600080fd5b6200008160048036038101906200007b9190620005d8565b62000147565b60405162000090919062000691565b60405180910390f35b620000b76004803603810190620000b19190620006ae565b62000270565b005b620000c3620003eb565b604051620000d2919062000775565b60405180910390f35b620000f96004803603810190620000f3919062000792565b6200040f565b604051620001089190620007fd565b60405180910390f35b6200012f600480360381019062000129919062000792565b6200044f565b6040516200013e91906200083f565b60405180910390f35b6000808760008054906101000a900473ffffffffffffffffffffffffffffffffffffffff1688888888886040516200017f906200048f565b620001919796959493929190620008a0565b604051809103906000f080158015620001ae573d6000803e3d6000fd5b5090506001819080600181540180825580915050600190039060005260206000200160009091909190916101000a81548173ffffffffffffffffffffffffffffffffffffffff021916908373ffffffffffffffffffffffffffffffffffffffff160217905550868873ffffffffffffffffffffffffffffffffffffffff167f701ac3c91e58a8899ca03c21eb2109b907b2da137e26f46d75b0224b1673a832876040516200025d91906200091d565b60405180910390a3509695505050505050565b600060405162000280906200049d565b604051809103906000f0801580156200029d573d6000803e3d6000fd5b5090506002819080600181540180825580915050600190039060005260206000200160009091909190916101000a81548173ffffffffffffffffffffffffffffffffffffffff021916908373ffffffffffffffffffffffffffffffffffffffff1602179055508073ffffffffffffffffffffffffffffffffffffffff1663adbaa7988585853073ffffffffffffffffffffffffffffffffffffffff16630c8570466040518663ffffffff1660e01b815260040162000360959493929190620009ae565b600060405180830381600087803b1580156200037b57600080fd5b505af115801562000390573d6000803e3d6000fd5b50505050828473ffffffffffffffffffffffffffffffffffffffff167f9652ad3d28c7e95ce35934b09832520bbcb77ba9aa677f36768bf8420c70b59384604051620003dd91906200091d565b60405180910390a350505050565b60008054906101000a900473ffffffffffffffffffffffffffffffffffffffff1681565b600181815481106200042057600080fd5b906000526020600020016000915054906101000a900473ffffffffffffffffffffffffffffffffffffffff1681565b600281815481106200046057600080fd5b906000526020600020016000915054906101000a900473ffffffffffffffffffffffffffffffffffffffff1681565b61151780620009fe83390190565b610ab38062001f1583390190565b600080fd5b600073ffffffffffffffffffffffffffffffffffffffff82169050919050565b6000620004dd82620004b0565b9050919050565b620004ef81620004d0565b8114620004fb57600080fd5b50565b6000813590506200050f81620004e4565b92915050565b6000819050919050565b6200052a8162000515565b81146200053657600080fd5b50565b6000813590506200054a816200051f565b92915050565b6000819050919050565b620005658162000550565b81146200057157600080fd5b50565b60008135905062000585816200055a565b92915050565b60006fffffffffffffffffffffffffffffffff82169050919050565b620005b2816200058b565b8114620005be57600080fd5b50565b600081359050620005d281620005a7565b92915050565b60008060008060008060c08789031215620005f857620005f7620004ab565b5b60006200060889828a01620004fe565b96505060206200061b89828a0162000539565b95505060406200062e89828a0162000574565b94505060606200064189828a0162000574565b93505060806200065489828a01620005c1565b92505060a06200066789828a01620005c1565b9150509295509295509295565b60008115159050919050565b6200068b8162000674565b82525050565b6000602082019050620006a8600083018462000680565b92915050565b600080600060608486031215620006ca57620006c9620004ab565b5b6000620006da86828701620004fe565b9350506020620006ed8682870162000539565b9250506040620007008682870162000574565b9150509250925092565b6000819050919050565b6000620007356200072f6200072984620004b0565b6200070a565b620004b0565b9050919050565b6000620007498262000714565b9050919050565b60006200075d826200073c565b9050919050565b6200076f8162000750565b82525050565b60006020820190506200078c600083018462000764565b92915050565b600060208284031215620007ab57620007aa620004ab565b5b6000620007bb8482850162000574565b91505092915050565b6000620007d18262000714565b9050919050565b6000620007e582620007c4565b9050919050565b620007f781620007d8565b82525050565b6000602082019050620008146000830184620007ec565b92915050565b60006200082782620007c4565b9050919050565b62000839816200081a565b82525050565b60006020820190506200085660008301846200082e565b92915050565b6200086781620004d0565b82525050565b620008788162000515565b82525050565b620008898162000550565b82525050565b6200089a816200058b565b82525050565b600060e082019050620008b7600083018a6200085c565b620008c660208301896200085c565b620008d560408301886200086d565b620008e460608301876200087e565b620008f360808301866200087e565b6200090260a08301856200088f565b6200091160c08301846200088f565b98975050505050505050565b60006020820190506200093460008301846200087e565b92915050565b60008160201b9050919050565b60008160401b9050919050565b60006200097363ffffffff84166200096c846200093a565b1762000947565b905092915050565b6000808291508390509250929050565b6200099782826200097b565b92509050620009a7828262000954565b8352505050565b6000608082019050620009c560008301886200085c565b620009d460208301876200086d565b620009e360408301866200087e565b620009f36060830184866200098b565b969550505050505056fe60806040523480156200001157600080fd5b5060405162001517380380620015178339818101604052810190620000379190620002e5565b86600160006101000a81548173ffffffffffffffffffffffffffffffffffffffff021916908373ffffffffffffffffffffffffffffffffffffffff16021790555085600260006101000a81548173ffffffffffffffffffffffffffffffffffffffff021916908373ffffffffffffffffffffffffffffffffffffffff16021790555060006040518060a00160405280878152602001868152602001858152602001846fffffffffffffffffffffffffffffffff168152602001836fffffffffffffffffffffffffffffffff16815250905080600360008201518160000155602082015181600101556040820151816002015560608201518160030160006101000a8154816fffffffffffffffffffffffffffffffff02191690836fffffffffffffffffffffffffffffffff16021790555060808201518160030160106101000a8154816fffffffffffffffffffffffffffffffff02191690836fffffffffffffffffffffffffffffffff160217905550905050505050505050505062000398565b600080fd5b600073ffffffffffffffffffffffffffffffffffffffff82169050919050565b6000620001ea82620001bd565b9050919050565b620001fc81620001dd565b81146200020857600080fd5b50565b6000815190506200021c81620001f1565b92915050565b6000819050919050565b620002378162000222565b81146200024357600080fd5b50565b60008151905062000257816200022c565b92915050565b6000819050919050565b62000272816200025d565b81146200027e57600080fd5b50565b600081519050620002928162000267565b92915050565b60006fffffffffffffffffffffffffffffffff82169050919050565b620002bf8162000298565b8114620002cb57600080fd5b50565b600081519050620002df81620002b4565b92915050565b600080600080600080600060e0888a031215620003075762000306620001b8565b5b6000620003178a828b016200020b565b97505060206200032a8a828b016200020b565b96505060406200033d8a828b0162000246565b9550506060620003508a828b0162000281565b9450506080620003638a828b0162000281565b93505060a0620003768a828b01620002ce565b92505060c0620003898a828b01620002ce565b91505092959891949750929550565b61116f80620003a86000396000f3fe6080604052600436106100915760003560e01c8063845c930611610059578063845c9306146101495780638da5cb5b14610165578063b47b4d9614610190578063c658f6e8146101bb578063dab713c0146101f857610091565b80631dd17f83146100965780633309d0a3146100d35780633645c484146100ff5780633f00c7851461011b5780634afd131b14610132575b600080fd5b3480156100a257600080fd5b506100bd60048036038101906100b89190610d80565b610227565b6040516100ca9190610dd9565b60405180910390f35b3480156100df57600080fd5b506100e861024c565b6040516100f6929190610df4565b60405180910390f35b61011960048036038101906101149190610e1d565b61025e565b005b34801561012757600080fd5b5061013061052a565b005b34801561013e57600080fd5b506101476107aa565b005b610163600480360381019061015e9190610e76565b610ae5565b005b34801561017157600080fd5b5061017a610c45565b6040516101879190610eb2565b60405180910390f35b34801561019c57600080fd5b506101a5610c6b565b6040516101b29190610dd9565b60405180910390f35b3480156101c757600080fd5b506101e260048036038101906101dd9190610ecd565b610c71565b6040516101ef9190610dd9565b60405180910390f35b34801561020457600080fd5b5061020d610c89565b60405161021e959493929190610f3e565b60405180910390f35b600a602052816000526040600020602052806000526040600020600091509150505481565b60078060000154908060010154905082565b6000600960003373ffffffffffffffffffffffffffffffffffffffff1673ffffffffffffffffffffffffffffffffffffffff168152602001908152602001600020549050621275006003800160109054906101000a90046fffffffffffffffffffffffffffffffff166fffffffffffffffffffffffffffffffff166102e39190610fc0565b42101561031c576040517f3e17a81800000000000000000000000000000000000000000000000000000000815260040160405180910390fd5b6001811015610357576040517f986bf73d00000000000000000000000000000000000000000000000000000000815260040160405180910390fd5b81156104235780600760010160008282546103729190610fc0565b9250508190555080600a60003373ffffffffffffffffffffffffffffffffffffffff1673ffffffffffffffffffffffffffffffffffffffff1681526020019081526020016000206000600115151515815260200190815260200160002060008282546103de9190610fc0565b925050819055507f43395425676ae3dc10ddde602f91f39874649a80b59034529ce5d9e609d6bf683382604051610416929190610ff4565b60405180910390a1610526565b67016345785d8a0000341015610465576040517f54aa2d1700000000000000000000000000000000000000000000000000000000815260040160405180910390fd5b806007600001600082825461047a9190610fc0565b9250508190555080600a60003373ffffffffffffffffffffffffffffffffffffffff1673ffffffffffffffffffffffffffffffffffffffff16815260200190815260200160002060008015151515815260200190815260200160002060008282546104e59190610fc0565b925050819055507f171ae997a165b83aab6e099a17376a0ce3bf2aabd2aef62c3258e7425c427889338260405161051d929190610ff4565b60405180910390a15b5050565b62127500806003800160109054906101000a90046fffffffffffffffffffffffffffffffff166fffffffffffffffffffffffffffffffff1661056c9190610fc0565b6105769190610fc0565b4210156105af576040517f181e3f9b00000000000000000000000000000000000000000000000000000000815260040160405180910390fd5b60006007600101546007600001546105c79190610fc0565b9050610bb8816127106007600001546105e0919061101d565b6105ea919061108e565b1115610622576040517fd558872200000000000000000000000000000000000000000000000000000000815260040160405180910390fd5b600060076001015461271067016345785d8a0000600760000154610646919061101d565b610650919061101d565b61065a919061108e565b905060003373ffffffffffffffffffffffffffffffffffffffff16612710600a60003373ffffffffffffffffffffffffffffffffffffffff1673ffffffffffffffffffffffffffffffffffffffff1681526020019081526020016000206000600115151515815260200190815260200160002054846106d9919061101d565b6106e3919061108e565b6040516106ef906110f0565b60006040518083038185875af1925050503d806000811461072c576040519150601f19603f3d011682016040523d82523d6000602084013e610731565b606091505b505090508061076c576040517f750b219c00000000000000000000000000000000000000000000000000000000815260040160405180910390fd5b7f70ddb85706adfb5d63aea6bb3315f9ee6cf0c5b4ac2b7f7cb63ef0a8159d5f5a338360405161079d929190610ff4565b60405180910390a1505050565b600160009054906101000a900473ffffffffffffffffffffffffffffffffffffffff1673ffffffffffffffffffffffffffffffffffffffff163373ffffffffffffffffffffffffffffffffffffffff1614610831576040517fc28122b500000000000000000000000000000000000000000000000000000000815260040160405180910390fd5b62127500806003800160109054906101000a90046fffffffffffffffffffffffffffffffff166fffffffffffffffffffffffffffffffff166108739190610fc0565b61087d9190610fc0565b4210156108b6576040517f181e3f9b00000000000000000000000000000000000000000000000000000000815260040160405180910390fd5b60006007600101546007600001546108ce9190610fc0565b9050610bb8816127106007600001546108e7919061101d565b6108f1919061108e565b1115610929576040517fd558872200000000000000000000000000000000000000000000000000000000815260040160405180910390fd5b600060036002015460005461093e919061101d565b905060006127106101f483610953919061101d565b61095d919061108e565b905060003373ffffffffffffffffffffffffffffffffffffffff1682846109849190611105565b604051610990906110f0565b60006040518083038185875af1925050503d80600081146109cd576040519150601f19603f3d011682016040523d82523d6000602084013e6109d2565b606091505b50509050600260009054906101000a900473ffffffffffffffffffffffffffffffffffffffff1673ffffffffffffffffffffffffffffffffffffffff1682604051610a1c906110f0565b60006040518083038185875af1925050503d8060008114610a59576040519150601f19603f3d011682016040523d82523d6000602084013e610a5e565b606091505b50508091505080610a9b576040517f750b219c00000000000000000000000000000000000000000000000000000000815260040160405180910390fd5b7f076597fbe0f8c84143006de050fee841f9ebfa953f9b5ec5e1d9c77695970165338385610ac99190611105565b604051610ad7929190610ff4565b60405180910390a150505050565b6003800160109054906101000a90046fffffffffffffffffffffffffffffffff166fffffffffffffffffffffffffffffffff16421115610b51576040517f68cc377500000000000000000000000000000000000000000000000000000000815260040160405180910390fd5b60036002015481610b62919061101d565b341015610b9b576040517f14640f7700000000000000000000000000000000000000000000000000000000815260040160405180910390fd5b80600080828254610bac9190610fc0565b9250508190555080600960003373ffffffffffffffffffffffffffffffffffffffff1673ffffffffffffffffffffffffffffffffffffffff1681526020019081526020016000206000828254610c029190610fc0565b925050819055507f2409f285876e7ea1acb9fd55b670d4665a7506dbeadf4cb7f751552ecdb2d8693382604051610c3a929190610ff4565b60405180910390a150565b600160009054906101000a900473ffffffffffffffffffffffffffffffffffffffff1681565b60005481565b60096020528060005260406000206000915090505481565b60038060000154908060010154908060020154908060030160009054906101000a90046fffffffffffffffffffffffffffffffff16908060030160109054906101000a90046fffffffffffffffffffffffffffffffff16905085565b600080fd5b600073ffffffffffffffffffffffffffffffffffffffff82169050919050565b6000610d1582610cea565b9050919050565b610d2581610d0a565b8114610d3057600080fd5b50565b600081359050610d4281610d1c565b92915050565b60008115159050919050565b610d5d81610d48565b8114610d6857600080fd5b50565b600081359050610d7a81610d54565b92915050565b60008060408385031215610d9757610d96610ce5565b5b6000610da585828601610d33565b9250506020610db685828601610d6b565b9150509250929050565b6000819050919050565b610dd381610dc0565b82525050565b6000602082019050610dee6000830184610dca565b92915050565b6000604082019050610e096000830185610dca565b610e166020830184610dca565b9392505050565b600060208284031215610e3357610e32610ce5565b5b6000610e4184828501610d6b565b91505092915050565b610e5381610dc0565b8114610e5e57600080fd5b50565b600081359050610e7081610e4a565b92915050565b600060208284031215610e8c57610e8b610ce5565b5b6000610e9a84828501610e61565b91505092915050565b610eac81610d0a565b82525050565b6000602082019050610ec76000830184610ea3565b92915050565b600060208284031215610ee357610ee2610ce5565b5b6000610ef184828501610d33565b91505092915050565b6000819050919050565b610f0d81610efa565b82525050565b60006fffffffffffffffffffffffffffffffff82169050919050565b610f3881610f13565b82525050565b600060a082019050610f536000830188610f04565b610f606020830187610dca565b610f6d6040830186610dca565b610f7a6060830185610f2f565b610f876080830184610f2f565b9695505050505050565b7f4e487b7100000000000000000000000000000000000000000000000000000000600052601160045260246000fd5b6000610fcb82610dc0565b9150610fd683610dc0565b9250828201905080821115610fee57610fed610f91565b5b92915050565b60006040820190506110096000830185610ea3565b6110166020830184610dca565b9392505050565b600061102882610dc0565b915061103383610dc0565b925082820261104181610dc0565b9150828204841483151761105857611057610f91565b5b5092915050565b7f4e487b7100000000000000000000000000000000000000000000000000000000600052601260045260246000fd5b600061109982610dc0565b91506110a483610dc0565b9250826110b4576110b361105f565b5b828204905092915050565b600081905092915050565b50565b60006110da6000836110bf565b91506110e5826110ca565b600082019050919050565b60006110fb826110cd565b9150819050919050565b600061111082610dc0565b915061111b83610dc0565b925082820390508181111561113357611132610f91565b5b9291505056fea26469706673582212209fb420b433b5e87f4681681fc7731d81b8adba2129b9e4fc780e16c0357fd5c264736f6c63430008110033608060405234801561001057600080fd5b50610a93806100206000396000f3fe608060405234801561001057600080fd5b50600436106100575760003560e01c806314ae2ed71461005c578063338cdca114610078578063524b87bd1461009b578063adbaa798146100b9578063c3a4343c146100d5575b600080fd5b610076600480360381019061007191906105e3565b6100df565b005b6100806102c0565b6040516100929695949392919061070b565b60405180910390f35b6100a3610330565b6040516100b09190610760565b60405180910390f35b6100d360048036038101906100ce919061089e565b61033c565b005b6100dd61045f565b005b6000800160009054906101000a900473ffffffffffffffffffffffffffffffffffffffff1673ffffffffffffffffffffffffffffffffffffffff163373ffffffffffffffffffffffffffffffffffffffff1614610168576040517f407b35b300000000000000000000000000000000000000000000000000000000815260040160405180910390fd5b600060030160009054906101000a90048060201c73ffffffffffffffffffffffffffffffffffffffff169063ffffffff166000800160009054906101000a900473ffffffffffffffffffffffffffffffffffffffff166000600101548660006002015487876040518763ffffffff1660e01b81526004016101ee96959493929190610919565b6020604051808303816000875af115801561020d573d6000803e3d6000fd5b505050506040513d601f19601f8201168201806040525081019061023191906109b2565b50816fffffffffffffffffffffffffffffffff166000800160009054906101000a900473ffffffffffffffffffffffffffffffffffffffff1673ffffffffffffffffffffffffffffffffffffffff167eeb006ed328f171664ee7f0750c590b90a6f873f69a754078b7324c9fa9cc646000600101546040516102b391906109df565b60405180910390a3505050565b60008060000160009054906101000a900473ffffffffffffffffffffffffffffffffffffffff16908060010154908060020154908060030160009054906101000a90048060201c73ffffffffffffffffffffffffffffffffffffffff169063ffffffff1690918060040154905086565b60008060040154905090565b6040518060a001604052808673ffffffffffffffffffffffffffffffffffffffff168152602001858152602001848152602001838363ffffffff169060201b1760401b815260200160008152506000808201518160000160006101000a81548173ffffffffffffffffffffffffffffffffffffffff021916908373ffffffffffffffffffffffffffffffffffffffff160217905550602082015181600101556040820151816002015560608201518060601c9060401c63ffffffff168260030160006101000a81548177ffffffffffffffffffffffffffffffffffffffffffffffff02191690848463ffffffff169073ffffffffffffffffffffffffffffffffffffffff1660201b17021790555050608082015181600401559050505050505050565b60011515600560003373ffffffffffffffffffffffffffffffffffffffff1673ffffffffffffffffffffffffffffffffffffffff16815260200190815260200160002060009054906101000a900460ff161515036104e9576040517f3a7dab6500000000000000000000000000000000000000000000000000000000815260040160405180910390fd5b6001600560003373ffffffffffffffffffffffffffffffffffffffff1673ffffffffffffffffffffffffffffffffffffffff16815260200190815260200160002060006101000a81548160ff0219169083151502179055506001600060040160008282546105579190610a29565b92505081905550565b600080fd5b6000819050919050565b61057881610565565b811461058357600080fd5b50565b6000813590506105958161056f565b92915050565b60006fffffffffffffffffffffffffffffffff82169050919050565b6105c08161059b565b81146105cb57600080fd5b50565b6000813590506105dd816105b7565b92915050565b6000806000606084860312156105fc576105fb610560565b5b600061060a86828701610586565b935050602061061b868287016105ce565b925050604061062c868287016105ce565b9150509250925092565b600073ffffffffffffffffffffffffffffffffffffffff82169050919050565b600061066182610636565b9050919050565b61067181610656565b82525050565b6000819050919050565b61068a81610677565b82525050565b61069981610565565b82525050565b60008160201b9050919050565b60008160401b9050919050565b60006106d463ffffffff84166106ce8461069f565b176106ac565b905092915050565b6000808291508390509250929050565b6106f682826106dc565b9250905061070482826106b9565b8352505050565b600060a0820190506107206000830189610668565b61072d6020830188610681565b61073a6040830187610690565b6107486060830185876106ec565b6107556080830184610690565b979650505050505050565b60006020820190506107756000830184610690565b92915050565b61078481610656565b811461078f57600080fd5b50565b6000813590506107a18161077b565b92915050565b6107b081610677565b81146107bb57600080fd5b50565b6000813590506107cd816107a7565b92915050565b60007fffffffffffffffffffffffffffffffffffffffffffffffff000000000000000082169050919050565b600061080a826107d3565b9050919050565b61081a816107ff565b811461082557600080fd5b50565b60008135905061083781610811565b92915050565b60008160201c9050919050565b60008160401c9050919050565b6000806108638361084a565b925063ffffffff831690506108778361083d565b9150915091565b60008061089361088e8585610828565b610857565b915091509250929050565b6000806000806000608086880312156108ba576108b9610560565b5b60006108c888828901610792565b95505060206108d9888289016107be565b94505060406108ea88828901610586565b93505060606108fb8882890161087e565b92509250509295509295909350565b6109138161059b565b82525050565b600060c08201905061092e6000830189610668565b61093b6020830188610681565b6109486040830187610690565b6109556060830186610690565b610962608083018561090a565b61096f60a083018461090a565b979650505050505050565b60008115159050919050565b61098f8161097a565b811461099a57600080fd5b50565b6000815190506109ac81610986565b92915050565b6000602082840312156109c8576109c7610560565b5b60006109d68482850161099d565b91505092915050565b60006020820190506109f46000830184610681565b92915050565b7f4e487b7100000000000000000000000000000000000000000000000000000000600052601160045260246000fd5b6000610a3482610565565b9150610a3f83610565565b9250828201905080821115610a5757610a566109fa565b5b9291505056fea264697066735822122062e473d1488f15d113de5418291d43775ae1cda829cd4a57e236c043ddd0f6a464736f6c63430008110033a26469706673582212206a2fed4a9f2836db6be16b52b4ddb0ebe2f605bc779105412a8f0067a3fb162c64736f6c63430008110033608060405234801561001057600080fd5b50336000806101000a81548173ffffffffffffffffffffffffffffffffffffffff021916908373ffffffffffffffffffffffffffffffffffffffff160217905550610262806100606000396000f3fe6080604052600436106100225760003560e01c8063ec3889b51461002e57610029565b3661002957005b600080fd5b34801561003a57600080fd5b50610055600480360381019061005091906101b9565b610057565b005b60008054906101000a900473ffffffffffffffffffffffffffffffffffffffff1673ffffffffffffffffffffffffffffffffffffffff163373ffffffffffffffffffffffffffffffffffffffff16146100dc576040517f36b6b89500000000000000000000000000000000000000000000000000000000815260040160405180910390fd5b60008173ffffffffffffffffffffffffffffffffffffffff164760405161010290610217565b60006040518083038185875af1925050503d806000811461013f576040519150601f19603f3d011682016040523d82523d6000602084013e610144565b606091505b505090508061015257600080fd5b5050565b600080fd5b600073ffffffffffffffffffffffffffffffffffffffff82169050919050565b60006101868261015b565b9050919050565b6101968161017b565b81146101a157600080fd5b50565b6000813590506101b38161018d565b92915050565b6000602082840312156101cf576101ce610156565b5b60006101dd848285016101a4565b91505092915050565b600081905092915050565b50565b60006102016000836101e6565b915061020c826101f1565b600082019050919050565b6000610222826101f4565b915081905091905056fea2646970667358221220f7fc168b08fcc54f164d92ff3e3fcab99b0b01519c07bb0c226c06688210743464736f6c63430008110033",
  "linkReferences": {},
  "deployedLinkReferences": {}
}