{
  "_format": "hh-sol-artifact-1",
  "contractName": "ProductFactory",
  "sourceName": "contracts/ProductFactory.sol",
  "abi": [
    {
      "inputs": [],
      "stateMutability": "nonpayable",
      "type": "constructor"
    },
    {
      "anonymous": false,
      "inputs": [
        {
          "indexed": true,
          "internalType": "address",
          "name": "company",
          "type": "address"
        },
        {
          "indexed": true,
          "internalType": "string",
          "name": "productName",
          "type": "string"
        },
        {
          "indexed": false,
          "internalType": "uint256",
          "name": "queryPrice",
          "type": "uint256"
        }
      ],
      "name": "NewPreProductRequested",
      "type": "event"
    },
    {
      "anonymous": false,
      "inputs": [
        {
          "indexed": true,
          "internalType": "address",
          "name": "product",
          "type": "address"
        },
        {
          "indexed": true,
          "internalType": "string",
          "name": "name",
          "type": "string"
        }
      ],
      "name": "NewProductCreated",
      "type": "event"
    },
    {
      "inputs": [
        {
          "internalType": "address",
          "name": "company",
          "type": "address"
        },
        {
          "internalType": "string",
          "name": "_name",
          "type": "string"
        },
        {
          "internalType": "uint256",
          "name": "_marketPrice",
          "type": "uint256"
        },
        {
          "internalType": "uint256",
          "name": "_discountedPrice",
          "type": "uint256"
        },
        {
          "internalType": "uint128",
          "name": "_quantityTreshold",
          "type": "uint128"
        },
        {
          "internalType": "uint128",
          "name": "_endDate",
          "type": "uint128"
        }
      ],
      "name": "createProduct",
      "outputs": [
        {
          "internalType": "bool",
          "name": "productCreated",
          "type": "bool"
        }
      ],
      "stateMutability": "nonpayable",
      "type": "function"
    },
    {
      "inputs": [
        {
          "internalType": "uint256",
          "name": "",
          "type": "uint256"
        }
      ],
      "name": "preProducts",
      "outputs": [
        {
          "internalType": "contract PreProduct",
          "name": "",
          "type": "address"
        }
      ],
      "stateMutability": "view",
      "type": "function"
    },
    {
      "inputs": [
        {
          "internalType": "uint256",
          "name": "",
          "type": "uint256"
        }
      ],
      "name": "products",
      "outputs": [
        {
          "internalType": "contract Product",
          "name": "",
          "type": "address"
        }
      ],
      "stateMutability": "view",
      "type": "function"
    },
    {
      "inputs": [
        {
          "internalType": "address",
          "name": "_company",
          "type": "address"
        },
        {
          "internalType": "string",
          "name": "_name",
          "type": "string"
        },
        {
          "internalType": "uint256",
          "name": "_queryPrice",
          "type": "uint256"
        }
      ],
      "name": "requestCreateProduct",
      "outputs": [],
      "stateMutability": "nonpayable",
      "type": "function"
    },
    {
      "inputs": [],
      "name": "treasury",
      "outputs": [
        {
          "internalType": "contract Treasury",
          "name": "",
          "type": "address"
        }
      ],
      "stateMutability": "view",
      "type": "function"
    }
  ],
  "bytecode": "0x608060405234801561001057600080fd5b5060405161001d9061007e565b604051809103906000f080158015610039573d6000803e3d6000fd5b506000806101000a81548173ffffffffffffffffffffffffffffffffffffffff021916908373ffffffffffffffffffffffffffffffffffffffff16021790555061008b565b6102c28061390083390190565b6138668061009a6000396000f3fe60806040523480156200001157600080fd5b50600436106200005e5760003560e01c80630a0188f6146200006357806336ba2ba9146200009957806361d027b314620000b95780637acc0b2014620000db578063a8b00fd41462000111575b600080fd5b6200008160048036038101906200007b91906200072f565b62000147565b60405162000090919062000807565b60405180910390f35b620000b76004803603810190620000b1919062000824565b6200027a565b005b620000c36200040c565b604051620000d291906200090a565b60405180910390f35b620000f96004803603810190620000f3919062000927565b62000430565b60405162000108919062000992565b60405180910390f35b6200012f600480360381019062000129919062000927565b62000470565b6040516200013e9190620009d4565b60405180910390f35b6000808760008054906101000a900473ffffffffffffffffffffffffffffffffffffffff1688888888886040516200017f90620004b0565b62000191979695949392919062000aad565b604051809103906000f080158015620001ae573d6000803e3d6000fd5b5090506001819080600181540180825580915050600190039060005260206000200160009091909190916101000a81548173ffffffffffffffffffffffffffffffffffffffff021916908373ffffffffffffffffffffffffffffffffffffffff1602179055508660405162000224919062000b73565b60405180910390208173ffffffffffffffffffffffffffffffffffffffff167fa16a563bbfe4d8453e2bd297d41d90b22d2efcb04735584d92d6ba994295c45560405160405180910390a3509695505050505050565b60006040516200028a90620004be565b604051809103906000f080158015620002a7573d6000803e3d6000fd5b5090506002819080600181540180825580915050600190039060005260206000200160009091909190916101000a81548173ffffffffffffffffffffffffffffffffffffffff021916908373ffffffffffffffffffffffffffffffffffffffff1602179055508073ffffffffffffffffffffffffffffffffffffffff166337ac22e98585853073ffffffffffffffffffffffffffffffffffffffff16630a0188f66040518663ffffffff1660e01b81526004016200036a95949392919062000c00565b600060405180830381600087803b1580156200038557600080fd5b505af11580156200039a573d6000803e3d6000fd5b5050505082604051620003ae919062000b73565b60405180910390208473ffffffffffffffffffffffffffffffffffffffff167fabcdaafd20b4de2bbe9b5c7814df23b339940d3ef1b86487ed587f5328a6d6ef84604051620003fe919062000c56565b60405180910390a350505050565b60008054906101000a900473ffffffffffffffffffffffffffffffffffffffff1681565b600181815481106200044157600080fd5b906000526020600020016000915054906101000a900473ffffffffffffffffffffffffffffffffffffffff1681565b600281815481106200048157600080fd5b906000526020600020016000915054906101000a900473ffffffffffffffffffffffffffffffffffffffff1681565b611b258062000c7483390190565b611098806200279983390190565b6000604051905090565b600080fd5b600080fd5b600073ffffffffffffffffffffffffffffffffffffffff82169050919050565b60006200050d82620004e0565b9050919050565b6200051f8162000500565b81146200052b57600080fd5b50565b6000813590506200053f8162000514565b92915050565b600080fd5b600080fd5b6000601f19601f8301169050919050565b7f4e487b7100000000000000000000000000000000000000000000000000000000600052604160045260246000fd5b6200059a826200054f565b810181811067ffffffffffffffff82111715620005bc57620005bb62000560565b5b80604052505050565b6000620005d1620004cc565b9050620005df82826200058f565b919050565b600067ffffffffffffffff82111562000602576200060162000560565b5b6200060d826200054f565b9050602081019050919050565b82818337600083830152505050565b6000620006406200063a84620005e4565b620005c5565b9050828152602081018484840111156200065f576200065e6200054a565b5b6200066c8482856200061a565b509392505050565b600082601f8301126200068c576200068b62000545565b5b81356200069e84826020860162000629565b91505092915050565b6000819050919050565b620006bc81620006a7565b8114620006c857600080fd5b50565b600081359050620006dc81620006b1565b92915050565b60006fffffffffffffffffffffffffffffffff82169050919050565b6200070981620006e2565b81146200071557600080fd5b50565b6000813590506200072981620006fe565b92915050565b60008060008060008060c087890312156200074f576200074e620004d6565b5b60006200075f89828a016200052e565b965050602087013567ffffffffffffffff811115620007835762000782620004db565b5b6200079189828a0162000674565b9550506040620007a489828a01620006cb565b9450506060620007b789828a01620006cb565b9350506080620007ca89828a0162000718565b92505060a0620007dd89828a0162000718565b9150509295509295509295565b60008115159050919050565b6200080181620007ea565b82525050565b60006020820190506200081e6000830184620007f6565b92915050565b60008060006060848603121562000840576200083f620004d6565b5b600062000850868287016200052e565b935050602084013567ffffffffffffffff811115620008745762000873620004db565b5b620008828682870162000674565b92505060406200089586828701620006cb565b9150509250925092565b6000819050919050565b6000620008ca620008c4620008be84620004e0565b6200089f565b620004e0565b9050919050565b6000620008de82620008a9565b9050919050565b6000620008f282620008d1565b9050919050565b6200090481620008e5565b82525050565b6000602082019050620009216000830184620008f9565b92915050565b60006020828403121562000940576200093f620004d6565b5b60006200095084828501620006cb565b91505092915050565b60006200096682620008a9565b9050919050565b60006200097a8262000959565b9050919050565b6200098c816200096d565b82525050565b6000602082019050620009a9600083018462000981565b92915050565b6000620009bc8262000959565b9050919050565b620009ce81620009af565b82525050565b6000602082019050620009eb6000830184620009c3565b92915050565b620009fc8162000500565b82525050565b600081519050919050565b600082825260208201905092915050565b60005b8381101562000a3e57808201518184015260208101905062000a21565b60008484015250505050565b600062000a578262000a02565b62000a63818562000a0d565b935062000a7581856020860162000a1e565b62000a80816200054f565b840191505092915050565b62000a9681620006a7565b82525050565b62000aa781620006e2565b82525050565b600060e08201905062000ac4600083018a620009f1565b62000ad36020830189620009f1565b818103604083015262000ae7818862000a4a565b905062000af8606083018762000a8b565b62000b07608083018662000a8b565b62000b1660a083018562000a9c565b62000b2560c083018462000a9c565b98975050505050505050565b600081905092915050565b600062000b498262000a02565b62000b55818562000b31565b935062000b6781856020860162000a1e565b80840191505092915050565b600062000b81828462000b3c565b915081905092915050565b60008160201b9050919050565b60008160401b9050919050565b600062000bc563ffffffff841662000bbe8462000b8c565b1762000b99565b905092915050565b6000808291508390509250929050565b62000be9828262000bcd565b9250905062000bf9828262000ba6565b8352505050565b600060808201905062000c176000830188620009f1565b818103602083015262000c2b818762000a4a565b905062000c3c604083018662000a8b565b62000c4c60608301848662000bdd565b9695505050505050565b600060208201905062000c6d600083018462000a8b565b9291505056fe60806040523480156200001157600080fd5b5060405162001b2538038062001b25833981810160405281019062000037919062000446565b86600160006101000a81548173ffffffffffffffffffffffffffffffffffffffff021916908373ffffffffffffffffffffffffffffffffffffffff16021790555085600260006101000a81548173ffffffffffffffffffffffffffffffffffffffff021916908373ffffffffffffffffffffffffffffffffffffffff16021790555060006040518060a00160405280878152602001868152602001858152602001846fffffffffffffffffffffffffffffffff168152602001836fffffffffffffffffffffffffffffffff168152509050806003600082015181600001908162000122919062000759565b50602082015181600101556040820151816002015560608201518160030160006101000a8154816fffffffffffffffffffffffffffffffff02191690836fffffffffffffffffffffffffffffffff16021790555060808201518160030160106101000a8154816fffffffffffffffffffffffffffffffff02191690836fffffffffffffffffffffffffffffffff160217905550905050505050505050505062000840565b6000604051905090565b600080fd5b600080fd5b600073ffffffffffffffffffffffffffffffffffffffff82169050919050565b60006200020782620001da565b9050919050565b6200021981620001fa565b81146200022557600080fd5b50565b60008151905062000239816200020e565b92915050565b600080fd5b600080fd5b6000601f19601f8301169050919050565b7f4e487b7100000000000000000000000000000000000000000000000000000000600052604160045260246000fd5b620002948262000249565b810181811067ffffffffffffffff82111715620002b657620002b56200025a565b5b80604052505050565b6000620002cb620001c6565b9050620002d9828262000289565b919050565b600067ffffffffffffffff821115620002fc57620002fb6200025a565b5b620003078262000249565b9050602081019050919050565b60005b838110156200033457808201518184015260208101905062000317565b60008484015250505050565b6000620003576200035184620002de565b620002bf565b90508281526020810184848401111562000376576200037562000244565b5b6200038384828562000314565b509392505050565b600082601f830112620003a357620003a26200023f565b5b8151620003b584826020860162000340565b91505092915050565b6000819050919050565b620003d381620003be565b8114620003df57600080fd5b50565b600081519050620003f381620003c8565b92915050565b60006fffffffffffffffffffffffffffffffff82169050919050565b6200042081620003f9565b81146200042c57600080fd5b50565b600081519050620004408162000415565b92915050565b600080600080600080600060e0888a031215620004685762000467620001d0565b5b6000620004788a828b0162000228565b97505060206200048b8a828b0162000228565b965050604088015167ffffffffffffffff811115620004af57620004ae620001d5565b5b620004bd8a828b016200038b565b9550506060620004d08a828b01620003e2565b9450506080620004e38a828b01620003e2565b93505060a0620004f68a828b016200042f565b92505060c0620005098a828b016200042f565b91505092959891949750929550565b600081519050919050565b7f4e487b7100000000000000000000000000000000000000000000000000000000600052602260045260246000fd5b600060028204905060018216806200056b57607f821691505b60208210810362000581576200058062000523565b5b50919050565b60008190508160005260206000209050919050565b60006020601f8301049050919050565b600082821b905092915050565b600060088302620005eb7fffffffffffffffffffffffffffffffffffffffffffffffffffffffffffffffff82620005ac565b620005f78683620005ac565b95508019841693508086168417925050509392505050565b6000819050919050565b60006200063a620006346200062e84620003be565b6200060f565b620003be565b9050919050565b6000819050919050565b620006568362000619565b6200066e620006658262000641565b848454620005b9565b825550505050565b600090565b6200068562000676565b620006928184846200064b565b505050565b5b81811015620006ba57620006ae6000826200067b565b60018101905062000698565b5050565b601f8211156200070957620006d38162000587565b620006de846200059c565b81016020851015620006ee578190505b62000706620006fd856200059c565b83018262000697565b50505b505050565b600082821c905092915050565b60006200072e600019846008026200070e565b1980831691505092915050565b60006200074983836200071b565b9150826002028217905092915050565b620007648262000518565b67ffffffffffffffff81111562000780576200077f6200025a565b5b6200078c825462000552565b62000799828285620006be565b600060209050601f831160018114620007d15760008415620007bc578287015190505b620007c885826200073b565b86555062000838565b601f198416620007e18662000587565b60005b828110156200080b57848901518255600182019150602085019450602081019050620007e4565b868310156200082b578489015162000827601f8916826200071b565b8355505b6001600288020188555050505b505050505050565b6112d580620008506000396000f3fe6080604052600436106100915760003560e01c8063845c930611610059578063845c9306146101495780638da5cb5b14610165578063b47b4d9614610190578063c658f6e8146101bb578063dab713c0146101f857610091565b80631dd17f83146100965780633309d0a3146100d35780633645c484146100ff5780633f00c7851461011b5780634afd131b14610132575b600080fd5b3480156100a257600080fd5b506100bd60048036038101906100b89190610e08565b610227565b6040516100ca9190610e61565b60405180910390f35b3480156100df57600080fd5b506100e861024c565b6040516100f6929190610e7c565b60405180910390f35b61011960048036038101906101149190610ea5565b61025e565b005b34801561012757600080fd5b5061013061052a565b005b34801561013e57600080fd5b506101476107aa565b005b610163600480360381019061015e9190610efe565b610ae5565b005b34801561017157600080fd5b5061017a610c45565b6040516101879190610f3a565b60405180910390f35b34801561019c57600080fd5b506101a5610c6b565b6040516101b29190610e61565b60405180910390f35b3480156101c757600080fd5b506101e260048036038101906101dd9190610f55565b610c71565b6040516101ef9190610e61565b60405180910390f35b34801561020457600080fd5b5061020d610c89565b60405161021e95949392919061103d565b60405180910390f35b600a602052816000526040600020602052806000526040600020600091509150505481565b60078060000154908060010154905082565b6000600960003373ffffffffffffffffffffffffffffffffffffffff1673ffffffffffffffffffffffffffffffffffffffff168152602001908152602001600020549050621275006003800160109054906101000a90046fffffffffffffffffffffffffffffffff166fffffffffffffffffffffffffffffffff166102e391906110c6565b42101561031c576040517f3e17a81800000000000000000000000000000000000000000000000000000000815260040160405180910390fd5b6001811015610357576040517f986bf73d00000000000000000000000000000000000000000000000000000000815260040160405180910390fd5b811561042357806007600101600082825461037291906110c6565b9250508190555080600a60003373ffffffffffffffffffffffffffffffffffffffff1673ffffffffffffffffffffffffffffffffffffffff1681526020019081526020016000206000600115151515815260200190815260200160002060008282546103de91906110c6565b925050819055507f43395425676ae3dc10ddde602f91f39874649a80b59034529ce5d9e609d6bf6833826040516104169291906110fa565b60405180910390a1610526565b67016345785d8a0000341015610465576040517f54aa2d1700000000000000000000000000000000000000000000000000000000815260040160405180910390fd5b806007600001600082825461047a91906110c6565b9250508190555080600a60003373ffffffffffffffffffffffffffffffffffffffff1673ffffffffffffffffffffffffffffffffffffffff16815260200190815260200160002060008015151515815260200190815260200160002060008282546104e591906110c6565b925050819055507f171ae997a165b83aab6e099a17376a0ce3bf2aabd2aef62c3258e7425c427889338260405161051d9291906110fa565b60405180910390a15b5050565b62127500806003800160109054906101000a90046fffffffffffffffffffffffffffffffff166fffffffffffffffffffffffffffffffff1661056c91906110c6565b61057691906110c6565b4210156105af576040517f181e3f9b00000000000000000000000000000000000000000000000000000000815260040160405180910390fd5b60006007600101546007600001546105c791906110c6565b9050610bb8816127106007600001546105e09190611123565b6105ea9190611194565b1115610622576040517fd558872200000000000000000000000000000000000000000000000000000000815260040160405180910390fd5b600060076001015461271067016345785d8a00006007600001546106469190611123565b6106509190611123565b61065a9190611194565b905060003373ffffffffffffffffffffffffffffffffffffffff16612710600a60003373ffffffffffffffffffffffffffffffffffffffff1673ffffffffffffffffffffffffffffffffffffffff1681526020019081526020016000206000600115151515815260200190815260200160002054846106d99190611123565b6106e39190611194565b6040516106ef906111f6565b60006040518083038185875af1925050503d806000811461072c576040519150601f19603f3d011682016040523d82523d6000602084013e610731565b606091505b505090508061076c576040517f750b219c00000000000000000000000000000000000000000000000000000000815260040160405180910390fd5b7f70ddb85706adfb5d63aea6bb3315f9ee6cf0c5b4ac2b7f7cb63ef0a8159d5f5a338360405161079d9291906110fa565b60405180910390a1505050565b600160009054906101000a900473ffffffffffffffffffffffffffffffffffffffff1673ffffffffffffffffffffffffffffffffffffffff163373ffffffffffffffffffffffffffffffffffffffff1614610831576040517fc28122b500000000000000000000000000000000000000000000000000000000815260040160405180910390fd5b62127500806003800160109054906101000a90046fffffffffffffffffffffffffffffffff166fffffffffffffffffffffffffffffffff1661087391906110c6565b61087d91906110c6565b4210156108b6576040517f181e3f9b00000000000000000000000000000000000000000000000000000000815260040160405180910390fd5b60006007600101546007600001546108ce91906110c6565b9050610bb8816127106007600001546108e79190611123565b6108f19190611194565b1115610929576040517fd558872200000000000000000000000000000000000000000000000000000000815260040160405180910390fd5b600060036002015460005461093e9190611123565b905060006127106101f4836109539190611123565b61095d9190611194565b905060003373ffffffffffffffffffffffffffffffffffffffff168284610984919061120b565b604051610990906111f6565b60006040518083038185875af1925050503d80600081146109cd576040519150601f19603f3d011682016040523d82523d6000602084013e6109d2565b606091505b50509050600260009054906101000a900473ffffffffffffffffffffffffffffffffffffffff1673ffffffffffffffffffffffffffffffffffffffff1682604051610a1c906111f6565b60006040518083038185875af1925050503d8060008114610a59576040519150601f19603f3d011682016040523d82523d6000602084013e610a5e565b606091505b50508091505080610a9b576040517f750b219c00000000000000000000000000000000000000000000000000000000815260040160405180910390fd5b7f076597fbe0f8c84143006de050fee841f9ebfa953f9b5ec5e1d9c77695970165338385610ac9919061120b565b604051610ad79291906110fa565b60405180910390a150505050565b6003800160109054906101000a90046fffffffffffffffffffffffffffffffff166fffffffffffffffffffffffffffffffff16421115610b51576040517f68cc377500000000000000000000000000000000000000000000000000000000815260040160405180910390fd5b60036002015481610b629190611123565b341015610b9b576040517f14640f7700000000000000000000000000000000000000000000000000000000815260040160405180910390fd5b80600080828254610bac91906110c6565b9250508190555080600960003373ffffffffffffffffffffffffffffffffffffffff1673ffffffffffffffffffffffffffffffffffffffff1681526020019081526020016000206000828254610c0291906110c6565b925050819055507f2409f285876e7ea1acb9fd55b670d4665a7506dbeadf4cb7f751552ecdb2d8693382604051610c3a9291906110fa565b60405180910390a150565b600160009054906101000a900473ffffffffffffffffffffffffffffffffffffffff1681565b60005481565b60096020528060005260406000206000915090505481565b6003806000018054610c9a9061126e565b80601f0160208091040260200160405190810160405280929190818152602001828054610cc69061126e565b8015610d135780601f10610ce857610100808354040283529160200191610d13565b820191906000526020600020905b815481529060010190602001808311610cf657829003601f168201915b5050505050908060010154908060020154908060030160009054906101000a90046fffffffffffffffffffffffffffffffff16908060030160109054906101000a90046fffffffffffffffffffffffffffffffff16905085565b600080fd5b600073ffffffffffffffffffffffffffffffffffffffff82169050919050565b6000610d9d82610d72565b9050919050565b610dad81610d92565b8114610db857600080fd5b50565b600081359050610dca81610da4565b92915050565b60008115159050919050565b610de581610dd0565b8114610df057600080fd5b50565b600081359050610e0281610ddc565b92915050565b60008060408385031215610e1f57610e1e610d6d565b5b6000610e2d85828601610dbb565b9250506020610e3e85828601610df3565b9150509250929050565b6000819050919050565b610e5b81610e48565b82525050565b6000602082019050610e766000830184610e52565b92915050565b6000604082019050610e916000830185610e52565b610e9e6020830184610e52565b9392505050565b600060208284031215610ebb57610eba610d6d565b5b6000610ec984828501610df3565b91505092915050565b610edb81610e48565b8114610ee657600080fd5b50565b600081359050610ef881610ed2565b92915050565b600060208284031215610f1457610f13610d6d565b5b6000610f2284828501610ee9565b91505092915050565b610f3481610d92565b82525050565b6000602082019050610f4f6000830184610f2b565b92915050565b600060208284031215610f6b57610f6a610d6d565b5b6000610f7984828501610dbb565b91505092915050565b600081519050919050565b600082825260208201905092915050565b60005b83811015610fbc578082015181840152602081019050610fa1565b60008484015250505050565b6000601f19601f8301169050919050565b6000610fe482610f82565b610fee8185610f8d565b9350610ffe818560208601610f9e565b61100781610fc8565b840191505092915050565b60006fffffffffffffffffffffffffffffffff82169050919050565b61103781611012565b82525050565b600060a08201905081810360008301526110578188610fd9565b90506110666020830187610e52565b6110736040830186610e52565b611080606083018561102e565b61108d608083018461102e565b9695505050505050565b7f4e487b7100000000000000000000000000000000000000000000000000000000600052601160045260246000fd5b60006110d182610e48565b91506110dc83610e48565b92508282019050808211156110f4576110f3611097565b5b92915050565b600060408201905061110f6000830185610f2b565b61111c6020830184610e52565b9392505050565b600061112e82610e48565b915061113983610e48565b925082820261114781610e48565b9150828204841483151761115e5761115d611097565b5b5092915050565b7f4e487b7100000000000000000000000000000000000000000000000000000000600052601260045260246000fd5b600061119f82610e48565b91506111aa83610e48565b9250826111ba576111b9611165565b5b828204905092915050565b600081905092915050565b50565b60006111e06000836111c5565b91506111eb826111d0565b600082019050919050565b6000611201826111d3565b9150819050919050565b600061121682610e48565b915061122183610e48565b925082820390508181111561123957611238611097565b5b92915050565b7f4e487b7100000000000000000000000000000000000000000000000000000000600052602260045260246000fd5b6000600282049050600182168061128657607f821691505b6020821081036112995761129861123f565b5b5091905056fea2646970667358221220a702e90771a506452c6d2e01ce19d5689c997964e3a185dfe245255037e4838e64736f6c63430008110033608060405234801561001057600080fd5b50611078806100206000396000f3fe608060405234801561001057600080fd5b50600436106100575760003560e01c806314ae2ed71461005c578063338cdca11461007857806337ac22e91461009b578063524b87bd146100b7578063c3a4343c146100d5575b600080fd5b61007660048036038101906100719190610632565b6100df565b005b6100806102ca565b604051610092969594939291906107d1565b60405180910390f35b6100b560048036038101906100b09190610a59565b6103c2565b005b6100bf6104f1565b6040516100cc9190610ae1565b60405180910390f35b6100dd6104fd565b005b6000800160009054906101000a900473ffffffffffffffffffffffffffffffffffffffff1673ffffffffffffffffffffffffffffffffffffffff163373ffffffffffffffffffffffffffffffffffffffff1614610168576040517f407b35b300000000000000000000000000000000000000000000000000000000815260040160405180910390fd5b600060030160009054906101000a90048060201c73ffffffffffffffffffffffffffffffffffffffff169063ffffffff166000800160009054906101000a900473ffffffffffffffffffffffffffffffffffffffff1660006001018660006002015487876040518763ffffffff1660e01b81526004016101ed96959493929190610c04565b6020604051808303816000875af115801561020c573d6000803e3d6000fd5b505050506040513d601f19601f820116820180604052508101906102309190610ca4565b50816fffffffffffffffffffffffffffffffff1660006001016040516102569190610d5f565b60405180910390206000800160009054906101000a900473ffffffffffffffffffffffffffffffffffffffff1673ffffffffffffffffffffffffffffffffffffffff167f6e805b7cb9a787d6277c61ffd68f1de514347ef311f98f9b4bc3113a3af905f160405160405180910390a4505050565b60008060000160009054906101000a900473ffffffffffffffffffffffffffffffffffffffff169080600101805461030190610b2b565b80601f016020809104026020016040519081016040528092919081815260200182805461032d90610b2b565b801561037a5780601f1061034f5761010080835404028352916020019161037a565b820191906000526020600020905b81548152906001019060200180831161035d57829003601f168201915b5050505050908060020154908060030160009054906101000a90048060201c73ffffffffffffffffffffffffffffffffffffffff169063ffffffff1690918060040154905086565b6040518060a001604052808673ffffffffffffffffffffffffffffffffffffffff168152602001858152602001848152602001838363ffffffff169060201b1760401b815260200160008152506000808201518160000160006101000a81548173ffffffffffffffffffffffffffffffffffffffff021916908373ffffffffffffffffffffffffffffffffffffffff160217905550602082015181600101908161046c9190610f0d565b506040820151816002015560608201518060601c9060401c63ffffffff168260030160006101000a81548177ffffffffffffffffffffffffffffffffffffffffffffffff02191690848463ffffffff169073ffffffffffffffffffffffffffffffffffffffff1660201b17021790555050608082015181600401559050505050505050565b60008060040154905090565b600560003373ffffffffffffffffffffffffffffffffffffffff1673ffffffffffffffffffffffffffffffffffffffff16815260200190815260200160002060009054906101000a900460ff1615610581576040517f3a7dab6500000000000000000000000000000000000000000000000000000000815260040160405180910390fd5b600160006004016000828254610597919061100e565b92505081905550565b6000604051905090565b600080fd5b600080fd5b6000819050919050565b6105c7816105b4565b81146105d257600080fd5b50565b6000813590506105e4816105be565b92915050565b60006fffffffffffffffffffffffffffffffff82169050919050565b61060f816105ea565b811461061a57600080fd5b50565b60008135905061062c81610606565b92915050565b60008060006060848603121561064b5761064a6105aa565b5b6000610659868287016105d5565b935050602061066a8682870161061d565b925050604061067b8682870161061d565b9150509250925092565b600073ffffffffffffffffffffffffffffffffffffffff82169050919050565b60006106b082610685565b9050919050565b6106c0816106a5565b82525050565b600081519050919050565b600082825260208201905092915050565b60005b838110156107005780820151818401526020810190506106e5565b60008484015250505050565b6000601f19601f8301169050919050565b6000610728826106c6565b61073281856106d1565b93506107428185602086016106e2565b61074b8161070c565b840191505092915050565b61075f816105b4565b82525050565b60008160201b9050919050565b60008160401b9050919050565b600061079a63ffffffff841661079484610765565b17610772565b905092915050565b6000808291508390509250929050565b6107bc82826107a2565b925090506107ca828261077f565b8352505050565b600060a0820190506107e660008301896106b7565b81810360208301526107f8818861071d565b90506108076040830187610756565b6108156060830185876107b2565b6108226080830184610756565b979650505050505050565b610836816106a5565b811461084157600080fd5b50565b6000813590506108538161082d565b92915050565b600080fd5b600080fd5b7f4e487b7100000000000000000000000000000000000000000000000000000000600052604160045260246000fd5b61089b8261070c565b810181811067ffffffffffffffff821117156108ba576108b9610863565b5b80604052505050565b60006108cd6105a0565b90506108d98282610892565b919050565b600067ffffffffffffffff8211156108f9576108f8610863565b5b6109028261070c565b9050602081019050919050565b82818337600083830152505050565b600061093161092c846108de565b6108c3565b90508281526020810184848401111561094d5761094c61085e565b5b61095884828561090f565b509392505050565b600082601f83011261097557610974610859565b5b813561098584826020860161091e565b91505092915050565b60007fffffffffffffffffffffffffffffffffffffffffffffffff000000000000000082169050919050565b60006109c58261098e565b9050919050565b6109d5816109ba565b81146109e057600080fd5b50565b6000813590506109f2816109cc565b92915050565b60008160201c9050919050565b60008160401c9050919050565b600080610a1e83610a05565b925063ffffffff83169050610a32836109f8565b9150915091565b600080610a4e610a4985856109e3565b610a12565b915091509250929050565b600080600080600060808688031215610a7557610a746105aa565b5b6000610a8388828901610844565b955050602086013567ffffffffffffffff811115610aa457610aa36105af565b5b610ab088828901610960565b9450506040610ac1888289016105d5565b9350506060610ad288828901610a39565b92509250509295509295909350565b6000602082019050610af66000830184610756565b92915050565b7f4e487b7100000000000000000000000000000000000000000000000000000000600052602260045260246000fd5b60006002820490506001821680610b4357607f821691505b602082108103610b5657610b55610afc565b5b50919050565b60008190508160005260206000209050919050565b60008154610b7e81610b2b565b610b8881866106d1565b94506001821660008114610ba35760018114610bb957610bec565b60ff198316865281151560200286019350610bec565b610bc285610b5c565b60005b83811015610be457815481890152600182019150602081019050610bc5565b808801955050505b50505092915050565b610bfe816105ea565b82525050565b600060c082019050610c1960008301896106b7565b8181036020830152610c2b8188610b71565b9050610c3a6040830187610756565b610c476060830186610756565b610c546080830185610bf5565b610c6160a0830184610bf5565b979650505050505050565b60008115159050919050565b610c8181610c6c565b8114610c8c57600080fd5b50565b600081519050610c9e81610c78565b92915050565b600060208284031215610cba57610cb96105aa565b5b6000610cc884828501610c8f565b91505092915050565b600081905092915050565b60008154610ce981610b2b565b610cf38186610cd1565b94506001821660008114610d0e5760018114610d2357610d56565b60ff1983168652811515820286019350610d56565b610d2c85610b5c565b60005b83811015610d4e57815481890152600182019150602081019050610d2f565b838801955050505b50505092915050565b6000610d6b8284610cdc565b915081905092915050565b60006020601f8301049050919050565b600082821b905092915050565b600060088302610dc37fffffffffffffffffffffffffffffffffffffffffffffffffffffffffffffffff82610d86565b610dcd8683610d86565b95508019841693508086168417925050509392505050565b6000819050919050565b6000610e0a610e05610e00846105b4565b610de5565b6105b4565b9050919050565b6000819050919050565b610e2483610def565b610e38610e3082610e11565b848454610d93565b825550505050565b600090565b610e4d610e40565b610e58818484610e1b565b505050565b5b81811015610e7c57610e71600082610e45565b600181019050610e5e565b5050565b601f821115610ec157610e9281610b5c565b610e9b84610d76565b81016020851015610eaa578190505b610ebe610eb685610d76565b830182610e5d565b50505b505050565b600082821c905092915050565b6000610ee460001984600802610ec6565b1980831691505092915050565b6000610efd8383610ed3565b9150826002028217905092915050565b610f16826106c6565b67ffffffffffffffff811115610f2f57610f2e610863565b5b610f398254610b2b565b610f44828285610e80565b600060209050601f831160018114610f775760008415610f65578287015190505b610f6f8582610ef1565b865550610fd7565b601f198416610f8586610b5c565b60005b82811015610fad57848901518255600182019150602085019450602081019050610f88565b86831015610fca5784890151610fc6601f891682610ed3565b8355505b6001600288020188555050505b505050505050565b7f4e487b7100000000000000000000000000000000000000000000000000000000600052601160045260246000fd5b6000611019826105b4565b9150611024836105b4565b925082820190508082111561103c5761103b610fdf565b5b9291505056fea264697066735822122001eb6522eed1d7a9352c67249d0a8a58cec7717f65047e3b8db82a35d3ad356e64736f6c63430008110033a26469706673582212201b0a36579d7d5c5de72b0adcff27d33cd336404c57b19695929f7f47b2ce55fe64736f6c63430008110033608060405234801561001057600080fd5b50336000806101000a81548173ffffffffffffffffffffffffffffffffffffffff021916908373ffffffffffffffffffffffffffffffffffffffff160217905550610262806100606000396000f3fe6080604052600436106100225760003560e01c8063ec3889b51461002e57610029565b3661002957005b600080fd5b34801561003a57600080fd5b50610055600480360381019061005091906101b9565b610057565b005b60008054906101000a900473ffffffffffffffffffffffffffffffffffffffff1673ffffffffffffffffffffffffffffffffffffffff163373ffffffffffffffffffffffffffffffffffffffff16146100dc576040517f36b6b89500000000000000000000000000000000000000000000000000000000815260040160405180910390fd5b60008173ffffffffffffffffffffffffffffffffffffffff164760405161010290610217565b60006040518083038185875af1925050503d806000811461013f576040519150601f19603f3d011682016040523d82523d6000602084013e610144565b606091505b505090508061015257600080fd5b5050565b600080fd5b600073ffffffffffffffffffffffffffffffffffffffff82169050919050565b60006101868261015b565b9050919050565b6101968161017b565b81146101a157600080fd5b50565b6000813590506101b38161018d565b92915050565b6000602082840312156101cf576101ce610156565b5b60006101dd848285016101a4565b91505092915050565b600081905092915050565b50565b60006102016000836101e6565b915061020c826101f1565b600082019050919050565b6000610222826101f4565b915081905091905056fea2646970667358221220f7fc168b08fcc54f164d92ff3e3fcab99b0b01519c07bb0c226c06688210743464736f6c63430008110033",
  "linkReferences": {},
  "deployedLinkReferences": {}
}