{
  "_format": "hh-sol-artifact-1",
  "contractName": "Product",
  "sourceName": "contracts/Product.sol",
  "abi": [
    {
      "inputs": [
        {
          "internalType": "address",
          "name": "_owner",
          "type": "address"
        },
        {
          "internalType": "address",
          "name": "_treasury",
          "type": "address"
        },
        {
          "internalType": "address",
          "name": "_dealChainSoulAddress",
          "type": "address"
        },
        {
          "internalType": "bytes32",
          "name": "_name",
          "type": "bytes32"
        },
        {
          "internalType": "uint256",
          "name": "_marketPrice",
          "type": "uint256"
        },
        {
          "internalType": "uint256",
          "name": "_discountedPrice",
          "type": "uint256"
        },
        {
          "internalType": "uint128",
          "name": "_quantityTreshold",
          "type": "uint128"
        },
        {
          "internalType": "uint128",
          "name": "_endDate",
          "type": "uint128"
        }
      ],
      "stateMutability": "nonpayable",
      "type": "constructor"
    },
    {
      "inputs": [],
      "name": "AmountSentTooLow",
      "type": "error"
    },
    {
      "inputs": [],
      "name": "EvaluationPeriodNotOver",
      "type": "error"
    },
    {
      "inputs": [],
      "name": "OfferEnded",
      "type": "error"
    },
    {
      "inputs": [],
      "name": "OnlyOwnerCanWithdrawFunds",
      "type": "error"
    },
    {
      "inputs": [],
      "name": "ThereIsAMinAmountToLock",
      "type": "error"
    },
    {
      "inputs": [],
      "name": "ThereIsAProblemWithYourProduct",
      "type": "error"
    },
    {
      "inputs": [],
      "name": "WaitForEvaluationPeriodDelay",
      "type": "error"
    },
    {
      "inputs": [],
      "name": "WithdrawFailed",
      "type": "error"
    },
    {
      "inputs": [],
      "name": "YouDidNotParticipatedInThatOffer",
      "type": "error"
    },
    {
      "anonymous": false,
      "inputs": [
        {
          "indexed": false,
          "internalType": "address",
          "name": "participant",
          "type": "address"
        },
        {
          "indexed": false,
          "internalType": "uint256",
          "name": "votingPower",
          "type": "uint256"
        }
      ],
      "name": "EvaluateConform",
      "type": "event"
    },
    {
      "anonymous": false,
      "inputs": [
        {
          "indexed": false,
          "internalType": "address",
          "name": "participant",
          "type": "address"
        },
        {
          "indexed": false,
          "internalType": "uint256",
          "name": "votingPower",
          "type": "uint256"
        }
      ],
      "name": "EvaluateNoConform",
      "type": "event"
    },
    {
      "anonymous": false,
      "inputs": [
        {
          "indexed": false,
          "internalType": "address",
          "name": "participant",
          "type": "address"
        },
        {
          "indexed": false,
          "internalType": "uint256",
          "name": "amount",
          "type": "uint256"
        }
      ],
      "name": "EvaluationConformPriceWithdrawn",
      "type": "event"
    },
    {
      "anonymous": false,
      "inputs": [
        {
          "indexed": false,
          "internalType": "address",
          "name": "participant",
          "type": "address"
        },
        {
          "indexed": false,
          "internalType": "uint256",
          "name": "amount",
          "type": "uint256"
        }
      ],
      "name": "ParticipateGroupBuy",
      "type": "event"
    },
    {
      "anonymous": false,
      "inputs": [
        {
          "indexed": false,
          "internalType": "address",
          "name": "owner",
          "type": "address"
        },
        {
          "indexed": false,
          "internalType": "uint256",
          "name": "amount",
          "type": "uint256"
        }
      ],
      "name": "ProductOfSellsWithdrawn",
      "type": "event"
    },
    {
      "inputs": [
        {
          "internalType": "bool",
          "name": "conformity",
          "type": "bool"
        }
      ],
      "name": "evaluateProduct",
      "outputs": [],
      "stateMutability": "payable",
      "type": "function"
    },
    {
      "inputs": [],
      "name": "owner",
      "outputs": [
        {
          "internalType": "address",
          "name": "",
          "type": "address"
        }
      ],
      "stateMutability": "view",
      "type": "function"
    },
    {
      "inputs": [
        {
          "internalType": "address",
          "name": "",
          "type": "address"
        },
        {
          "internalType": "bool",
          "name": "",
          "type": "bool"
        }
      ],
      "name": "participantEvaluation",
      "outputs": [
        {
          "internalType": "uint256",
          "name": "",
          "type": "uint256"
        }
      ],
      "stateMutability": "view",
      "type": "function"
    },
    {
      "inputs": [
        {
          "internalType": "uint256",
          "name": "quantityToBuy",
          "type": "uint256"
        }
      ],
      "name": "participate",
      "outputs": [],
      "stateMutability": "payable",
      "type": "function"
    },
    {
      "inputs": [],
      "name": "productConformity",
      "outputs": [
        {
          "internalType": "uint256",
          "name": "noConform",
          "type": "uint256"
        },
        {
          "internalType": "uint256",
          "name": "conform",
          "type": "uint256"
        }
      ],
      "stateMutability": "view",
      "type": "function"
    },
    {
      "inputs": [],
      "name": "productInfo",
      "outputs": [
        {
          "internalType": "bytes32",
          "name": "name",
          "type": "bytes32"
        },
        {
          "internalType": "uint256",
          "name": "marketPrice",
          "type": "uint256"
        },
        {
          "internalType": "uint256",
          "name": "discountedPrice",
          "type": "uint256"
        },
        {
          "internalType": "uint128",
          "name": "quantityTreshold",
          "type": "uint128"
        },
        {
          "internalType": "uint128",
          "name": "endDate",
          "type": "uint128"
        }
      ],
      "stateMutability": "view",
      "type": "function"
    },
    {
      "inputs": [
        {
          "internalType": "address",
          "name": "",
          "type": "address"
        }
      ],
      "name": "quantityBought",
      "outputs": [
        {
          "internalType": "uint256",
          "name": "",
          "type": "uint256"
        }
      ],
      "stateMutability": "view",
      "type": "function"
    },
    {
      "inputs": [],
      "name": "quantitySold",
      "outputs": [
        {
          "internalType": "uint256",
          "name": "",
          "type": "uint256"
        }
      ],
      "stateMutability": "view",
      "type": "function"
    },
    {
      "inputs": [],
      "name": "withdrawEvaluationConformPrice",
      "outputs": [],
      "stateMutability": "nonpayable",
      "type": "function"
    },
    {
      "inputs": [],
      "name": "withdrawProductOfSells",
      "outputs": [],
      "stateMutability": "nonpayable",
      "type": "function"
    }
  ],
  "bytecode": "0x60806040523480156200001157600080fd5b506040516200175138038062001751833981810160405281019062000037919062000327565b87600160006101000a81548173ffffffffffffffffffffffffffffffffffffffff021916908373ffffffffffffffffffffffffffffffffffffffff16021790555086600260006101000a81548173ffffffffffffffffffffffffffffffffffffffff021916908373ffffffffffffffffffffffffffffffffffffffff16021790555085600460006101000a81548173ffffffffffffffffffffffffffffffffffffffff021916908373ffffffffffffffffffffffffffffffffffffffff16021790555060006040518060a00160405280878152602001868152602001858152602001846fffffffffffffffffffffffffffffffff168152602001836fffffffffffffffffffffffffffffffff16815250905080600560008201518160000155602082015181600101556040820151816002015560608201518160030160006101000a8154816fffffffffffffffffffffffffffffffff02191690836fffffffffffffffffffffffffffffffff16021790555060808201518160030160106101000a8154816fffffffffffffffffffffffffffffffff02191690836fffffffffffffffffffffffffffffffff160217905550905050505050505050505050620003f0565b600080fd5b600073ffffffffffffffffffffffffffffffffffffffff82169050919050565b60006200022c82620001ff565b9050919050565b6200023e816200021f565b81146200024a57600080fd5b50565b6000815190506200025e8162000233565b92915050565b6000819050919050565b620002798162000264565b81146200028557600080fd5b50565b60008151905062000299816200026e565b92915050565b6000819050919050565b620002b4816200029f565b8114620002c057600080fd5b50565b600081519050620002d481620002a9565b92915050565b60006fffffffffffffffffffffffffffffffff82169050919050565b6200030181620002da565b81146200030d57600080fd5b50565b6000815190506200032181620002f6565b92915050565b600080600080600080600080610100898b0312156200034b576200034a620001fa565b5b60006200035b8b828c016200024d565b98505060206200036e8b828c016200024d565b9750506040620003818b828c016200024d565b9650506060620003948b828c0162000288565b9550506080620003a78b828c01620002c3565b94505060a0620003ba8b828c01620002c3565b93505060c0620003cd8b828c0162000310565b92505060e0620003e08b828c0162000310565b9150509295985092959890939650565b61135180620004006000396000f3fe6080604052600436106100915760003560e01c8063845c930611610059578063845c9306146101495780638da5cb5b14610165578063b47b4d9614610190578063c658f6e8146101bb578063dab713c0146101f857610091565b80631dd17f83146100965780633309d0a3146100d35780633645c484146100ff5780633f00c7851461011b5780634afd131b14610132575b600080fd5b3480156100a257600080fd5b506100bd60048036038101906100b89190610ede565b610227565b6040516100ca9190610f37565b60405180910390f35b3480156100df57600080fd5b506100e861024c565b6040516100f6929190610f52565b60405180910390f35b61011960048036038101906101149190610f7b565b61025e565b005b34801561012757600080fd5b5061013061053b565b005b34801561013e57600080fd5b506101476107bc565b005b610163600480360381019061015e9190610fd4565b610af8565b005b34801561017157600080fd5b5061017a610c61565b6040516101879190611010565b60405180910390f35b34801561019c57600080fd5b506101a5610c87565b6040516101b29190610f37565b60405180910390f35b3480156101c757600080fd5b506101e260048036038101906101dd919061102b565b610c8d565b6040516101ef9190610f37565b60405180910390f35b34801561020457600080fd5b5061020d610ca5565b60405161021e95949392919061109c565b60405180910390f35b600c602052816000526040600020602052806000526040600020600091509150505481565b60098060000154908060010154905082565b6000600b60003373ffffffffffffffffffffffffffffffffffffffff1673ffffffffffffffffffffffffffffffffffffffff16815260200190815260200160002054905062127500600560030160109054906101000a90046fffffffffffffffffffffffffffffffff166fffffffffffffffffffffffffffffffff166102e4919061111e565b42101561031d576040517f3e17a81800000000000000000000000000000000000000000000000000000000815260040160405180910390fd5b6001811015610358576040517f986bf73d00000000000000000000000000000000000000000000000000000000815260040160405180910390fd5b811561042c578060096001016000828254610373919061111e565b9250508190555080600c60003373ffffffffffffffffffffffffffffffffffffffff1673ffffffffffffffffffffffffffffffffffffffff1681526020019081526020016000206000600115151515815260200190815260200160002060008282546103df919061111e565b925050819055506103ee610d01565b7f43395425676ae3dc10ddde602f91f39874649a80b59034529ce5d9e609d6bf68338260405161041f929190611152565b60405180910390a1610537565b67016345785d8a000034101561046e576040517f54aa2d1700000000000000000000000000000000000000000000000000000000815260040160405180910390fd5b8060096000016000828254610483919061111e565b9250508190555080600c60003373ffffffffffffffffffffffffffffffffffffffff1673ffffffffffffffffffffffffffffffffffffffff16815260200190815260200160002060008015151515815260200190815260200160002060008282546104ee919061111e565b925050819055506104fd610d01565b7f171ae997a165b83aab6e099a17376a0ce3bf2aabd2aef62c3258e7425c427889338260405161052e929190611152565b60405180910390a15b5050565b6212750080600560030160109054906101000a90046fffffffffffffffffffffffffffffffff166fffffffffffffffffffffffffffffffff1661057e919061111e565b610588919061111e565b4210156105c1576040517f181e3f9b00000000000000000000000000000000000000000000000000000000815260040160405180910390fd5b60006009600101546009600001546105d9919061111e565b9050610bb8816127106009600001546105f2919061117b565b6105fc91906111ec565b1115610634576040517fd558872200000000000000000000000000000000000000000000000000000000815260040160405180910390fd5b600060096001015461271067016345785d8a0000600960000154610658919061117b565b610662919061117b565b61066c91906111ec565b905060003373ffffffffffffffffffffffffffffffffffffffff16612710600c60003373ffffffffffffffffffffffffffffffffffffffff1673ffffffffffffffffffffffffffffffffffffffff1681526020019081526020016000206000600115151515815260200190815260200160002054846106eb919061117b565b6106f591906111ec565b6040516107019061124e565b60006040518083038185875af1925050503d806000811461073e576040519150601f19603f3d011682016040523d82523d6000602084013e610743565b606091505b505090508061077e576040517f750b219c00000000000000000000000000000000000000000000000000000000815260040160405180910390fd5b7f70ddb85706adfb5d63aea6bb3315f9ee6cf0c5b4ac2b7f7cb63ef0a8159d5f5a33836040516107af929190611152565b60405180910390a1505050565b600160009054906101000a900473ffffffffffffffffffffffffffffffffffffffff1673ffffffffffffffffffffffffffffffffffffffff163373ffffffffffffffffffffffffffffffffffffffff1614610843576040517fc28122b500000000000000000000000000000000000000000000000000000000815260040160405180910390fd5b6212750080600560030160109054906101000a90046fffffffffffffffffffffffffffffffff166fffffffffffffffffffffffffffffffff16610886919061111e565b610890919061111e565b4210156108c9576040517f181e3f9b00000000000000000000000000000000000000000000000000000000815260040160405180910390fd5b60006009600101546009600001546108e1919061111e565b9050610bb8816127106009600001546108fa919061117b565b61090491906111ec565b111561093c576040517fd558872200000000000000000000000000000000000000000000000000000000815260040160405180910390fd5b6000600560020154600054610951919061117b565b905060006127106101f483610966919061117b565b61097091906111ec565b905060003373ffffffffffffffffffffffffffffffffffffffff1682846109979190611263565b6040516109a39061124e565b60006040518083038185875af1925050503d80600081146109e0576040519150601f19603f3d011682016040523d82523d6000602084013e6109e5565b606091505b50509050600260009054906101000a900473ffffffffffffffffffffffffffffffffffffffff1673ffffffffffffffffffffffffffffffffffffffff1682604051610a2f9061124e565b60006040518083038185875af1925050503d8060008114610a6c576040519150601f19603f3d011682016040523d82523d6000602084013e610a71565b606091505b50508091505080610aae576040517f750b219c00000000000000000000000000000000000000000000000000000000815260040160405180910390fd5b7f076597fbe0f8c84143006de050fee841f9ebfa953f9b5ec5e1d9c77695970165338385610adc9190611263565b604051610aea929190611152565b60405180910390a150505050565b600560030160109054906101000a90046fffffffffffffffffffffffffffffffff166fffffffffffffffffffffffffffffffff16421115610b65576040517f68cc377500000000000000000000000000000000000000000000000000000000815260040160405180910390fd5b60056002015481610b76919061117b565b341015610baf576040517f14640f7700000000000000000000000000000000000000000000000000000000815260040160405180910390fd5b80600080828254610bc0919061111e565b9250508190555080600b60003373ffffffffffffffffffffffffffffffffffffffff1673ffffffffffffffffffffffffffffffffffffffff1681526020019081526020016000206000828254610c16919061111e565b92505081905550610c25610d01565b7f2409f285876e7ea1acb9fd55b670d4665a7506dbeadf4cb7f751552ecdb2d8693382604051610c56929190611152565b60405180910390a150565b600160009054906101000a900473ffffffffffffffffffffffffffffffffffffffff1681565b60005481565b600b6020528060005260406000206000915090505481565b60058060000154908060010154908060020154908060030160009054906101000a90046fffffffffffffffffffffffffffffffff16908060030160109054906101000a90046fffffffffffffffffffffffffffffffff16905085565b6000600460009054906101000a900473ffffffffffffffffffffffffffffffffffffffff1673ffffffffffffffffffffffffffffffffffffffff16638c633afe336040518263ffffffff1660e01b8152600401610d5e9190611010565b602060405180830381865afa158015610d7b573d6000803e3d6000fd5b505050506040513d601f19601f82011682018060405250810190610d9f91906112ac565b9050600460009054906101000a900473ffffffffffffffffffffffffffffffffffffffff1673ffffffffffffffffffffffffffffffffffffffff1663b92d0399826040518263ffffffff1660e01b8152600401610dfc9190610f37565b6020604051808303816000875af1158015610e1b573d6000803e3d6000fd5b505050506040513d601f19601f82011682018060405250810190610e3f91906112ee565b5050565b600080fd5b600073ffffffffffffffffffffffffffffffffffffffff82169050919050565b6000610e7382610e48565b9050919050565b610e8381610e68565b8114610e8e57600080fd5b50565b600081359050610ea081610e7a565b92915050565b60008115159050919050565b610ebb81610ea6565b8114610ec657600080fd5b50565b600081359050610ed881610eb2565b92915050565b60008060408385031215610ef557610ef4610e43565b5b6000610f0385828601610e91565b9250506020610f1485828601610ec9565b9150509250929050565b6000819050919050565b610f3181610f1e565b82525050565b6000602082019050610f4c6000830184610f28565b92915050565b6000604082019050610f676000830185610f28565b610f746020830184610f28565b9392505050565b600060208284031215610f9157610f90610e43565b5b6000610f9f84828501610ec9565b91505092915050565b610fb181610f1e565b8114610fbc57600080fd5b50565b600081359050610fce81610fa8565b92915050565b600060208284031215610fea57610fe9610e43565b5b6000610ff884828501610fbf565b91505092915050565b61100a81610e68565b82525050565b60006020820190506110256000830184611001565b92915050565b60006020828403121561104157611040610e43565b5b600061104f84828501610e91565b91505092915050565b6000819050919050565b61106b81611058565b82525050565b60006fffffffffffffffffffffffffffffffff82169050919050565b61109681611071565b82525050565b600060a0820190506110b16000830188611062565b6110be6020830187610f28565b6110cb6040830186610f28565b6110d8606083018561108d565b6110e5608083018461108d565b9695505050505050565b7f4e487b7100000000000000000000000000000000000000000000000000000000600052601160045260246000fd5b600061112982610f1e565b915061113483610f1e565b925082820190508082111561114c5761114b6110ef565b5b92915050565b60006040820190506111676000830185611001565b6111746020830184610f28565b9392505050565b600061118682610f1e565b915061119183610f1e565b925082820261119f81610f1e565b915082820484148315176111b6576111b56110ef565b5b5092915050565b7f4e487b7100000000000000000000000000000000000000000000000000000000600052601260045260246000fd5b60006111f782610f1e565b915061120283610f1e565b925082611212576112116111bd565b5b828204905092915050565b600081905092915050565b50565b600061123860008361121d565b915061124382611228565b600082019050919050565b60006112598261122b565b9150819050919050565b600061126e82610f1e565b915061127983610f1e565b9250828203905081811115611291576112906110ef565b5b92915050565b6000815190506112a681610fa8565b92915050565b6000602082840312156112c2576112c1610e43565b5b60006112d084828501611297565b91505092915050565b6000815190506112e881610eb2565b92915050565b60006020828403121561130457611303610e43565b5b6000611312848285016112d9565b9150509291505056fea264697066735822122024ad6e70f766667421f385047bc151424c244fe03f5390304ae2fa92fa7e7a0d64736f6c63430008110033",
  "linkReferences": {},
  "deployedLinkReferences": {}
}