{
  "_format": "hh-sol-artifact-1",
  "contractName": "ProductFactory",
  "sourceName": "contracts/ProductFactory.sol",
  "abi": [
    {
      "inputs": [],
      "stateMutability": "nonpayable",
      "type": "constructor"
    },
    {
      "anonymous": false,
      "inputs": [
        {
          "indexed": true,
          "internalType": "address",
          "name": "company",
          "type": "address"
        },
        {
          "indexed": true,
          "internalType": "bytes32",
          "name": "productName",
          "type": "bytes32"
        },
        {
          "indexed": false,
          "internalType": "uint256",
          "name": "queryPrice",
          "type": "uint256"
        }
      ],
      "name": "NewPreProductRequested",
      "type": "event"
    },
    {
      "anonymous": false,
      "inputs": [
        {
          "indexed": true,
          "internalType": "address",
          "name": "product",
          "type": "address"
        },
        {
          "indexed": true,
          "internalType": "bytes32",
          "name": "name",
          "type": "bytes32"
        }
      ],
      "name": "NewProductCreated",
      "type": "event"
    },
    {
      "inputs": [
        {
          "internalType": "address",
          "name": "company",
          "type": "address"
        },
        {
          "internalType": "bytes32",
          "name": "_name",
          "type": "bytes32"
        },
        {
          "internalType": "uint256",
          "name": "_marketPrice",
          "type": "uint256"
        },
        {
          "internalType": "uint256",
          "name": "_discountedPrice",
          "type": "uint256"
        },
        {
          "internalType": "uint128",
          "name": "_quantityTreshold",
          "type": "uint128"
        },
        {
          "internalType": "uint128",
          "name": "_endDate",
          "type": "uint128"
        }
      ],
      "name": "createProduct",
      "outputs": [
        {
          "internalType": "bool",
          "name": "productCreated",
          "type": "bool"
        }
      ],
      "stateMutability": "nonpayable",
      "type": "function"
    },
    {
      "inputs": [
        {
          "internalType": "uint256",
          "name": "",
          "type": "uint256"
        }
      ],
      "name": "preProducts",
      "outputs": [
        {
          "internalType": "contract PreProduct",
          "name": "",
          "type": "address"
        }
      ],
      "stateMutability": "view",
      "type": "function"
    },
    {
      "inputs": [
        {
          "internalType": "uint256",
          "name": "",
          "type": "uint256"
        }
      ],
      "name": "products",
      "outputs": [
        {
          "internalType": "contract Product",
          "name": "",
          "type": "address"
        }
      ],
      "stateMutability": "view",
      "type": "function"
    },
    {
      "inputs": [
        {
          "internalType": "address",
          "name": "_company",
          "type": "address"
        },
        {
          "internalType": "bytes32",
          "name": "_name",
          "type": "bytes32"
        },
        {
          "internalType": "uint256",
          "name": "_queryPrice",
          "type": "uint256"
        }
      ],
      "name": "requestCreateProduct",
      "outputs": [],
      "stateMutability": "nonpayable",
      "type": "function"
    },
    {
      "inputs": [],
      "name": "treasury",
      "outputs": [
        {
          "internalType": "contract Treasury",
          "name": "",
          "type": "address"
        }
      ],
      "stateMutability": "view",
      "type": "function"
    }
  ],
  "bytecode": "0x608060405234801561001057600080fd5b5060405161001d9061007e565b604051809103906000f080158015610039573d6000803e3d6000fd5b506000806101000a81548173ffffffffffffffffffffffffffffffffffffffff021916908373ffffffffffffffffffffffffffffffffffffffff16021790555061008b565b6102c280612a2c83390190565b6129928061009a6000396000f3fe60806040523480156200001157600080fd5b50600436106200005e5760003560e01c80630c857046146200006357806341c76781146200009957806361d027b314620000b95780637acc0b2014620000db578063a8b00fd41462000111575b600080fd5b6200008160048036038101906200007b9190620005cb565b62000147565b60405162000090919062000684565b60405180910390f35b620000b76004803603810190620000b19190620006a1565b62000263565b005b620000c3620003de565b604051620000d2919062000768565b60405180910390f35b620000f96004803603810190620000f3919062000785565b62000402565b604051620001089190620007f0565b60405180910390f35b6200012f600480360381019062000129919062000785565b62000442565b6040516200013e919062000832565b60405180910390f35b6000808760008054906101000a900473ffffffffffffffffffffffffffffffffffffffff1688888888886040516200017f9062000482565b62000191979695949392919062000893565b604051809103906000f080158015620001ae573d6000803e3d6000fd5b5090506001819080600181540180825580915050600190039060005260206000200160009091909190916101000a81548173ffffffffffffffffffffffffffffffffffffffff021916908373ffffffffffffffffffffffffffffffffffffffff160217905550868173ffffffffffffffffffffffffffffffffffffffff167f7664491d83819833194b4d068903b38ee5368a7df5ad35874c604f85ac39c10660405160405180910390a3509695505050505050565b6000604051620002739062000490565b604051809103906000f08015801562000290573d6000803e3d6000fd5b5090506002819080600181540180825580915050600190039060005260206000200160009091909190916101000a81548173ffffffffffffffffffffffffffffffffffffffff021916908373ffffffffffffffffffffffffffffffffffffffff1602179055508073ffffffffffffffffffffffffffffffffffffffff1663adbaa7988585853073ffffffffffffffffffffffffffffffffffffffff16630c8570466040518663ffffffff1660e01b81526004016200035395949392919062000984565b600060405180830381600087803b1580156200036e57600080fd5b505af115801562000383573d6000803e3d6000fd5b50505050828473ffffffffffffffffffffffffffffffffffffffff167f9652ad3d28c7e95ce35934b09832520bbcb77ba9aa677f36768bf8420c70b59384604051620003d09190620009d3565b60405180910390a350505050565b60008054906101000a900473ffffffffffffffffffffffffffffffffffffffff1681565b600181815481106200041357600080fd5b906000526020600020016000915054906101000a900473ffffffffffffffffffffffffffffffffffffffff1681565b600281815481106200045357600080fd5b906000526020600020016000915054906101000a900473ffffffffffffffffffffffffffffffffffffffff1681565b61151780620009f183390190565b610a558062001f0883390190565b600080fd5b600073ffffffffffffffffffffffffffffffffffffffff82169050919050565b6000620004d082620004a3565b9050919050565b620004e281620004c3565b8114620004ee57600080fd5b50565b6000813590506200050281620004d7565b92915050565b6000819050919050565b6200051d8162000508565b81146200052957600080fd5b50565b6000813590506200053d8162000512565b92915050565b6000819050919050565b620005588162000543565b81146200056457600080fd5b50565b60008135905062000578816200054d565b92915050565b60006fffffffffffffffffffffffffffffffff82169050919050565b620005a5816200057e565b8114620005b157600080fd5b50565b600081359050620005c5816200059a565b92915050565b60008060008060008060c08789031215620005eb57620005ea6200049e565b5b6000620005fb89828a01620004f1565b96505060206200060e89828a016200052c565b95505060406200062189828a0162000567565b94505060606200063489828a0162000567565b93505060806200064789828a01620005b4565b92505060a06200065a89828a01620005b4565b9150509295509295509295565b60008115159050919050565b6200067e8162000667565b82525050565b60006020820190506200069b600083018462000673565b92915050565b600080600060608486031215620006bd57620006bc6200049e565b5b6000620006cd86828701620004f1565b9350506020620006e0868287016200052c565b9250506040620006f38682870162000567565b9150509250925092565b6000819050919050565b600062000728620007226200071c84620004a3565b620006fd565b620004a3565b9050919050565b60006200073c8262000707565b9050919050565b600062000750826200072f565b9050919050565b620007628162000743565b82525050565b60006020820190506200077f600083018462000757565b92915050565b6000602082840312156200079e576200079d6200049e565b5b6000620007ae8482850162000567565b91505092915050565b6000620007c48262000707565b9050919050565b6000620007d882620007b7565b9050919050565b620007ea81620007cb565b82525050565b6000602082019050620008076000830184620007df565b92915050565b60006200081a82620007b7565b9050919050565b6200082c816200080d565b82525050565b600060208201905062000849600083018462000821565b92915050565b6200085a81620004c3565b82525050565b6200086b8162000508565b82525050565b6200087c8162000543565b82525050565b6200088d816200057e565b82525050565b600060e082019050620008aa600083018a6200084f565b620008b960208301896200084f565b620008c8604083018862000860565b620008d7606083018762000871565b620008e6608083018662000871565b620008f560a083018562000882565b6200090460c083018462000882565b98975050505050505050565b60008160201b9050919050565b60008160401b9050919050565b60006200094963ffffffff8416620009428462000910565b176200091d565b905092915050565b6000808291508390509250929050565b6200096d828262000951565b925090506200097d82826200092a565b8352505050565b60006080820190506200099b60008301886200084f565b620009aa602083018762000860565b620009b9604083018662000871565b620009c960608301848662000961565b9695505050505050565b6000602082019050620009ea600083018462000871565b9291505056fe60806040523480156200001157600080fd5b5060405162001517380380620015178339818101604052810190620000379190620002e5565b86600160006101000a81548173ffffffffffffffffffffffffffffffffffffffff021916908373ffffffffffffffffffffffffffffffffffffffff16021790555085600260006101000a81548173ffffffffffffffffffffffffffffffffffffffff021916908373ffffffffffffffffffffffffffffffffffffffff16021790555060006040518060a00160405280878152602001868152602001858152602001846fffffffffffffffffffffffffffffffff168152602001836fffffffffffffffffffffffffffffffff16815250905080600360008201518160000155602082015181600101556040820151816002015560608201518160030160006101000a8154816fffffffffffffffffffffffffffffffff02191690836fffffffffffffffffffffffffffffffff16021790555060808201518160030160106101000a8154816fffffffffffffffffffffffffffffffff02191690836fffffffffffffffffffffffffffffffff160217905550905050505050505050505062000398565b600080fd5b600073ffffffffffffffffffffffffffffffffffffffff82169050919050565b6000620001ea82620001bd565b9050919050565b620001fc81620001dd565b81146200020857600080fd5b50565b6000815190506200021c81620001f1565b92915050565b6000819050919050565b620002378162000222565b81146200024357600080fd5b50565b60008151905062000257816200022c565b92915050565b6000819050919050565b62000272816200025d565b81146200027e57600080fd5b50565b600081519050620002928162000267565b92915050565b60006fffffffffffffffffffffffffffffffff82169050919050565b620002bf8162000298565b8114620002cb57600080fd5b50565b600081519050620002df81620002b4565b92915050565b600080600080600080600060e0888a031215620003075762000306620001b8565b5b6000620003178a828b016200020b565b97505060206200032a8a828b016200020b565b96505060406200033d8a828b0162000246565b9550506060620003508a828b0162000281565b9450506080620003638a828b0162000281565b93505060a0620003768a828b01620002ce565b92505060c0620003898a828b01620002ce565b91505092959891949750929550565b61116f80620003a86000396000f3fe6080604052600436106100915760003560e01c8063845c930611610059578063845c9306146101495780638da5cb5b14610165578063b47b4d9614610190578063c658f6e8146101bb578063dab713c0146101f857610091565b80631dd17f83146100965780633309d0a3146100d35780633645c484146100ff5780633f00c7851461011b5780634afd131b14610132575b600080fd5b3480156100a257600080fd5b506100bd60048036038101906100b89190610d80565b610227565b6040516100ca9190610dd9565b60405180910390f35b3480156100df57600080fd5b506100e861024c565b6040516100f6929190610df4565b60405180910390f35b61011960048036038101906101149190610e1d565b61025e565b005b34801561012757600080fd5b5061013061052a565b005b34801561013e57600080fd5b506101476107aa565b005b610163600480360381019061015e9190610e76565b610ae5565b005b34801561017157600080fd5b5061017a610c45565b6040516101879190610eb2565b60405180910390f35b34801561019c57600080fd5b506101a5610c6b565b6040516101b29190610dd9565b60405180910390f35b3480156101c757600080fd5b506101e260048036038101906101dd9190610ecd565b610c71565b6040516101ef9190610dd9565b60405180910390f35b34801561020457600080fd5b5061020d610c89565b60405161021e959493929190610f3e565b60405180910390f35b600a602052816000526040600020602052806000526040600020600091509150505481565b60078060000154908060010154905082565b6000600960003373ffffffffffffffffffffffffffffffffffffffff1673ffffffffffffffffffffffffffffffffffffffff168152602001908152602001600020549050621275006003800160109054906101000a90046fffffffffffffffffffffffffffffffff166fffffffffffffffffffffffffffffffff166102e39190610fc0565b42101561031c576040517f3e17a81800000000000000000000000000000000000000000000000000000000815260040160405180910390fd5b6001811015610357576040517f986bf73d00000000000000000000000000000000000000000000000000000000815260040160405180910390fd5b81156104235780600760010160008282546103729190610fc0565b9250508190555080600a60003373ffffffffffffffffffffffffffffffffffffffff1673ffffffffffffffffffffffffffffffffffffffff1681526020019081526020016000206000600115151515815260200190815260200160002060008282546103de9190610fc0565b925050819055507f43395425676ae3dc10ddde602f91f39874649a80b59034529ce5d9e609d6bf683382604051610416929190610ff4565b60405180910390a1610526565b67016345785d8a0000341015610465576040517f54aa2d1700000000000000000000000000000000000000000000000000000000815260040160405180910390fd5b806007600001600082825461047a9190610fc0565b9250508190555080600a60003373ffffffffffffffffffffffffffffffffffffffff1673ffffffffffffffffffffffffffffffffffffffff16815260200190815260200160002060008015151515815260200190815260200160002060008282546104e59190610fc0565b925050819055507f171ae997a165b83aab6e099a17376a0ce3bf2aabd2aef62c3258e7425c427889338260405161051d929190610ff4565b60405180910390a15b5050565b62127500806003800160109054906101000a90046fffffffffffffffffffffffffffffffff166fffffffffffffffffffffffffffffffff1661056c9190610fc0565b6105769190610fc0565b4210156105af576040517f181e3f9b00000000000000000000000000000000000000000000000000000000815260040160405180910390fd5b60006007600101546007600001546105c79190610fc0565b9050610bb8816127106007600001546105e0919061101d565b6105ea919061108e565b1115610622576040517fd558872200000000000000000000000000000000000000000000000000000000815260040160405180910390fd5b600060076001015461271067016345785d8a0000600760000154610646919061101d565b610650919061101d565b61065a919061108e565b905060003373ffffffffffffffffffffffffffffffffffffffff16612710600a60003373ffffffffffffffffffffffffffffffffffffffff1673ffffffffffffffffffffffffffffffffffffffff1681526020019081526020016000206000600115151515815260200190815260200160002054846106d9919061101d565b6106e3919061108e565b6040516106ef906110f0565b60006040518083038185875af1925050503d806000811461072c576040519150601f19603f3d011682016040523d82523d6000602084013e610731565b606091505b505090508061076c576040517f750b219c00000000000000000000000000000000000000000000000000000000815260040160405180910390fd5b7f70ddb85706adfb5d63aea6bb3315f9ee6cf0c5b4ac2b7f7cb63ef0a8159d5f5a338360405161079d929190610ff4565b60405180910390a1505050565b600160009054906101000a900473ffffffffffffffffffffffffffffffffffffffff1673ffffffffffffffffffffffffffffffffffffffff163373ffffffffffffffffffffffffffffffffffffffff1614610831576040517fc28122b500000000000000000000000000000000000000000000000000000000815260040160405180910390fd5b62127500806003800160109054906101000a90046fffffffffffffffffffffffffffffffff166fffffffffffffffffffffffffffffffff166108739190610fc0565b61087d9190610fc0565b4210156108b6576040517f181e3f9b00000000000000000000000000000000000000000000000000000000815260040160405180910390fd5b60006007600101546007600001546108ce9190610fc0565b9050610bb8816127106007600001546108e7919061101d565b6108f1919061108e565b1115610929576040517fd558872200000000000000000000000000000000000000000000000000000000815260040160405180910390fd5b600060036002015460005461093e919061101d565b905060006127106101f483610953919061101d565b61095d919061108e565b905060003373ffffffffffffffffffffffffffffffffffffffff1682846109849190611105565b604051610990906110f0565b60006040518083038185875af1925050503d80600081146109cd576040519150601f19603f3d011682016040523d82523d6000602084013e6109d2565b606091505b50509050600260009054906101000a900473ffffffffffffffffffffffffffffffffffffffff1673ffffffffffffffffffffffffffffffffffffffff1682604051610a1c906110f0565b60006040518083038185875af1925050503d8060008114610a59576040519150601f19603f3d011682016040523d82523d6000602084013e610a5e565b606091505b50508091505080610a9b576040517f750b219c00000000000000000000000000000000000000000000000000000000815260040160405180910390fd5b7f076597fbe0f8c84143006de050fee841f9ebfa953f9b5ec5e1d9c77695970165338385610ac99190611105565b604051610ad7929190610ff4565b60405180910390a150505050565b6003800160109054906101000a90046fffffffffffffffffffffffffffffffff166fffffffffffffffffffffffffffffffff16421115610b51576040517f68cc377500000000000000000000000000000000000000000000000000000000815260040160405180910390fd5b60036002015481610b62919061101d565b341015610b9b576040517f14640f7700000000000000000000000000000000000000000000000000000000815260040160405180910390fd5b80600080828254610bac9190610fc0565b9250508190555080600960003373ffffffffffffffffffffffffffffffffffffffff1673ffffffffffffffffffffffffffffffffffffffff1681526020019081526020016000206000828254610c029190610fc0565b925050819055507f2409f285876e7ea1acb9fd55b670d4665a7506dbeadf4cb7f751552ecdb2d8693382604051610c3a929190610ff4565b60405180910390a150565b600160009054906101000a900473ffffffffffffffffffffffffffffffffffffffff1681565b60005481565b60096020528060005260406000206000915090505481565b60038060000154908060010154908060020154908060030160009054906101000a90046fffffffffffffffffffffffffffffffff16908060030160109054906101000a90046fffffffffffffffffffffffffffffffff16905085565b600080fd5b600073ffffffffffffffffffffffffffffffffffffffff82169050919050565b6000610d1582610cea565b9050919050565b610d2581610d0a565b8114610d3057600080fd5b50565b600081359050610d4281610d1c565b92915050565b60008115159050919050565b610d5d81610d48565b8114610d6857600080fd5b50565b600081359050610d7a81610d54565b92915050565b60008060408385031215610d9757610d96610ce5565b5b6000610da585828601610d33565b9250506020610db685828601610d6b565b9150509250929050565b6000819050919050565b610dd381610dc0565b82525050565b6000602082019050610dee6000830184610dca565b92915050565b6000604082019050610e096000830185610dca565b610e166020830184610dca565b9392505050565b600060208284031215610e3357610e32610ce5565b5b6000610e4184828501610d6b565b91505092915050565b610e5381610dc0565b8114610e5e57600080fd5b50565b600081359050610e7081610e4a565b92915050565b600060208284031215610e8c57610e8b610ce5565b5b6000610e9a84828501610e61565b91505092915050565b610eac81610d0a565b82525050565b6000602082019050610ec76000830184610ea3565b92915050565b600060208284031215610ee357610ee2610ce5565b5b6000610ef184828501610d33565b91505092915050565b6000819050919050565b610f0d81610efa565b82525050565b60006fffffffffffffffffffffffffffffffff82169050919050565b610f3881610f13565b82525050565b600060a082019050610f536000830188610f04565b610f606020830187610dca565b610f6d6040830186610dca565b610f7a6060830185610f2f565b610f876080830184610f2f565b9695505050505050565b7f4e487b7100000000000000000000000000000000000000000000000000000000600052601160045260246000fd5b6000610fcb82610dc0565b9150610fd683610dc0565b9250828201905080821115610fee57610fed610f91565b5b92915050565b60006040820190506110096000830185610ea3565b6110166020830184610dca565b9392505050565b600061102882610dc0565b915061103383610dc0565b925082820261104181610dc0565b9150828204841483151761105857611057610f91565b5b5092915050565b7f4e487b7100000000000000000000000000000000000000000000000000000000600052601260045260246000fd5b600061109982610dc0565b91506110a483610dc0565b9250826110b4576110b361105f565b5b828204905092915050565b600081905092915050565b50565b60006110da6000836110bf565b91506110e5826110ca565b600082019050919050565b60006110fb826110cd565b9150819050919050565b600061111082610dc0565b915061111b83610dc0565b925082820390508181111561113357611132610f91565b5b9291505056fea26469706673582212209fb420b433b5e87f4681681fc7731d81b8adba2129b9e4fc780e16c0357fd5c264736f6c63430008110033608060405234801561001057600080fd5b50610a35806100206000396000f3fe608060405234801561001057600080fd5b50600436106100575760003560e01c806314ae2ed71461005c578063338cdca114610078578063524b87bd1461009b578063adbaa798146100b9578063c3a4343c146100d5575b600080fd5b61007660048036038101906100719190610585565b6100df565b005b6100806102c0565b604051610092969594939291906106ad565b60405180910390f35b6100a3610330565b6040516100b09190610702565b60405180910390f35b6100d360048036038101906100ce9190610840565b61033c565b005b6100dd61045f565b005b6000800160009054906101000a900473ffffffffffffffffffffffffffffffffffffffff1673ffffffffffffffffffffffffffffffffffffffff163373ffffffffffffffffffffffffffffffffffffffff1614610168576040517f407b35b300000000000000000000000000000000000000000000000000000000815260040160405180910390fd5b600060030160009054906101000a90048060201c73ffffffffffffffffffffffffffffffffffffffff169063ffffffff166000800160009054906101000a900473ffffffffffffffffffffffffffffffffffffffff166000600101548660006002015487876040518763ffffffff1660e01b81526004016101ee969594939291906108bb565b6020604051808303816000875af115801561020d573d6000803e3d6000fd5b505050506040513d601f19601f820116820180604052508101906102319190610954565b50816fffffffffffffffffffffffffffffffff166000800160009054906101000a900473ffffffffffffffffffffffffffffffffffffffff1673ffffffffffffffffffffffffffffffffffffffff167eeb006ed328f171664ee7f0750c590b90a6f873f69a754078b7324c9fa9cc646000600101546040516102b39190610981565b60405180910390a3505050565b60008060000160009054906101000a900473ffffffffffffffffffffffffffffffffffffffff16908060010154908060020154908060030160009054906101000a90048060201c73ffffffffffffffffffffffffffffffffffffffff169063ffffffff1690918060040154905086565b60008060040154905090565b6040518060a001604052808673ffffffffffffffffffffffffffffffffffffffff168152602001858152602001848152602001838363ffffffff169060201b1760401b815260200160008152506000808201518160000160006101000a81548173ffffffffffffffffffffffffffffffffffffffff021916908373ffffffffffffffffffffffffffffffffffffffff160217905550602082015181600101556040820151816002015560608201518060601c9060401c63ffffffff168260030160006101000a81548177ffffffffffffffffffffffffffffffffffffffffffffffff02191690848463ffffffff169073ffffffffffffffffffffffffffffffffffffffff1660201b17021790555050608082015181600401559050505050505050565b600560003373ffffffffffffffffffffffffffffffffffffffff1673ffffffffffffffffffffffffffffffffffffffff16815260200190815260200160002060009054906101000a900460ff16156104e3576040517f3a7dab6500000000000000000000000000000000000000000000000000000000815260040160405180910390fd5b6001600060040160008282546104f991906109cb565b92505081905550565b600080fd5b6000819050919050565b61051a81610507565b811461052557600080fd5b50565b60008135905061053781610511565b92915050565b60006fffffffffffffffffffffffffffffffff82169050919050565b6105628161053d565b811461056d57600080fd5b50565b60008135905061057f81610559565b92915050565b60008060006060848603121561059e5761059d610502565b5b60006105ac86828701610528565b93505060206105bd86828701610570565b92505060406105ce86828701610570565b9150509250925092565b600073ffffffffffffffffffffffffffffffffffffffff82169050919050565b6000610603826105d8565b9050919050565b610613816105f8565b82525050565b6000819050919050565b61062c81610619565b82525050565b61063b81610507565b82525050565b60008160201b9050919050565b60008160401b9050919050565b600061067663ffffffff841661067084610641565b1761064e565b905092915050565b6000808291508390509250929050565b610698828261067e565b925090506106a6828261065b565b8352505050565b600060a0820190506106c2600083018961060a565b6106cf6020830188610623565b6106dc6040830187610632565b6106ea60608301858761068e565b6106f76080830184610632565b979650505050505050565b60006020820190506107176000830184610632565b92915050565b610726816105f8565b811461073157600080fd5b50565b6000813590506107438161071d565b92915050565b61075281610619565b811461075d57600080fd5b50565b60008135905061076f81610749565b92915050565b60007fffffffffffffffffffffffffffffffffffffffffffffffff000000000000000082169050919050565b60006107ac82610775565b9050919050565b6107bc816107a1565b81146107c757600080fd5b50565b6000813590506107d9816107b3565b92915050565b60008160201c9050919050565b60008160401c9050919050565b600080610805836107ec565b925063ffffffff83169050610819836107df565b9150915091565b60008061083561083085856107ca565b6107f9565b915091509250929050565b60008060008060006080868803121561085c5761085b610502565b5b600061086a88828901610734565b955050602061087b88828901610760565b945050604061088c88828901610528565b935050606061089d88828901610820565b92509250509295509295909350565b6108b58161053d565b82525050565b600060c0820190506108d0600083018961060a565b6108dd6020830188610623565b6108ea6040830187610632565b6108f76060830186610632565b61090460808301856108ac565b61091160a08301846108ac565b979650505050505050565b60008115159050919050565b6109318161091c565b811461093c57600080fd5b50565b60008151905061094e81610928565b92915050565b60006020828403121561096a57610969610502565b5b60006109788482850161093f565b91505092915050565b60006020820190506109966000830184610623565b92915050565b7f4e487b7100000000000000000000000000000000000000000000000000000000600052601160045260246000fd5b60006109d682610507565b91506109e183610507565b92508282019050808211156109f9576109f861099c565b5b9291505056fea2646970667358221220e71318eb328931bbbe727082c7f887616e73fefc63527d37de147bc545b38ee464736f6c63430008110033a2646970667358221220d19e1c610f148d7be73cc9c6e7bc1367254c713121cc06223bef92ed48b0ced764736f6c63430008110033608060405234801561001057600080fd5b50336000806101000a81548173ffffffffffffffffffffffffffffffffffffffff021916908373ffffffffffffffffffffffffffffffffffffffff160217905550610262806100606000396000f3fe6080604052600436106100225760003560e01c8063ec3889b51461002e57610029565b3661002957005b600080fd5b34801561003a57600080fd5b50610055600480360381019061005091906101b9565b610057565b005b60008054906101000a900473ffffffffffffffffffffffffffffffffffffffff1673ffffffffffffffffffffffffffffffffffffffff163373ffffffffffffffffffffffffffffffffffffffff16146100dc576040517f36b6b89500000000000000000000000000000000000000000000000000000000815260040160405180910390fd5b60008173ffffffffffffffffffffffffffffffffffffffff164760405161010290610217565b60006040518083038185875af1925050503d806000811461013f576040519150601f19603f3d011682016040523d82523d6000602084013e610144565b606091505b505090508061015257600080fd5b5050565b600080fd5b600073ffffffffffffffffffffffffffffffffffffffff82169050919050565b60006101868261015b565b9050919050565b6101968161017b565b81146101a157600080fd5b50565b6000813590506101b38161018d565b92915050565b6000602082840312156101cf576101ce610156565b5b60006101dd848285016101a4565b91505092915050565b600081905092915050565b50565b60006102016000836101e6565b915061020c826101f1565b600082019050919050565b6000610222826101f4565b915081905091905056fea2646970667358221220f7fc168b08fcc54f164d92ff3e3fcab99b0b01519c07bb0c226c06688210743464736f6c63430008110033",
  "linkReferences": {},
  "deployedLinkReferences": {}
}