{
  "_format": "hh-sol-artifact-1",
  "contractName": "ProductFactory",
  "sourceName": "contracts/ProductFactory.sol",
  "abi": [
    {
      "inputs": [],
      "stateMutability": "nonpayable",
      "type": "constructor"
    },
    {
      "anonymous": false,
      "inputs": [
        {
          "indexed": true,
          "internalType": "address",
          "name": "company",
          "type": "address"
        },
        {
          "indexed": true,
          "internalType": "bytes32",
          "name": "productName",
          "type": "bytes32"
        },
        {
          "indexed": false,
          "internalType": "uint256",
          "name": "queryPrice",
          "type": "uint256"
        }
      ],
      "name": "NewPreProductRequested",
      "type": "event"
    },
    {
      "anonymous": false,
      "inputs": [
        {
          "indexed": true,
          "internalType": "address",
          "name": "company",
          "type": "address"
        },
        {
          "indexed": false,
          "internalType": "uint256",
          "name": "price",
          "type": "uint256"
        },
        {
          "indexed": true,
          "internalType": "bytes32",
          "name": "name",
          "type": "bytes32"
        }
      ],
      "name": "NewProductCreated",
      "type": "event"
    },
    {
      "inputs": [
        {
          "internalType": "address",
          "name": "company",
          "type": "address"
        },
        {
          "internalType": "bytes32",
          "name": "_name",
          "type": "bytes32"
        },
        {
          "internalType": "uint256",
          "name": "_marketPrice",
          "type": "uint256"
        },
        {
          "internalType": "uint256",
          "name": "_discountedPrice",
          "type": "uint256"
        },
        {
          "internalType": "uint128",
          "name": "_quantityTreshold",
          "type": "uint128"
        },
        {
          "internalType": "uint128",
          "name": "_endDate",
          "type": "uint128"
        }
      ],
      "name": "createProduct",
      "outputs": [
        {
          "internalType": "bool",
          "name": "productCreated",
          "type": "bool"
        }
      ],
      "stateMutability": "nonpayable",
      "type": "function"
    },
    {
      "inputs": [],
      "name": "dealChainSoul",
      "outputs": [
        {
          "internalType": "contract DealChainSoul",
          "name": "",
          "type": "address"
        }
      ],
      "stateMutability": "view",
      "type": "function"
    },
    {
      "inputs": [
        {
          "internalType": "uint256",
          "name": "",
          "type": "uint256"
        }
      ],
      "name": "preProducts",
      "outputs": [
        {
          "internalType": "contract PreProduct",
          "name": "",
          "type": "address"
        }
      ],
      "stateMutability": "view",
      "type": "function"
    },
    {
      "inputs": [
        {
          "internalType": "uint256",
          "name": "",
          "type": "uint256"
        }
      ],
      "name": "products",
      "outputs": [
        {
          "internalType": "contract Product",
          "name": "",
          "type": "address"
        }
      ],
      "stateMutability": "view",
      "type": "function"
    },
    {
      "inputs": [
        {
          "internalType": "address",
          "name": "_company",
          "type": "address"
        },
        {
          "internalType": "bytes32",
          "name": "_name",
          "type": "bytes32"
        },
        {
          "internalType": "uint256",
          "name": "_queryPrice",
          "type": "uint256"
        }
      ],
      "name": "requestCreateProduct",
      "outputs": [],
      "stateMutability": "nonpayable",
      "type": "function"
    },
    {
      "inputs": [],
      "name": "treasury",
      "outputs": [
        {
          "internalType": "contract Treasury",
          "name": "",
          "type": "address"
        }
      ],
      "stateMutability": "view",
      "type": "function"
    }
  ],
  "bytecode": "0x608060405234801561001057600080fd5b5060405161001d906100e7565b604051809103906000f080158015610039573d6000803e3d6000fd5b506000806101000a81548173ffffffffffffffffffffffffffffffffffffffff021916908373ffffffffffffffffffffffffffffffffffffffff160217905550604051610085906100f4565b604051809103906000f0801580156100a1573d6000803e3d6000fd5b50600160006101000a81548173ffffffffffffffffffffffffffffffffffffffff021916908373ffffffffffffffffffffffffffffffffffffffff160217905550610101565b6102c280612e1283390190565b613469806130d483390190565b612d02806101106000396000f3fe60806040523480156200001157600080fd5b50600436106200006a5760003560e01c80630c857046146200006f57806341c7678114620000a557806361d027b314620000c55780637acc0b2014620000e7578063a8b00fd4146200011d578063d424136f1462000153575b600080fd5b6200008d600480360381019062000087919062000650565b62000175565b6040516200009c919062000709565b60405180910390f35b620000c36004803603810190620000bd919062000726565b620002c2565b005b620000cf6200043d565b604051620000de9190620007ed565b60405180910390f35b620001056004803603810190620000ff91906200080a565b62000461565b60405162000114919062000875565b60405180910390f35b6200013b60048036038101906200013591906200080a565b620004a1565b6040516200014a9190620008b7565b60405180910390f35b6200015d620004e1565b6040516200016c9190620008f9565b60405180910390f35b6000808760008054906101000a900473ffffffffffffffffffffffffffffffffffffffff16600160009054906101000a900473ffffffffffffffffffffffffffffffffffffffff168989898989604051620001d09062000507565b620001e39897969594939291906200095a565b604051809103906000f08015801562000200573d6000803e3d6000fd5b5090506002819080600181540180825580915050600190039060005260206000200160009091909190916101000a81548173ffffffffffffffffffffffffffffffffffffffff021916908373ffffffffffffffffffffffffffffffffffffffff160217905550868873ffffffffffffffffffffffffffffffffffffffff167f701ac3c91e58a8899ca03c21eb2109b907b2da137e26f46d75b0224b1673a83287604051620002af9190620009e8565b60405180910390a3509695505050505050565b6000604051620002d29062000515565b604051809103906000f080158015620002ef573d6000803e3d6000fd5b5090506003819080600181540180825580915050600190039060005260206000200160009091909190916101000a81548173ffffffffffffffffffffffffffffffffffffffff021916908373ffffffffffffffffffffffffffffffffffffffff1602179055508073ffffffffffffffffffffffffffffffffffffffff1663adbaa7988585853073ffffffffffffffffffffffffffffffffffffffff16630c8570466040518663ffffffff1660e01b8152600401620003b295949392919062000a79565b600060405180830381600087803b158015620003cd57600080fd5b505af1158015620003e2573d6000803e3d6000fd5b50505050828473ffffffffffffffffffffffffffffffffffffffff167f9652ad3d28c7e95ce35934b09832520bbcb77ba9aa677f36768bf8420c70b593846040516200042f9190620009e8565b60405180910390a350505050565b60008054906101000a900473ffffffffffffffffffffffffffffffffffffffff1681565b600281815481106200047257600080fd5b906000526020600020016000915054906101000a900473ffffffffffffffffffffffffffffffffffffffff1681565b60038181548110620004b257600080fd5b906000526020600020016000915054906101000a900473ffffffffffffffffffffffffffffffffffffffff1681565b600160009054906101000a900473ffffffffffffffffffffffffffffffffffffffff1681565b6117518062000ac983390190565b610ab3806200221a83390190565b600080fd5b600073ffffffffffffffffffffffffffffffffffffffff82169050919050565b6000620005558262000528565b9050919050565b620005678162000548565b81146200057357600080fd5b50565b60008135905062000587816200055c565b92915050565b6000819050919050565b620005a2816200058d565b8114620005ae57600080fd5b50565b600081359050620005c28162000597565b92915050565b6000819050919050565b620005dd81620005c8565b8114620005e957600080fd5b50565b600081359050620005fd81620005d2565b92915050565b60006fffffffffffffffffffffffffffffffff82169050919050565b6200062a8162000603565b81146200063657600080fd5b50565b6000813590506200064a816200061f565b92915050565b60008060008060008060c0878903121562000670576200066f62000523565b5b60006200068089828a0162000576565b96505060206200069389828a01620005b1565b9550506040620006a689828a01620005ec565b9450506060620006b989828a01620005ec565b9350506080620006cc89828a0162000639565b92505060a0620006df89828a0162000639565b9150509295509295509295565b60008115159050919050565b6200070381620006ec565b82525050565b6000602082019050620007206000830184620006f8565b92915050565b60008060006060848603121562000742576200074162000523565b5b6000620007528682870162000576565b93505060206200076586828701620005b1565b92505060406200077886828701620005ec565b9150509250925092565b6000819050919050565b6000620007ad620007a7620007a18462000528565b62000782565b62000528565b9050919050565b6000620007c1826200078c565b9050919050565b6000620007d582620007b4565b9050919050565b620007e781620007c8565b82525050565b6000602082019050620008046000830184620007dc565b92915050565b60006020828403121562000823576200082262000523565b5b60006200083384828501620005ec565b91505092915050565b600062000849826200078c565b9050919050565b60006200085d826200083c565b9050919050565b6200086f8162000850565b82525050565b60006020820190506200088c600083018462000864565b92915050565b60006200089f826200083c565b9050919050565b620008b18162000892565b82525050565b6000602082019050620008ce6000830184620008a6565b92915050565b6000620008e1826200083c565b9050919050565b620008f381620008d4565b82525050565b6000602082019050620009106000830184620008e8565b92915050565b620009218162000548565b82525050565b62000932816200058d565b82525050565b6200094381620005c8565b82525050565b620009548162000603565b82525050565b60006101008201905062000972600083018b62000916565b62000981602083018a62000916565b62000990604083018962000916565b6200099f606083018862000927565b620009ae608083018762000938565b620009bd60a083018662000938565b620009cc60c083018562000949565b620009db60e083018462000949565b9998505050505050505050565b6000602082019050620009ff600083018462000938565b92915050565b60008160201b9050919050565b60008160401b9050919050565b600062000a3e63ffffffff841662000a378462000a05565b1762000a12565b905092915050565b6000808291508390509250929050565b62000a62828262000a46565b9250905062000a72828262000a1f565b8352505050565b600060808201905062000a90600083018862000916565b62000a9f602083018762000927565b62000aae604083018662000938565b62000abe60608301848662000a56565b969550505050505056fe60806040523480156200001157600080fd5b506040516200175138038062001751833981810160405281019062000037919062000327565b87600160006101000a81548173ffffffffffffffffffffffffffffffffffffffff021916908373ffffffffffffffffffffffffffffffffffffffff16021790555086600260006101000a81548173ffffffffffffffffffffffffffffffffffffffff021916908373ffffffffffffffffffffffffffffffffffffffff16021790555085600460006101000a81548173ffffffffffffffffffffffffffffffffffffffff021916908373ffffffffffffffffffffffffffffffffffffffff16021790555060006040518060a00160405280878152602001868152602001858152602001846fffffffffffffffffffffffffffffffff168152602001836fffffffffffffffffffffffffffffffff16815250905080600560008201518160000155602082015181600101556040820151816002015560608201518160030160006101000a8154816fffffffffffffffffffffffffffffffff02191690836fffffffffffffffffffffffffffffffff16021790555060808201518160030160106101000a8154816fffffffffffffffffffffffffffffffff02191690836fffffffffffffffffffffffffffffffff160217905550905050505050505050505050620003f0565b600080fd5b600073ffffffffffffffffffffffffffffffffffffffff82169050919050565b60006200022c82620001ff565b9050919050565b6200023e816200021f565b81146200024a57600080fd5b50565b6000815190506200025e8162000233565b92915050565b6000819050919050565b620002798162000264565b81146200028557600080fd5b50565b60008151905062000299816200026e565b92915050565b6000819050919050565b620002b4816200029f565b8114620002c057600080fd5b50565b600081519050620002d481620002a9565b92915050565b60006fffffffffffffffffffffffffffffffff82169050919050565b6200030181620002da565b81146200030d57600080fd5b50565b6000815190506200032181620002f6565b92915050565b600080600080600080600080610100898b0312156200034b576200034a620001fa565b5b60006200035b8b828c016200024d565b98505060206200036e8b828c016200024d565b9750506040620003818b828c016200024d565b9650506060620003948b828c0162000288565b9550506080620003a78b828c01620002c3565b94505060a0620003ba8b828c01620002c3565b93505060c0620003cd8b828c0162000310565b92505060e0620003e08b828c0162000310565b9150509295985092959890939650565b61135180620004006000396000f3fe6080604052600436106100915760003560e01c8063845c930611610059578063845c9306146101495780638da5cb5b14610165578063b47b4d9614610190578063c658f6e8146101bb578063dab713c0146101f857610091565b80631dd17f83146100965780633309d0a3146100d35780633645c484146100ff5780633f00c7851461011b5780634afd131b14610132575b600080fd5b3480156100a257600080fd5b506100bd60048036038101906100b89190610ede565b610227565b6040516100ca9190610f37565b60405180910390f35b3480156100df57600080fd5b506100e861024c565b6040516100f6929190610f52565b60405180910390f35b61011960048036038101906101149190610f7b565b61025e565b005b34801561012757600080fd5b5061013061053b565b005b34801561013e57600080fd5b506101476107bc565b005b610163600480360381019061015e9190610fd4565b610af8565b005b34801561017157600080fd5b5061017a610c61565b6040516101879190611010565b60405180910390f35b34801561019c57600080fd5b506101a5610c87565b6040516101b29190610f37565b60405180910390f35b3480156101c757600080fd5b506101e260048036038101906101dd919061102b565b610c8d565b6040516101ef9190610f37565b60405180910390f35b34801561020457600080fd5b5061020d610ca5565b60405161021e95949392919061109c565b60405180910390f35b600c602052816000526040600020602052806000526040600020600091509150505481565b60098060000154908060010154905082565b6000600b60003373ffffffffffffffffffffffffffffffffffffffff1673ffffffffffffffffffffffffffffffffffffffff16815260200190815260200160002054905062127500600560030160109054906101000a90046fffffffffffffffffffffffffffffffff166fffffffffffffffffffffffffffffffff166102e4919061111e565b42101561031d576040517f3e17a81800000000000000000000000000000000000000000000000000000000815260040160405180910390fd5b6001811015610358576040517f986bf73d00000000000000000000000000000000000000000000000000000000815260040160405180910390fd5b811561042c578060096001016000828254610373919061111e565b9250508190555080600c60003373ffffffffffffffffffffffffffffffffffffffff1673ffffffffffffffffffffffffffffffffffffffff1681526020019081526020016000206000600115151515815260200190815260200160002060008282546103df919061111e565b925050819055506103ee610d01565b7f43395425676ae3dc10ddde602f91f39874649a80b59034529ce5d9e609d6bf68338260405161041f929190611152565b60405180910390a1610537565b67016345785d8a000034101561046e576040517f54aa2d1700000000000000000000000000000000000000000000000000000000815260040160405180910390fd5b8060096000016000828254610483919061111e565b9250508190555080600c60003373ffffffffffffffffffffffffffffffffffffffff1673ffffffffffffffffffffffffffffffffffffffff16815260200190815260200160002060008015151515815260200190815260200160002060008282546104ee919061111e565b925050819055506104fd610d01565b7f171ae997a165b83aab6e099a17376a0ce3bf2aabd2aef62c3258e7425c427889338260405161052e929190611152565b60405180910390a15b5050565b6212750080600560030160109054906101000a90046fffffffffffffffffffffffffffffffff166fffffffffffffffffffffffffffffffff1661057e919061111e565b610588919061111e565b4210156105c1576040517f181e3f9b00000000000000000000000000000000000000000000000000000000815260040160405180910390fd5b60006009600101546009600001546105d9919061111e565b9050610bb8816127106009600001546105f2919061117b565b6105fc91906111ec565b1115610634576040517fd558872200000000000000000000000000000000000000000000000000000000815260040160405180910390fd5b600060096001015461271067016345785d8a0000600960000154610658919061117b565b610662919061117b565b61066c91906111ec565b905060003373ffffffffffffffffffffffffffffffffffffffff16612710600c60003373ffffffffffffffffffffffffffffffffffffffff1673ffffffffffffffffffffffffffffffffffffffff1681526020019081526020016000206000600115151515815260200190815260200160002054846106eb919061117b565b6106f591906111ec565b6040516107019061124e565b60006040518083038185875af1925050503d806000811461073e576040519150601f19603f3d011682016040523d82523d6000602084013e610743565b606091505b505090508061077e576040517f750b219c00000000000000000000000000000000000000000000000000000000815260040160405180910390fd5b7f70ddb85706adfb5d63aea6bb3315f9ee6cf0c5b4ac2b7f7cb63ef0a8159d5f5a33836040516107af929190611152565b60405180910390a1505050565b600160009054906101000a900473ffffffffffffffffffffffffffffffffffffffff1673ffffffffffffffffffffffffffffffffffffffff163373ffffffffffffffffffffffffffffffffffffffff1614610843576040517fc28122b500000000000000000000000000000000000000000000000000000000815260040160405180910390fd5b6212750080600560030160109054906101000a90046fffffffffffffffffffffffffffffffff166fffffffffffffffffffffffffffffffff16610886919061111e565b610890919061111e565b4210156108c9576040517f181e3f9b00000000000000000000000000000000000000000000000000000000815260040160405180910390fd5b60006009600101546009600001546108e1919061111e565b9050610bb8816127106009600001546108fa919061117b565b61090491906111ec565b111561093c576040517fd558872200000000000000000000000000000000000000000000000000000000815260040160405180910390fd5b6000600560020154600054610951919061117b565b905060006127106101f483610966919061117b565b61097091906111ec565b905060003373ffffffffffffffffffffffffffffffffffffffff1682846109979190611263565b6040516109a39061124e565b60006040518083038185875af1925050503d80600081146109e0576040519150601f19603f3d011682016040523d82523d6000602084013e6109e5565b606091505b50509050600260009054906101000a900473ffffffffffffffffffffffffffffffffffffffff1673ffffffffffffffffffffffffffffffffffffffff1682604051610a2f9061124e565b60006040518083038185875af1925050503d8060008114610a6c576040519150601f19603f3d011682016040523d82523d6000602084013e610a71565b606091505b50508091505080610aae576040517f750b219c00000000000000000000000000000000000000000000000000000000815260040160405180910390fd5b7f076597fbe0f8c84143006de050fee841f9ebfa953f9b5ec5e1d9c77695970165338385610adc9190611263565b604051610aea929190611152565b60405180910390a150505050565b600560030160109054906101000a90046fffffffffffffffffffffffffffffffff166fffffffffffffffffffffffffffffffff16421115610b65576040517f68cc377500000000000000000000000000000000000000000000000000000000815260040160405180910390fd5b60056002015481610b76919061117b565b341015610baf576040517f14640f7700000000000000000000000000000000000000000000000000000000815260040160405180910390fd5b80600080828254610bc0919061111e565b9250508190555080600b60003373ffffffffffffffffffffffffffffffffffffffff1673ffffffffffffffffffffffffffffffffffffffff1681526020019081526020016000206000828254610c16919061111e565b92505081905550610c25610d01565b7f2409f285876e7ea1acb9fd55b670d4665a7506dbeadf4cb7f751552ecdb2d8693382604051610c56929190611152565b60405180910390a150565b600160009054906101000a900473ffffffffffffffffffffffffffffffffffffffff1681565b60005481565b600b6020528060005260406000206000915090505481565b60058060000154908060010154908060020154908060030160009054906101000a90046fffffffffffffffffffffffffffffffff16908060030160109054906101000a90046fffffffffffffffffffffffffffffffff16905085565b6000600460009054906101000a900473ffffffffffffffffffffffffffffffffffffffff1673ffffffffffffffffffffffffffffffffffffffff16638c633afe336040518263ffffffff1660e01b8152600401610d5e9190611010565b602060405180830381865afa158015610d7b573d6000803e3d6000fd5b505050506040513d601f19601f82011682018060405250810190610d9f91906112ac565b9050600460009054906101000a900473ffffffffffffffffffffffffffffffffffffffff1673ffffffffffffffffffffffffffffffffffffffff1663b92d0399826040518263ffffffff1660e01b8152600401610dfc9190610f37565b6020604051808303816000875af1158015610e1b573d6000803e3d6000fd5b505050506040513d601f19601f82011682018060405250810190610e3f91906112ee565b5050565b600080fd5b600073ffffffffffffffffffffffffffffffffffffffff82169050919050565b6000610e7382610e48565b9050919050565b610e8381610e68565b8114610e8e57600080fd5b50565b600081359050610ea081610e7a565b92915050565b60008115159050919050565b610ebb81610ea6565b8114610ec657600080fd5b50565b600081359050610ed881610eb2565b92915050565b60008060408385031215610ef557610ef4610e43565b5b6000610f0385828601610e91565b9250506020610f1485828601610ec9565b9150509250929050565b6000819050919050565b610f3181610f1e565b82525050565b6000602082019050610f4c6000830184610f28565b92915050565b6000604082019050610f676000830185610f28565b610f746020830184610f28565b9392505050565b600060208284031215610f9157610f90610e43565b5b6000610f9f84828501610ec9565b91505092915050565b610fb181610f1e565b8114610fbc57600080fd5b50565b600081359050610fce81610fa8565b92915050565b600060208284031215610fea57610fe9610e43565b5b6000610ff884828501610fbf565b91505092915050565b61100a81610e68565b82525050565b60006020820190506110256000830184611001565b92915050565b60006020828403121561104157611040610e43565b5b600061104f84828501610e91565b91505092915050565b6000819050919050565b61106b81611058565b82525050565b60006fffffffffffffffffffffffffffffffff82169050919050565b61109681611071565b82525050565b600060a0820190506110b16000830188611062565b6110be6020830187610f28565b6110cb6040830186610f28565b6110d8606083018561108d565b6110e5608083018461108d565b9695505050505050565b7f4e487b7100000000000000000000000000000000000000000000000000000000600052601160045260246000fd5b600061112982610f1e565b915061113483610f1e565b925082820190508082111561114c5761114b6110ef565b5b92915050565b60006040820190506111676000830185611001565b6111746020830184610f28565b9392505050565b600061118682610f1e565b915061119183610f1e565b925082820261119f81610f1e565b915082820484148315176111b6576111b56110ef565b5b5092915050565b7f4e487b7100000000000000000000000000000000000000000000000000000000600052601260045260246000fd5b60006111f782610f1e565b915061120283610f1e565b925082611212576112116111bd565b5b828204905092915050565b600081905092915050565b50565b600061123860008361121d565b915061124382611228565b600082019050919050565b60006112598261122b565b9150819050919050565b600061126e82610f1e565b915061127983610f1e565b9250828203905081811115611291576112906110ef565b5b92915050565b6000815190506112a681610fa8565b92915050565b6000602082840312156112c2576112c1610e43565b5b60006112d084828501611297565b91505092915050565b6000815190506112e881610eb2565b92915050565b60006020828403121561130457611303610e43565b5b6000611312848285016112d9565b9150509291505056fea264697066735822122024ad6e70f766667421f385047bc151424c244fe03f5390304ae2fa92fa7e7a0d64736f6c63430008110033608060405234801561001057600080fd5b50610a93806100206000396000f3fe608060405234801561001057600080fd5b50600436106100575760003560e01c806314ae2ed71461005c578063338cdca114610078578063524b87bd1461009b578063adbaa798146100b9578063c3a4343c146100d5575b600080fd5b610076600480360381019061007191906105e3565b6100df565b005b6100806102c0565b6040516100929695949392919061070b565b60405180910390f35b6100a3610330565b6040516100b09190610760565b60405180910390f35b6100d360048036038101906100ce919061089e565b61033c565b005b6100dd61045f565b005b6000800160009054906101000a900473ffffffffffffffffffffffffffffffffffffffff1673ffffffffffffffffffffffffffffffffffffffff163373ffffffffffffffffffffffffffffffffffffffff1614610168576040517f407b35b300000000000000000000000000000000000000000000000000000000815260040160405180910390fd5b600060030160009054906101000a90048060201c73ffffffffffffffffffffffffffffffffffffffff169063ffffffff166000800160009054906101000a900473ffffffffffffffffffffffffffffffffffffffff166000600101548660006002015487876040518763ffffffff1660e01b81526004016101ee96959493929190610919565b6020604051808303816000875af115801561020d573d6000803e3d6000fd5b505050506040513d601f19601f8201168201806040525081019061023191906109b2565b50816fffffffffffffffffffffffffffffffff166000800160009054906101000a900473ffffffffffffffffffffffffffffffffffffffff1673ffffffffffffffffffffffffffffffffffffffff167eeb006ed328f171664ee7f0750c590b90a6f873f69a754078b7324c9fa9cc646000600101546040516102b391906109df565b60405180910390a3505050565b60008060000160009054906101000a900473ffffffffffffffffffffffffffffffffffffffff16908060010154908060020154908060030160009054906101000a90048060201c73ffffffffffffffffffffffffffffffffffffffff169063ffffffff1690918060040154905086565b60008060040154905090565b6040518060a001604052808673ffffffffffffffffffffffffffffffffffffffff168152602001858152602001848152602001838363ffffffff169060201b1760401b815260200160008152506000808201518160000160006101000a81548173ffffffffffffffffffffffffffffffffffffffff021916908373ffffffffffffffffffffffffffffffffffffffff160217905550602082015181600101556040820151816002015560608201518060601c9060401c63ffffffff168260030160006101000a81548177ffffffffffffffffffffffffffffffffffffffffffffffff02191690848463ffffffff169073ffffffffffffffffffffffffffffffffffffffff1660201b17021790555050608082015181600401559050505050505050565b60011515600560003373ffffffffffffffffffffffffffffffffffffffff1673ffffffffffffffffffffffffffffffffffffffff16815260200190815260200160002060009054906101000a900460ff161515036104e9576040517f3a7dab6500000000000000000000000000000000000000000000000000000000815260040160405180910390fd5b6001600560003373ffffffffffffffffffffffffffffffffffffffff1673ffffffffffffffffffffffffffffffffffffffff16815260200190815260200160002060006101000a81548160ff0219169083151502179055506001600060040160008282546105579190610a29565b92505081905550565b600080fd5b6000819050919050565b61057881610565565b811461058357600080fd5b50565b6000813590506105958161056f565b92915050565b60006fffffffffffffffffffffffffffffffff82169050919050565b6105c08161059b565b81146105cb57600080fd5b50565b6000813590506105dd816105b7565b92915050565b6000806000606084860312156105fc576105fb610560565b5b600061060a86828701610586565b935050602061061b868287016105ce565b925050604061062c868287016105ce565b9150509250925092565b600073ffffffffffffffffffffffffffffffffffffffff82169050919050565b600061066182610636565b9050919050565b61067181610656565b82525050565b6000819050919050565b61068a81610677565b82525050565b61069981610565565b82525050565b60008160201b9050919050565b60008160401b9050919050565b60006106d463ffffffff84166106ce8461069f565b176106ac565b905092915050565b6000808291508390509250929050565b6106f682826106dc565b9250905061070482826106b9565b8352505050565b600060a0820190506107206000830189610668565b61072d6020830188610681565b61073a6040830187610690565b6107486060830185876106ec565b6107556080830184610690565b979650505050505050565b60006020820190506107756000830184610690565b92915050565b61078481610656565b811461078f57600080fd5b50565b6000813590506107a18161077b565b92915050565b6107b081610677565b81146107bb57600080fd5b50565b6000813590506107cd816107a7565b92915050565b60007fffffffffffffffffffffffffffffffffffffffffffffffff000000000000000082169050919050565b600061080a826107d3565b9050919050565b61081a816107ff565b811461082557600080fd5b50565b60008135905061083781610811565b92915050565b60008160201c9050919050565b60008160401c9050919050565b6000806108638361084a565b925063ffffffff831690506108778361083d565b9150915091565b60008061089361088e8585610828565b610857565b915091509250929050565b6000806000806000608086880312156108ba576108b9610560565b5b60006108c888828901610792565b95505060206108d9888289016107be565b94505060406108ea88828901610586565b93505060606108fb8882890161087e565b92509250509295509295909350565b6109138161059b565b82525050565b600060c08201905061092e6000830189610668565b61093b6020830188610681565b6109486040830187610690565b6109556060830186610690565b610962608083018561090a565b61096f60a083018461090a565b979650505050505050565b60008115159050919050565b61098f8161097a565b811461099a57600080fd5b50565b6000815190506109ac81610986565b92915050565b6000602082840312156109c8576109c7610560565b5b60006109d68482850161099d565b91505092915050565b60006020820190506109f46000830184610681565b92915050565b7f4e487b7100000000000000000000000000000000000000000000000000000000600052601160045260246000fd5b6000610a3482610565565b9150610a3f83610565565b9250828201905080821115610a5757610a566109fa565b5b9291505056fea2646970667358221220dadc6de31119b46da4d6c32236b98b4af6112cd01039e5b78e14085e3a1cf72564736f6c63430008110033a26469706673582212209ecce83756a2358fca3a80f9f4190cec6d24d7618b0f97908a4b6de2fe57f10264736f6c63430008110033608060405234801561001057600080fd5b50336000806101000a81548173ffffffffffffffffffffffffffffffffffffffff021916908373ffffffffffffffffffffffffffffffffffffffff160217905550610262806100606000396000f3fe6080604052600436106100225760003560e01c8063ec3889b51461002e57610029565b3661002957005b600080fd5b34801561003a57600080fd5b50610055600480360381019061005091906101b9565b610057565b005b60008054906101000a900473ffffffffffffffffffffffffffffffffffffffff1673ffffffffffffffffffffffffffffffffffffffff163373ffffffffffffffffffffffffffffffffffffffff16146100dc576040517f36b6b89500000000000000000000000000000000000000000000000000000000815260040160405180910390fd5b60008173ffffffffffffffffffffffffffffffffffffffff164760405161010290610217565b60006040518083038185875af1925050503d806000811461013f576040519150601f19603f3d011682016040523d82523d6000602084013e610144565b606091505b505090508061015257600080fd5b5050565b600080fd5b600073ffffffffffffffffffffffffffffffffffffffff82169050919050565b60006101868261015b565b9050919050565b6101968161017b565b81146101a157600080fd5b50565b6000813590506101b38161018d565b92915050565b6000602082840312156101cf576101ce610156565b5b60006101dd848285016101a4565b91505092915050565b600081905092915050565b50565b60006102016000836101e6565b915061020c826101f1565b600082019050919050565b6000610222826101f4565b915081905091905056fea2646970667358221220f7fc168b08fcc54f164d92ff3e3fcab99b0b01519c07bb0c226c06688210743464736f6c6343000811003360806040523480156200001157600080fd5b506040518060400160405280600d81526020017f4465616c436861696e536f756c000000000000000000000000000000000000008152506040518060400160405280600381526020017f444353000000000000000000000000000000000000000000000000000000000081525081600090816200008f919062000324565b508060019081620000a1919062000324565b5050506200040b565b600081519050919050565b7f4e487b7100000000000000000000000000000000000000000000000000000000600052604160045260246000fd5b7f4e487b7100000000000000000000000000000000000000000000000000000000600052602260045260246000fd5b600060028204905060018216806200012c57607f821691505b602082108103620001425762000141620000e4565b5b50919050565b60008190508160005260206000209050919050565b60006020601f8301049050919050565b600082821b905092915050565b600060088302620001ac7fffffffffffffffffffffffffffffffffffffffffffffffffffffffffffffffff826200016d565b620001b886836200016d565b95508019841693508086168417925050509392505050565b6000819050919050565b6000819050919050565b600062000205620001ff620001f984620001d0565b620001da565b620001d0565b9050919050565b6000819050919050565b6200022183620001e4565b6200023962000230826200020c565b8484546200017a565b825550505050565b600090565b6200025062000241565b6200025d81848462000216565b505050565b5b8181101562000285576200027960008262000246565b60018101905062000263565b5050565b601f821115620002d4576200029e8162000148565b620002a9846200015d565b81016020851015620002b9578190505b620002d1620002c8856200015d565b83018262000262565b50505b505050565b600082821c905092915050565b6000620002f960001984600802620002d9565b1980831691505092915050565b6000620003148383620002e6565b9150826002028217905092915050565b6200032f82620000aa565b67ffffffffffffffff8111156200034b576200034a620000b5565b5b62000357825462000113565b6200036482828562000289565b600060209050601f8311600181146200039c576000841562000387578287015190505b62000393858262000306565b86555062000403565b601f198416620003ac8662000148565b60005b82811015620003d657848901518255600182019150602085019450602081019050620003af565b86831015620003f65784890151620003f2601f891682620002e6565b8355505b6001600288020188555050505b505050505050565b61304e806200041b6000396000f3fe608060405234801561001057600080fd5b50600436106101165760003560e01c80638c633afe116100a2578063b92d039911610071578063b92d0399146102ef578063bef87e081461031f578063c87b56dd1461034f578063d379dadf1461037f578063e985e9c5146103af57610116565b80638c633afe1461026957806395d89b4114610299578063a22cb465146102b7578063b88d4fde146102d357610116565b806323b872dd116100e957806323b872dd146101b557806342842e0e146101d15780636352211e146101ed57806370a082311461021d5780638aa0fdad1461024d57610116565b806301ffc9a71461011b57806306fdde031461014b578063081812fc14610169578063095ea7b314610199575b600080fd5b61013560048036038101906101309190611d8a565b6103df565b6040516101429190611dd2565b60405180910390f35b6101536104c1565b6040516101609190611e7d565b60405180910390f35b610183600480360381019061017e9190611ed5565b610553565b6040516101909190611f43565b60405180910390f35b6101b360048036038101906101ae9190611f8a565b610599565b005b6101cf60048036038101906101ca9190611fca565b6106b0565b005b6101eb60048036038101906101e69190611fca565b610710565b005b61020760048036038101906102029190611ed5565b610730565b6040516102149190611f43565b60405180910390f35b6102376004803603810190610232919061201d565b6107b6565b6040516102449190612059565b60405180910390f35b610267600480360381019061026291906120d9565b61086d565b005b610283600480360381019061027e919061201d565b6109e7565b6040516102909190612059565b60405180910390f35b6102a16109ff565b6040516102ae9190611e7d565b60405180910390f35b6102d160048036038101906102cc9190612186565b610a91565b005b6102ed60048036038101906102e891906122f6565b610aa7565b005b61030960048036038101906103049190611ed5565b610b09565b6040516103169190611dd2565b60405180910390f35b6103396004803603810190610334919061241a565b610b51565b6040516103469190611dd2565b60405180910390f35b61036960048036038101906103649190611ed5565b610bfd565b6040516103769190611e7d565b60405180910390f35b61039960048036038101906103949190611ed5565b610c65565b6040516103a69190612526565b60405180910390f35b6103c960048036038101906103c49190612548565b610dcf565b6040516103d69190611dd2565b60405180910390f35b60007f80ac58cd000000000000000000000000000000000000000000000000000000007bffffffffffffffffffffffffffffffffffffffffffffffffffffffff1916827bffffffffffffffffffffffffffffffffffffffffffffffffffffffff191614806104aa57507f5b5e139f000000000000000000000000000000000000000000000000000000007bffffffffffffffffffffffffffffffffffffffffffffffffffffffff1916827bffffffffffffffffffffffffffffffffffffffffffffffffffffffff1916145b806104ba57506104b982610e63565b5b9050919050565b6060600080546104d0906125b7565b80601f01602080910402602001604051908101604052809291908181526020018280546104fc906125b7565b80156105495780601f1061051e57610100808354040283529160200191610549565b820191906000526020600020905b81548152906001019060200180831161052c57829003601f168201915b5050505050905090565b600061055e82610ecd565b6004600083815260200190815260200160002060009054906101000a900473ffffffffffffffffffffffffffffffffffffffff169050919050565b60006105a482610730565b90508073ffffffffffffffffffffffffffffffffffffffff168373ffffffffffffffffffffffffffffffffffffffff1603610614576040517f08c379a000000000000000000000000000000000000000000000000000000000815260040161060b9061265a565b60405180910390fd5b8073ffffffffffffffffffffffffffffffffffffffff16610633610f18565b73ffffffffffffffffffffffffffffffffffffffff16148061066257506106618161065c610f18565b610dcf565b5b6106a1576040517f08c379a0000000000000000000000000000000000000000000000000000000008152600401610698906126ec565b60405180910390fd5b6106ab8383610f20565b505050565b6106c16106bb610f18565b82610fd9565b610700576040517f08c379a00000000000000000000000000000000000000000000000000000000081526004016106f79061277e565b60405180910390fd5b61070b83838361106e565b505050565b61072b83838360405180602001604052806000815250610aa7565b505050565b60008061073c83611367565b9050600073ffffffffffffffffffffffffffffffffffffffff168173ffffffffffffffffffffffffffffffffffffffff16036107ad576040517f08c379a00000000000000000000000000000000000000000000000000000000081526004016107a4906127ea565b60405180910390fd5b80915050919050565b60008073ffffffffffffffffffffffffffffffffffffffff168273ffffffffffffffffffffffffffffffffffffffff1603610826576040517f08c379a000000000000000000000000000000000000000000000000000000000815260040161081d9061287c565b60405180910390fd5b600360008373ffffffffffffffffffffffffffffffffffffffff1673ffffffffffffffffffffffffffffffffffffffff168152602001908152602001600020549050919050565b600061087960066113a4565b90506000604051806060016040528087878080601f016020809104026020016040519081016040528093929190818152602001838380828437600081840152601f19601f82011690508083019250505050505050815260200185858080601f016020809104026020016040519081016040528093929190818152602001838380828437600081840152601f19601f82011690508083019250505050505050815260200160008152509050600881908060018154018082558091505060019003906000526020600020906003020160009091909190915060008201518160000190816109649190612a48565b50602082015181600101908161097a9190612a48565b5060408201518160020155505081600960003373ffffffffffffffffffffffffffffffffffffffff1673ffffffffffffffffffffffffffffffffffffffff168152602001908152602001600020819055506109d533836113b2565b6109df60066113d0565b505050505050565b60096020528060005260406000206000915090505481565b606060018054610a0e906125b7565b80601f0160208091040260200160405190810160405280929190818152602001828054610a3a906125b7565b8015610a875780601f10610a5c57610100808354040283529160200191610a87565b820191906000526020600020905b815481529060010190602001808311610a6a57829003601f168201915b5050505050905090565b610aa3610a9c610f18565b83836113e6565b5050565b610ab8610ab2610f18565b83610fd9565b610af7576040517f08c379a0000000000000000000000000000000000000000000000000000000008152600401610aee9061277e565b60405180910390fd5b610b0384848484611552565b50505050565b6000600160088381548110610b2157610b20612b1a565b5b90600052602060002090600302016002016000828254610b419190612b78565b9250508190555060019050919050565b6000610b5c83610730565b73ffffffffffffffffffffffffffffffffffffffff163373ffffffffffffffffffffffffffffffffffffffff1614610bc0576040517f21ef4c2d00000000000000000000000000000000000000000000000000000000815260040160405180910390fd5b8160088481548110610bd557610bd4612b1a565b5b90600052602060002090600302016001019081610bf29190612a48565b506001905092915050565b6060610c0882610ecd565b6000610c126115ae565b90506000815111610c325760405180602001604052806000815250610c5d565b80610c3c846115c5565b604051602001610c4d929190612be8565b6040516020818303038152906040525b915050919050565b610c6d611cfd565b60088281548110610c8157610c80612b1a565b5b9060005260206000209060030201604051806060016040529081600082018054610caa906125b7565b80601f0160208091040260200160405190810160405280929190818152602001828054610cd6906125b7565b8015610d235780601f10610cf857610100808354040283529160200191610d23565b820191906000526020600020905b815481529060010190602001808311610d0657829003601f168201915b50505050508152602001600182018054610d3c906125b7565b80601f0160208091040260200160405190810160405280929190818152602001828054610d68906125b7565b8015610db55780601f10610d8a57610100808354040283529160200191610db5565b820191906000526020600020905b815481529060010190602001808311610d9857829003601f168201915b505050505081526020016002820154815250509050919050565b6000600560008473ffffffffffffffffffffffffffffffffffffffff1673ffffffffffffffffffffffffffffffffffffffff16815260200190815260200160002060008373ffffffffffffffffffffffffffffffffffffffff1673ffffffffffffffffffffffffffffffffffffffff16815260200190815260200160002060009054906101000a900460ff16905092915050565b60007f01ffc9a7000000000000000000000000000000000000000000000000000000007bffffffffffffffffffffffffffffffffffffffffffffffffffffffff1916827bffffffffffffffffffffffffffffffffffffffffffffffffffffffff1916149050919050565b610ed681611693565b610f15576040517f08c379a0000000000000000000000000000000000000000000000000000000008152600401610f0c906127ea565b60405180910390fd5b50565b600033905090565b816004600083815260200190815260200160002060006101000a81548173ffffffffffffffffffffffffffffffffffffffff021916908373ffffffffffffffffffffffffffffffffffffffff160217905550808273ffffffffffffffffffffffffffffffffffffffff16610f9383610730565b73ffffffffffffffffffffffffffffffffffffffff167f8c5be1e5ebec7d5bd14f71427d1e84f3dd0314c0f7b2291e5b200ac8c7c3b92560405160405180910390a45050565b600080610fe583610730565b90508073ffffffffffffffffffffffffffffffffffffffff168473ffffffffffffffffffffffffffffffffffffffff16148061102757506110268185610dcf565b5b8061106557508373ffffffffffffffffffffffffffffffffffffffff1661104d84610553565b73ffffffffffffffffffffffffffffffffffffffff16145b91505092915050565b8273ffffffffffffffffffffffffffffffffffffffff1661108e82610730565b73ffffffffffffffffffffffffffffffffffffffff16146110e4576040517f08c379a00000000000000000000000000000000000000000000000000000000081526004016110db90612c7e565b60405180910390fd5b600073ffffffffffffffffffffffffffffffffffffffff168273ffffffffffffffffffffffffffffffffffffffff1603611153576040517f08c379a000000000000000000000000000000000000000000000000000000000815260040161114a90612d10565b60405180910390fd5b61116083838360016116d4565b8273ffffffffffffffffffffffffffffffffffffffff1661118082610730565b73ffffffffffffffffffffffffffffffffffffffff16146111d6576040517f08c379a00000000000000000000000000000000000000000000000000000000081526004016111cd90612c7e565b60405180910390fd5b6004600082815260200190815260200160002060006101000a81549073ffffffffffffffffffffffffffffffffffffffff02191690556001600360008573ffffffffffffffffffffffffffffffffffffffff1673ffffffffffffffffffffffffffffffffffffffff168152602001908152602001600020600082825403925050819055506001600360008473ffffffffffffffffffffffffffffffffffffffff1673ffffffffffffffffffffffffffffffffffffffff16815260200190815260200160002060008282540192505081905550816002600083815260200190815260200160002060006101000a81548173ffffffffffffffffffffffffffffffffffffffff021916908373ffffffffffffffffffffffffffffffffffffffff160217905550808273ffffffffffffffffffffffffffffffffffffffff168473ffffffffffffffffffffffffffffffffffffffff167fddf252ad1be2c89b69c2b068fc378daa952ba7f163c4a11628f55a4df523b3ef60405160405180910390a46113628383836001611782565b505050565b60006002600083815260200190815260200160002060009054906101000a900473ffffffffffffffffffffffffffffffffffffffff169050919050565b600081600001549050919050565b6113cc828260405180602001604052806000815250611788565b5050565b6001816000016000828254019250508190555050565b8173ffffffffffffffffffffffffffffffffffffffff168373ffffffffffffffffffffffffffffffffffffffff1603611454576040517f08c379a000000000000000000000000000000000000000000000000000000000815260040161144b90612d7c565b60405180910390fd5b80600560008573ffffffffffffffffffffffffffffffffffffffff1673ffffffffffffffffffffffffffffffffffffffff16815260200190815260200160002060008473ffffffffffffffffffffffffffffffffffffffff1673ffffffffffffffffffffffffffffffffffffffff16815260200190815260200160002060006101000a81548160ff0219169083151502179055508173ffffffffffffffffffffffffffffffffffffffff168373ffffffffffffffffffffffffffffffffffffffff167f17307eab39ab6107e8899845ad3d59bd9653f200f220920489ca2b5937696c31836040516115459190611dd2565b60405180910390a3505050565b61155d84848461106e565b611569848484846117e3565b6115a8576040517f08c379a000000000000000000000000000000000000000000000000000000000815260040161159f90612e0e565b60405180910390fd5b50505050565b606060405180602001604052806000815250905090565b6060600060016115d48461196a565b01905060008167ffffffffffffffff8111156115f3576115f26121cb565b5b6040519080825280601f01601f1916602001820160405280156116255781602001600182028036833780820191505090505b509050600082602001820190505b600115611688578080600190039150507f3031323334353637383961626364656600000000000000000000000000000000600a86061a8153600a858161167c5761167b612e2e565b5b04945060008503611633575b819350505050919050565b60008073ffffffffffffffffffffffffffffffffffffffff166116b583611367565b73ffffffffffffffffffffffffffffffffffffffff1614159050919050565b60006116df336107b6565b14611716576040517fccc9bb1100000000000000000000000000000000000000000000000000000000815260040160405180910390fd5b600073ffffffffffffffffffffffffffffffffffffffff168473ffffffffffffffffffffffffffffffffffffffff161461177c576040517f0ee4274f00000000000000000000000000000000000000000000000000000000815260040160405180910390fd5b50505050565b50505050565b6117928383611abd565b61179f60008484846117e3565b6117de576040517f08c379a00000000000000000000000000000000000000000000000000000000081526004016117d590612e0e565b60405180910390fd5b505050565b60006118048473ffffffffffffffffffffffffffffffffffffffff16611cda565b1561195d578373ffffffffffffffffffffffffffffffffffffffff1663150b7a0261182d610f18565b8786866040518563ffffffff1660e01b815260040161184f9493929190612eb2565b6020604051808303816000875af192505050801561188b57506040513d601f19601f820116820180604052508101906118889190612f13565b60015b61190d573d80600081146118bb576040519150601f19603f3d011682016040523d82523d6000602084013e6118c0565b606091505b506000815103611905576040517f08c379a00000000000000000000000000000000000000000000000000000000081526004016118fc90612e0e565b60405180910390fd5b805181602001fd5b63150b7a0260e01b7bffffffffffffffffffffffffffffffffffffffffffffffffffffffff1916817bffffffffffffffffffffffffffffffffffffffffffffffffffffffff191614915050611962565b600190505b949350505050565b600080600090507a184f03e93ff9f4daa797ed6e38ed64bf6a1f01000000000000000083106119c8577a184f03e93ff9f4daa797ed6e38ed64bf6a1f01000000000000000083816119be576119bd612e2e565b5b0492506040810190505b6d04ee2d6d415b85acef81000000008310611a05576d04ee2d6d415b85acef810000000083816119fb576119fa612e2e565b5b0492506020810190505b662386f26fc100008310611a3457662386f26fc100008381611a2a57611a29612e2e565b5b0492506010810190505b6305f5e1008310611a5d576305f5e1008381611a5357611a52612e2e565b5b0492506008810190505b6127108310611a82576127108381611a7857611a77612e2e565b5b0492506004810190505b60648310611aa55760648381611a9b57611a9a612e2e565b5b0492506002810190505b600a8310611ab4576001810190505b80915050919050565b600073ffffffffffffffffffffffffffffffffffffffff168273ffffffffffffffffffffffffffffffffffffffff1603611b2c576040517f08c379a0000000000000000000000000000000000000000000000000000000008152600401611b2390612f8c565b60405180910390fd5b611b3581611693565b15611b75576040517f08c379a0000000000000000000000000000000000000000000000000000000008152600401611b6c90612ff8565b60405180910390fd5b611b836000838360016116d4565b611b8c81611693565b15611bcc576040517f08c379a0000000000000000000000000000000000000000000000000000000008152600401611bc390612ff8565b60405180910390fd5b6001600360008473ffffffffffffffffffffffffffffffffffffffff1673ffffffffffffffffffffffffffffffffffffffff16815260200190815260200160002060008282540192505081905550816002600083815260200190815260200160002060006101000a81548173ffffffffffffffffffffffffffffffffffffffff021916908373ffffffffffffffffffffffffffffffffffffffff160217905550808273ffffffffffffffffffffffffffffffffffffffff16600073ffffffffffffffffffffffffffffffffffffffff167fddf252ad1be2c89b69c2b068fc378daa952ba7f163c4a11628f55a4df523b3ef60405160405180910390a4611cd6600083836001611782565b5050565b6000808273ffffffffffffffffffffffffffffffffffffffff163b119050919050565b60405180606001604052806060815260200160608152602001600081525090565b6000604051905090565b600080fd5b600080fd5b60007fffffffff0000000000000000000000000000000000000000000000000000000082169050919050565b611d6781611d32565b8114611d7257600080fd5b50565b600081359050611d8481611d5e565b92915050565b600060208284031215611da057611d9f611d28565b5b6000611dae84828501611d75565b91505092915050565b60008115159050919050565b611dcc81611db7565b82525050565b6000602082019050611de76000830184611dc3565b92915050565b600081519050919050565b600082825260208201905092915050565b60005b83811015611e27578082015181840152602081019050611e0c565b60008484015250505050565b6000601f19601f8301169050919050565b6000611e4f82611ded565b611e598185611df8565b9350611e69818560208601611e09565b611e7281611e33565b840191505092915050565b60006020820190508181036000830152611e978184611e44565b905092915050565b6000819050919050565b611eb281611e9f565b8114611ebd57600080fd5b50565b600081359050611ecf81611ea9565b92915050565b600060208284031215611eeb57611eea611d28565b5b6000611ef984828501611ec0565b91505092915050565b600073ffffffffffffffffffffffffffffffffffffffff82169050919050565b6000611f2d82611f02565b9050919050565b611f3d81611f22565b82525050565b6000602082019050611f586000830184611f34565b92915050565b611f6781611f22565b8114611f7257600080fd5b50565b600081359050611f8481611f5e565b92915050565b60008060408385031215611fa157611fa0611d28565b5b6000611faf85828601611f75565b9250506020611fc085828601611ec0565b9150509250929050565b600080600060608486031215611fe357611fe2611d28565b5b6000611ff186828701611f75565b935050602061200286828701611f75565b925050604061201386828701611ec0565b9150509250925092565b60006020828403121561203357612032611d28565b5b600061204184828501611f75565b91505092915050565b61205381611e9f565b82525050565b600060208201905061206e600083018461204a565b92915050565b600080fd5b600080fd5b600080fd5b60008083601f84011261209957612098612074565b5b8235905067ffffffffffffffff8111156120b6576120b5612079565b5b6020830191508360018202830111156120d2576120d161207e565b5b9250929050565b600080600080604085870312156120f3576120f2611d28565b5b600085013567ffffffffffffffff81111561211157612110611d2d565b5b61211d87828801612083565b9450945050602085013567ffffffffffffffff8111156121405761213f611d2d565b5b61214c87828801612083565b925092505092959194509250565b61216381611db7565b811461216e57600080fd5b50565b6000813590506121808161215a565b92915050565b6000806040838503121561219d5761219c611d28565b5b60006121ab85828601611f75565b92505060206121bc85828601612171565b9150509250929050565b600080fd5b7f4e487b7100000000000000000000000000000000000000000000000000000000600052604160045260246000fd5b61220382611e33565b810181811067ffffffffffffffff82111715612222576122216121cb565b5b80604052505050565b6000612235611d1e565b905061224182826121fa565b919050565b600067ffffffffffffffff821115612261576122606121cb565b5b61226a82611e33565b9050602081019050919050565b82818337600083830152505050565b600061229961229484612246565b61222b565b9050828152602081018484840111156122b5576122b46121c6565b5b6122c0848285612277565b509392505050565b600082601f8301126122dd576122dc612074565b5b81356122ed848260208601612286565b91505092915050565b600080600080608085870312156123105761230f611d28565b5b600061231e87828801611f75565b945050602061232f87828801611f75565b935050604061234087828801611ec0565b925050606085013567ffffffffffffffff81111561236157612360611d2d565b5b61236d878288016122c8565b91505092959194509250565b600067ffffffffffffffff821115612394576123936121cb565b5b61239d82611e33565b9050602081019050919050565b60006123bd6123b884612379565b61222b565b9050828152602081018484840111156123d9576123d86121c6565b5b6123e4848285612277565b509392505050565b600082601f83011261240157612400612074565b5b81356124118482602086016123aa565b91505092915050565b6000806040838503121561243157612430611d28565b5b600061243f85828601611ec0565b925050602083013567ffffffffffffffff8111156124605761245f611d2d565b5b61246c858286016123ec565b9150509250929050565b600082825260208201905092915050565b600061249282611ded565b61249c8185612476565b93506124ac818560208601611e09565b6124b581611e33565b840191505092915050565b6124c981611e9f565b82525050565b600060608301600083015184820360008601526124ec8282612487565b915050602083015184820360208601526125068282612487565b915050604083015161251b60408601826124c0565b508091505092915050565b6000602082019050818103600083015261254081846124cf565b905092915050565b6000806040838503121561255f5761255e611d28565b5b600061256d85828601611f75565b925050602061257e85828601611f75565b9150509250929050565b7f4e487b7100000000000000000000000000000000000000000000000000000000600052602260045260246000fd5b600060028204905060018216806125cf57607f821691505b6020821081036125e2576125e1612588565b5b50919050565b7f4552433732313a20617070726f76616c20746f2063757272656e74206f776e6560008201527f7200000000000000000000000000000000000000000000000000000000000000602082015250565b6000612644602183611df8565b915061264f826125e8565b604082019050919050565b6000602082019050818103600083015261267381612637565b9050919050565b7f4552433732313a20617070726f76652063616c6c6572206973206e6f7420746f60008201527f6b656e206f776e6572206f7220617070726f76656420666f7220616c6c000000602082015250565b60006126d6603d83611df8565b91506126e18261267a565b604082019050919050565b60006020820190508181036000830152612705816126c9565b9050919050565b7f4552433732313a2063616c6c6572206973206e6f7420746f6b656e206f776e6560008201527f72206f7220617070726f76656400000000000000000000000000000000000000602082015250565b6000612768602d83611df8565b91506127738261270c565b604082019050919050565b600060208201905081810360008301526127978161275b565b9050919050565b7f4552433732313a20696e76616c696420746f6b656e2049440000000000000000600082015250565b60006127d4601883611df8565b91506127df8261279e565b602082019050919050565b60006020820190508181036000830152612803816127c7565b9050919050565b7f4552433732313a2061646472657373207a65726f206973206e6f74206120766160008201527f6c6964206f776e65720000000000000000000000000000000000000000000000602082015250565b6000612866602983611df8565b91506128718261280a565b604082019050919050565b6000602082019050818103600083015261289581612859565b9050919050565b60008190508160005260206000209050919050565b60006020601f8301049050919050565b600082821b905092915050565b6000600883026128fe7fffffffffffffffffffffffffffffffffffffffffffffffffffffffffffffffff826128c1565b61290886836128c1565b95508019841693508086168417925050509392505050565b6000819050919050565b600061294561294061293b84611e9f565b612920565b611e9f565b9050919050565b6000819050919050565b61295f8361292a565b61297361296b8261294c565b8484546128ce565b825550505050565b600090565b61298861297b565b612993818484612956565b505050565b5b818110156129b7576129ac600082612980565b600181019050612999565b5050565b601f8211156129fc576129cd8161289c565b6129d6846128b1565b810160208510156129e5578190505b6129f96129f1856128b1565b830182612998565b50505b505050565b600082821c905092915050565b6000612a1f60001984600802612a01565b1980831691505092915050565b6000612a388383612a0e565b9150826002028217905092915050565b612a5182611ded565b67ffffffffffffffff811115612a6a57612a696121cb565b5b612a7482546125b7565b612a7f8282856129bb565b600060209050601f831160018114612ab25760008415612aa0578287015190505b612aaa8582612a2c565b865550612b12565b601f198416612ac08661289c565b60005b82811015612ae857848901518255600182019150602085019450602081019050612ac3565b86831015612b055784890151612b01601f891682612a0e565b8355505b6001600288020188555050505b505050505050565b7f4e487b7100000000000000000000000000000000000000000000000000000000600052603260045260246000fd5b7f4e487b7100000000000000000000000000000000000000000000000000000000600052601160045260246000fd5b6000612b8382611e9f565b9150612b8e83611e9f565b9250828201905080821115612ba657612ba5612b49565b5b92915050565b600081905092915050565b6000612bc282611ded565b612bcc8185612bac565b9350612bdc818560208601611e09565b80840191505092915050565b6000612bf48285612bb7565b9150612c008284612bb7565b91508190509392505050565b7f4552433732313a207472616e736665722066726f6d20696e636f72726563742060008201527f6f776e6572000000000000000000000000000000000000000000000000000000602082015250565b6000612c68602583611df8565b9150612c7382612c0c565b604082019050919050565b60006020820190508181036000830152612c9781612c5b565b9050919050565b7f4552433732313a207472616e7366657220746f20746865207a65726f2061646460008201527f7265737300000000000000000000000000000000000000000000000000000000602082015250565b6000612cfa602483611df8565b9150612d0582612c9e565b604082019050919050565b60006020820190508181036000830152612d2981612ced565b9050919050565b7f4552433732313a20617070726f766520746f2063616c6c657200000000000000600082015250565b6000612d66601983611df8565b9150612d7182612d30565b602082019050919050565b60006020820190508181036000830152612d9581612d59565b9050919050565b7f4552433732313a207472616e7366657220746f206e6f6e20455243373231526560008201527f63656976657220696d706c656d656e7465720000000000000000000000000000602082015250565b6000612df8603283611df8565b9150612e0382612d9c565b604082019050919050565b60006020820190508181036000830152612e2781612deb565b9050919050565b7f4e487b7100000000000000000000000000000000000000000000000000000000600052601260045260246000fd5b600081519050919050565b600082825260208201905092915050565b6000612e8482612e5d565b612e8e8185612e68565b9350612e9e818560208601611e09565b612ea781611e33565b840191505092915050565b6000608082019050612ec76000830187611f34565b612ed46020830186611f34565b612ee1604083018561204a565b8181036060830152612ef38184612e79565b905095945050505050565b600081519050612f0d81611d5e565b92915050565b600060208284031215612f2957612f28611d28565b5b6000612f3784828501612efe565b91505092915050565b7f4552433732313a206d696e7420746f20746865207a65726f2061646472657373600082015250565b6000612f76602083611df8565b9150612f8182612f40565b602082019050919050565b60006020820190508181036000830152612fa581612f69565b9050919050565b7f4552433732313a20746f6b656e20616c7265616479206d696e74656400000000600082015250565b6000612fe2601c83611df8565b9150612fed82612fac565b602082019050919050565b6000602082019050818103600083015261301181612fd5565b905091905056fea2646970667358221220a375ed4e9cfe0752130694245ece171f6f317abd93da65a78e314ab95ed34d4d64736f6c63430008110033",
  "linkReferences": {},
  "deployedLinkReferences": {}
}