{
  "_format": "hh-sol-artifact-1",
  "contractName": "Product",
  "sourceName": "contracts/Product.sol",
  "abi": [
    {
      "inputs": [
        {
          "internalType": "address",
          "name": "_owner",
          "type": "address"
        },
        {
          "internalType": "address",
          "name": "_treasury",
          "type": "address"
        },
        {
          "internalType": "string",
          "name": "_name",
          "type": "string"
        },
        {
          "internalType": "uint256",
          "name": "_marketPrice",
          "type": "uint256"
        },
        {
          "internalType": "uint256",
          "name": "_discountedPrice",
          "type": "uint256"
        },
        {
          "internalType": "uint128",
          "name": "_quantityTreshold",
          "type": "uint128"
        },
        {
          "internalType": "uint128",
          "name": "_endDate",
          "type": "uint128"
        }
      ],
      "stateMutability": "nonpayable",
      "type": "constructor"
    },
    {
      "inputs": [],
      "name": "AmountSentTooLow",
      "type": "error"
    },
    {
      "inputs": [],
      "name": "EvaluationPeriodNotOver",
      "type": "error"
    },
    {
      "inputs": [],
      "name": "OfferEnded",
      "type": "error"
    },
    {
      "inputs": [],
      "name": "OnlyOwnerCanWithdrawFunds",
      "type": "error"
    },
    {
      "inputs": [],
      "name": "ThereIsAMinAmountToLock",
      "type": "error"
    },
    {
      "inputs": [],
      "name": "ThereIsAProblemWithYourProduct",
      "type": "error"
    },
    {
      "inputs": [],
      "name": "WaitForEvaluationPeriodDelay",
      "type": "error"
    },
    {
      "inputs": [],
      "name": "WithdrawFailed",
      "type": "error"
    },
    {
      "inputs": [],
      "name": "YouDidNotParticipatedInThatOffer",
      "type": "error"
    },
    {
      "anonymous": false,
      "inputs": [
        {
          "indexed": false,
          "internalType": "address",
          "name": "participant",
          "type": "address"
        },
        {
          "indexed": false,
          "internalType": "uint256",
          "name": "votingPower",
          "type": "uint256"
        }
      ],
      "name": "EvaluateConform",
      "type": "event"
    },
    {
      "anonymous": false,
      "inputs": [
        {
          "indexed": false,
          "internalType": "address",
          "name": "participant",
          "type": "address"
        },
        {
          "indexed": false,
          "internalType": "uint256",
          "name": "votingPower",
          "type": "uint256"
        }
      ],
      "name": "EvaluateNoConform",
      "type": "event"
    },
    {
      "anonymous": false,
      "inputs": [
        {
          "indexed": false,
          "internalType": "address",
          "name": "participant",
          "type": "address"
        },
        {
          "indexed": false,
          "internalType": "uint256",
          "name": "amount",
          "type": "uint256"
        }
      ],
      "name": "EvaluationConformPriceWithdrawn",
      "type": "event"
    },
    {
      "anonymous": false,
      "inputs": [
        {
          "indexed": false,
          "internalType": "address",
          "name": "participant",
          "type": "address"
        },
        {
          "indexed": false,
          "internalType": "uint256",
          "name": "amount",
          "type": "uint256"
        }
      ],
      "name": "ParticipateGroupBuy",
      "type": "event"
    },
    {
      "anonymous": false,
      "inputs": [
        {
          "indexed": false,
          "internalType": "address",
          "name": "owner",
          "type": "address"
        },
        {
          "indexed": false,
          "internalType": "uint256",
          "name": "amount",
          "type": "uint256"
        }
      ],
      "name": "ProductOfSellsWithdrawn",
      "type": "event"
    },
    {
      "inputs": [
        {
          "internalType": "bool",
          "name": "conformity",
          "type": "bool"
        }
      ],
      "name": "evaluateProduct",
      "outputs": [],
      "stateMutability": "payable",
      "type": "function"
    },
    {
      "inputs": [],
      "name": "owner",
      "outputs": [
        {
          "internalType": "address",
          "name": "",
          "type": "address"
        }
      ],
      "stateMutability": "view",
      "type": "function"
    },
    {
      "inputs": [
        {
          "internalType": "address",
          "name": "",
          "type": "address"
        },
        {
          "internalType": "bool",
          "name": "",
          "type": "bool"
        }
      ],
      "name": "participantEvaluation",
      "outputs": [
        {
          "internalType": "uint256",
          "name": "",
          "type": "uint256"
        }
      ],
      "stateMutability": "view",
      "type": "function"
    },
    {
      "inputs": [
        {
          "internalType": "uint256",
          "name": "quantityToBuy",
          "type": "uint256"
        }
      ],
      "name": "participate",
      "outputs": [],
      "stateMutability": "payable",
      "type": "function"
    },
    {
      "inputs": [],
      "name": "productConformity",
      "outputs": [
        {
          "internalType": "uint256",
          "name": "noConform",
          "type": "uint256"
        },
        {
          "internalType": "uint256",
          "name": "conform",
          "type": "uint256"
        }
      ],
      "stateMutability": "view",
      "type": "function"
    },
    {
      "inputs": [],
      "name": "productInfo",
      "outputs": [
        {
          "internalType": "string",
          "name": "name",
          "type": "string"
        },
        {
          "internalType": "uint256",
          "name": "marketPrice",
          "type": "uint256"
        },
        {
          "internalType": "uint256",
          "name": "discountedPrice",
          "type": "uint256"
        },
        {
          "internalType": "uint128",
          "name": "quantityTreshold",
          "type": "uint128"
        },
        {
          "internalType": "uint128",
          "name": "endDate",
          "type": "uint128"
        }
      ],
      "stateMutability": "view",
      "type": "function"
    },
    {
      "inputs": [
        {
          "internalType": "address",
          "name": "",
          "type": "address"
        }
      ],
      "name": "quantityBought",
      "outputs": [
        {
          "internalType": "uint256",
          "name": "",
          "type": "uint256"
        }
      ],
      "stateMutability": "view",
      "type": "function"
    },
    {
      "inputs": [],
      "name": "quantitySold",
      "outputs": [
        {
          "internalType": "uint256",
          "name": "",
          "type": "uint256"
        }
      ],
      "stateMutability": "view",
      "type": "function"
    },
    {
      "inputs": [],
      "name": "withdrawEvaluationConformPrice",
      "outputs": [],
      "stateMutability": "nonpayable",
      "type": "function"
    },
    {
      "inputs": [],
      "name": "withdrawProductOfSells",
      "outputs": [],
      "stateMutability": "nonpayable",
      "type": "function"
    }
  ],
  "bytecode": "0x60806040523480156200001157600080fd5b5060405162001b2538038062001b25833981810160405281019062000037919062000446565b86600160006101000a81548173ffffffffffffffffffffffffffffffffffffffff021916908373ffffffffffffffffffffffffffffffffffffffff16021790555085600260006101000a81548173ffffffffffffffffffffffffffffffffffffffff021916908373ffffffffffffffffffffffffffffffffffffffff16021790555060006040518060a00160405280878152602001868152602001858152602001846fffffffffffffffffffffffffffffffff168152602001836fffffffffffffffffffffffffffffffff168152509050806003600082015181600001908162000122919062000759565b50602082015181600101556040820151816002015560608201518160030160006101000a8154816fffffffffffffffffffffffffffffffff02191690836fffffffffffffffffffffffffffffffff16021790555060808201518160030160106101000a8154816fffffffffffffffffffffffffffffffff02191690836fffffffffffffffffffffffffffffffff160217905550905050505050505050505062000840565b6000604051905090565b600080fd5b600080fd5b600073ffffffffffffffffffffffffffffffffffffffff82169050919050565b60006200020782620001da565b9050919050565b6200021981620001fa565b81146200022557600080fd5b50565b60008151905062000239816200020e565b92915050565b600080fd5b600080fd5b6000601f19601f8301169050919050565b7f4e487b7100000000000000000000000000000000000000000000000000000000600052604160045260246000fd5b620002948262000249565b810181811067ffffffffffffffff82111715620002b657620002b56200025a565b5b80604052505050565b6000620002cb620001c6565b9050620002d9828262000289565b919050565b600067ffffffffffffffff821115620002fc57620002fb6200025a565b5b620003078262000249565b9050602081019050919050565b60005b838110156200033457808201518184015260208101905062000317565b60008484015250505050565b6000620003576200035184620002de565b620002bf565b90508281526020810184848401111562000376576200037562000244565b5b6200038384828562000314565b509392505050565b600082601f830112620003a357620003a26200023f565b5b8151620003b584826020860162000340565b91505092915050565b6000819050919050565b620003d381620003be565b8114620003df57600080fd5b50565b600081519050620003f381620003c8565b92915050565b60006fffffffffffffffffffffffffffffffff82169050919050565b6200042081620003f9565b81146200042c57600080fd5b50565b600081519050620004408162000415565b92915050565b600080600080600080600060e0888a031215620004685762000467620001d0565b5b6000620004788a828b0162000228565b97505060206200048b8a828b0162000228565b965050604088015167ffffffffffffffff811115620004af57620004ae620001d5565b5b620004bd8a828b016200038b565b9550506060620004d08a828b01620003e2565b9450506080620004e38a828b01620003e2565b93505060a0620004f68a828b016200042f565b92505060c0620005098a828b016200042f565b91505092959891949750929550565b600081519050919050565b7f4e487b7100000000000000000000000000000000000000000000000000000000600052602260045260246000fd5b600060028204905060018216806200056b57607f821691505b60208210810362000581576200058062000523565b5b50919050565b60008190508160005260206000209050919050565b60006020601f8301049050919050565b600082821b905092915050565b600060088302620005eb7fffffffffffffffffffffffffffffffffffffffffffffffffffffffffffffffff82620005ac565b620005f78683620005ac565b95508019841693508086168417925050509392505050565b6000819050919050565b60006200063a620006346200062e84620003be565b6200060f565b620003be565b9050919050565b6000819050919050565b620006568362000619565b6200066e620006658262000641565b848454620005b9565b825550505050565b600090565b6200068562000676565b620006928184846200064b565b505050565b5b81811015620006ba57620006ae6000826200067b565b60018101905062000698565b5050565b601f8211156200070957620006d38162000587565b620006de846200059c565b81016020851015620006ee578190505b62000706620006fd856200059c565b83018262000697565b50505b505050565b600082821c905092915050565b60006200072e600019846008026200070e565b1980831691505092915050565b60006200074983836200071b565b9150826002028217905092915050565b620007648262000518565b67ffffffffffffffff81111562000780576200077f6200025a565b5b6200078c825462000552565b62000799828285620006be565b600060209050601f831160018114620007d15760008415620007bc578287015190505b620007c885826200073b565b86555062000838565b601f198416620007e18662000587565b60005b828110156200080b57848901518255600182019150602085019450602081019050620007e4565b868310156200082b578489015162000827601f8916826200071b565b8355505b6001600288020188555050505b505050505050565b6112d580620008506000396000f3fe6080604052600436106100915760003560e01c8063845c930611610059578063845c9306146101495780638da5cb5b14610165578063b47b4d9614610190578063c658f6e8146101bb578063dab713c0146101f857610091565b80631dd17f83146100965780633309d0a3146100d35780633645c484146100ff5780633f00c7851461011b5780634afd131b14610132575b600080fd5b3480156100a257600080fd5b506100bd60048036038101906100b89190610e08565b610227565b6040516100ca9190610e61565b60405180910390f35b3480156100df57600080fd5b506100e861024c565b6040516100f6929190610e7c565b60405180910390f35b61011960048036038101906101149190610ea5565b61025e565b005b34801561012757600080fd5b5061013061052a565b005b34801561013e57600080fd5b506101476107aa565b005b610163600480360381019061015e9190610efe565b610ae5565b005b34801561017157600080fd5b5061017a610c45565b6040516101879190610f3a565b60405180910390f35b34801561019c57600080fd5b506101a5610c6b565b6040516101b29190610e61565b60405180910390f35b3480156101c757600080fd5b506101e260048036038101906101dd9190610f55565b610c71565b6040516101ef9190610e61565b60405180910390f35b34801561020457600080fd5b5061020d610c89565b60405161021e95949392919061103d565b60405180910390f35b600a602052816000526040600020602052806000526040600020600091509150505481565b60078060000154908060010154905082565b6000600960003373ffffffffffffffffffffffffffffffffffffffff1673ffffffffffffffffffffffffffffffffffffffff168152602001908152602001600020549050621275006003800160109054906101000a90046fffffffffffffffffffffffffffffffff166fffffffffffffffffffffffffffffffff166102e391906110c6565b42101561031c576040517f3e17a81800000000000000000000000000000000000000000000000000000000815260040160405180910390fd5b6001811015610357576040517f986bf73d00000000000000000000000000000000000000000000000000000000815260040160405180910390fd5b811561042357806007600101600082825461037291906110c6565b9250508190555080600a60003373ffffffffffffffffffffffffffffffffffffffff1673ffffffffffffffffffffffffffffffffffffffff1681526020019081526020016000206000600115151515815260200190815260200160002060008282546103de91906110c6565b925050819055507f43395425676ae3dc10ddde602f91f39874649a80b59034529ce5d9e609d6bf6833826040516104169291906110fa565b60405180910390a1610526565b67016345785d8a0000341015610465576040517f54aa2d1700000000000000000000000000000000000000000000000000000000815260040160405180910390fd5b806007600001600082825461047a91906110c6565b9250508190555080600a60003373ffffffffffffffffffffffffffffffffffffffff1673ffffffffffffffffffffffffffffffffffffffff16815260200190815260200160002060008015151515815260200190815260200160002060008282546104e591906110c6565b925050819055507f171ae997a165b83aab6e099a17376a0ce3bf2aabd2aef62c3258e7425c427889338260405161051d9291906110fa565b60405180910390a15b5050565b62127500806003800160109054906101000a90046fffffffffffffffffffffffffffffffff166fffffffffffffffffffffffffffffffff1661056c91906110c6565b61057691906110c6565b4210156105af576040517f181e3f9b00000000000000000000000000000000000000000000000000000000815260040160405180910390fd5b60006007600101546007600001546105c791906110c6565b9050610bb8816127106007600001546105e09190611123565b6105ea9190611194565b1115610622576040517fd558872200000000000000000000000000000000000000000000000000000000815260040160405180910390fd5b600060076001015461271067016345785d8a00006007600001546106469190611123565b6106509190611123565b61065a9190611194565b905060003373ffffffffffffffffffffffffffffffffffffffff16612710600a60003373ffffffffffffffffffffffffffffffffffffffff1673ffffffffffffffffffffffffffffffffffffffff1681526020019081526020016000206000600115151515815260200190815260200160002054846106d99190611123565b6106e39190611194565b6040516106ef906111f6565b60006040518083038185875af1925050503d806000811461072c576040519150601f19603f3d011682016040523d82523d6000602084013e610731565b606091505b505090508061076c576040517f750b219c00000000000000000000000000000000000000000000000000000000815260040160405180910390fd5b7f70ddb85706adfb5d63aea6bb3315f9ee6cf0c5b4ac2b7f7cb63ef0a8159d5f5a338360405161079d9291906110fa565b60405180910390a1505050565b600160009054906101000a900473ffffffffffffffffffffffffffffffffffffffff1673ffffffffffffffffffffffffffffffffffffffff163373ffffffffffffffffffffffffffffffffffffffff1614610831576040517fc28122b500000000000000000000000000000000000000000000000000000000815260040160405180910390fd5b62127500806003800160109054906101000a90046fffffffffffffffffffffffffffffffff166fffffffffffffffffffffffffffffffff1661087391906110c6565b61087d91906110c6565b4210156108b6576040517f181e3f9b00000000000000000000000000000000000000000000000000000000815260040160405180910390fd5b60006007600101546007600001546108ce91906110c6565b9050610bb8816127106007600001546108e79190611123565b6108f19190611194565b1115610929576040517fd558872200000000000000000000000000000000000000000000000000000000815260040160405180910390fd5b600060036002015460005461093e9190611123565b905060006127106101f4836109539190611123565b61095d9190611194565b905060003373ffffffffffffffffffffffffffffffffffffffff168284610984919061120b565b604051610990906111f6565b60006040518083038185875af1925050503d80600081146109cd576040519150601f19603f3d011682016040523d82523d6000602084013e6109d2565b606091505b50509050600260009054906101000a900473ffffffffffffffffffffffffffffffffffffffff1673ffffffffffffffffffffffffffffffffffffffff1682604051610a1c906111f6565b60006040518083038185875af1925050503d8060008114610a59576040519150601f19603f3d011682016040523d82523d6000602084013e610a5e565b606091505b50508091505080610a9b576040517f750b219c00000000000000000000000000000000000000000000000000000000815260040160405180910390fd5b7f076597fbe0f8c84143006de050fee841f9ebfa953f9b5ec5e1d9c77695970165338385610ac9919061120b565b604051610ad79291906110fa565b60405180910390a150505050565b6003800160109054906101000a90046fffffffffffffffffffffffffffffffff166fffffffffffffffffffffffffffffffff16421115610b51576040517f68cc377500000000000000000000000000000000000000000000000000000000815260040160405180910390fd5b60036002015481610b629190611123565b341015610b9b576040517f14640f7700000000000000000000000000000000000000000000000000000000815260040160405180910390fd5b80600080828254610bac91906110c6565b9250508190555080600960003373ffffffffffffffffffffffffffffffffffffffff1673ffffffffffffffffffffffffffffffffffffffff1681526020019081526020016000206000828254610c0291906110c6565b925050819055507f2409f285876e7ea1acb9fd55b670d4665a7506dbeadf4cb7f751552ecdb2d8693382604051610c3a9291906110fa565b60405180910390a150565b600160009054906101000a900473ffffffffffffffffffffffffffffffffffffffff1681565b60005481565b60096020528060005260406000206000915090505481565b6003806000018054610c9a9061126e565b80601f0160208091040260200160405190810160405280929190818152602001828054610cc69061126e565b8015610d135780601f10610ce857610100808354040283529160200191610d13565b820191906000526020600020905b815481529060010190602001808311610cf657829003601f168201915b5050505050908060010154908060020154908060030160009054906101000a90046fffffffffffffffffffffffffffffffff16908060030160109054906101000a90046fffffffffffffffffffffffffffffffff16905085565b600080fd5b600073ffffffffffffffffffffffffffffffffffffffff82169050919050565b6000610d9d82610d72565b9050919050565b610dad81610d92565b8114610db857600080fd5b50565b600081359050610dca81610da4565b92915050565b60008115159050919050565b610de581610dd0565b8114610df057600080fd5b50565b600081359050610e0281610ddc565b92915050565b60008060408385031215610e1f57610e1e610d6d565b5b6000610e2d85828601610dbb565b9250506020610e3e85828601610df3565b9150509250929050565b6000819050919050565b610e5b81610e48565b82525050565b6000602082019050610e766000830184610e52565b92915050565b6000604082019050610e916000830185610e52565b610e9e6020830184610e52565b9392505050565b600060208284031215610ebb57610eba610d6d565b5b6000610ec984828501610df3565b91505092915050565b610edb81610e48565b8114610ee657600080fd5b50565b600081359050610ef881610ed2565b92915050565b600060208284031215610f1457610f13610d6d565b5b6000610f2284828501610ee9565b91505092915050565b610f3481610d92565b82525050565b6000602082019050610f4f6000830184610f2b565b92915050565b600060208284031215610f6b57610f6a610d6d565b5b6000610f7984828501610dbb565b91505092915050565b600081519050919050565b600082825260208201905092915050565b60005b83811015610fbc578082015181840152602081019050610fa1565b60008484015250505050565b6000601f19601f8301169050919050565b6000610fe482610f82565b610fee8185610f8d565b9350610ffe818560208601610f9e565b61100781610fc8565b840191505092915050565b60006fffffffffffffffffffffffffffffffff82169050919050565b61103781611012565b82525050565b600060a08201905081810360008301526110578188610fd9565b90506110666020830187610e52565b6110736040830186610e52565b611080606083018561102e565b61108d608083018461102e565b9695505050505050565b7f4e487b7100000000000000000000000000000000000000000000000000000000600052601160045260246000fd5b60006110d182610e48565b91506110dc83610e48565b92508282019050808211156110f4576110f3611097565b5b92915050565b600060408201905061110f6000830185610f2b565b61111c6020830184610e52565b9392505050565b600061112e82610e48565b915061113983610e48565b925082820261114781610e48565b9150828204841483151761115e5761115d611097565b5b5092915050565b7f4e487b7100000000000000000000000000000000000000000000000000000000600052601260045260246000fd5b600061119f82610e48565b91506111aa83610e48565b9250826111ba576111b9611165565b5b828204905092915050565b600081905092915050565b50565b60006111e06000836111c5565b91506111eb826111d0565b600082019050919050565b6000611201826111d3565b9150819050919050565b600061121682610e48565b915061122183610e48565b925082820390508181111561123957611238611097565b5b92915050565b7f4e487b7100000000000000000000000000000000000000000000000000000000600052602260045260246000fd5b6000600282049050600182168061128657607f821691505b6020821081036112995761129861123f565b5b5091905056fea2646970667358221220a702e90771a506452c6d2e01ce19d5689c997964e3a185dfe245255037e4838e64736f6c63430008110033",
  "linkReferences": {},
  "deployedLinkReferences": {}
}